{
  "_format": "hh-sol-artifact-1",
  "contractName": "Escrow",
  "sourceName": "contracts/Escrow.sol",
  "abi": [
    {
      "inputs": [],
      "stateMutability": "nonpayable",
      "type": "constructor"
    },
    {
      "inputs": [
        {
          "internalType": "address",
          "name": "owner",
          "type": "address"
        }
      ],
      "name": "OwnableInvalidOwner",
      "type": "error"
    },
    {
      "inputs": [
        {
          "internalType": "address",
          "name": "account",
          "type": "address"
        }
      ],
      "name": "OwnableUnauthorizedAccount",
      "type": "error"
    },
    {
      "anonymous": false,
      "inputs": [
        {
          "indexed": false,
          "internalType": "address",
          "name": "oldArbitrator",
          "type": "address"
        },
        {
          "indexed": false,
          "internalType": "address",
          "name": "newArbitrator",
          "type": "address"
        }
      ],
      "name": "ArbitratorUpdated",
      "type": "event"
    },
    {
      "anonymous": false,
      "inputs": [
        {
          "indexed": true,
          "internalType": "address",
          "name": "party",
          "type": "address"
        },
        {
          "indexed": false,
          "internalType": "uint256",
          "name": "amount",
          "type": "uint256"
        }
      ],
      "name": "Deposited",
      "type": "event"
    },
    {
      "anonymous": false,
      "inputs": [],
      "name": "DisputeEscalated",
      "type": "event"
    },
    {
      "anonymous": false,
      "inputs": [],
      "name": "DisputeRaised",
      "type": "event"
    },
    {
      "anonymous": false,
      "inputs": [
        {
          "indexed": false,
          "internalType": "bool",
          "name": "tradeReleased",
          "type": "bool"
        },
        {
          "indexed": false,
          "internalType": "uint8",
          "name": "penalizedParty",
          "type": "uint8"
        }
      ],
      "name": "DisputeResolved",
      "type": "event"
    },
    {
      "anonymous": false,
      "inputs": [
        {
          "indexed": false,
          "internalType": "uint256",
          "name": "newFeeRate",
          "type": "uint256"
        },
        {
          "indexed": false,
          "internalType": "address",
          "name": "newPlatformWallet",
          "type": "address"
        }
      ],
      "name": "FeeUpdated",
      "type": "event"
    },
    {
      "anonymous": false,
      "inputs": [
        {
          "indexed": true,
          "internalType": "address",
          "name": "seller",
          "type": "address"
        }
      ],
      "name": "FiatReceivedConfirmed",
      "type": "event"
    },
    {
      "anonymous": false,
      "inputs": [
        {
          "indexed": true,
          "internalType": "address",
          "name": "buyer",
          "type": "address"
        }
      ],
      "name": "FiatSentConfirmed",
      "type": "event"
    },
    {
      "anonymous": false,
      "inputs": [
        {
          "indexed": true,
          "internalType": "address",
          "name": "previousOwner",
          "type": "address"
        },
        {
          "indexed": true,
          "internalType": "address",
          "name": "newOwner",
          "type": "address"
        }
      ],
      "name": "OwnershipTransferred",
      "type": "event"
    },
    {
      "anonymous": false,
      "inputs": [],
      "name": "TradeCancelled",
      "type": "event"
    },
    {
      "anonymous": false,
      "inputs": [
        {
          "indexed": false,
          "internalType": "address",
          "name": "buyer",
          "type": "address"
        },
        {
          "indexed": false,
          "internalType": "address",
          "name": "seller",
          "type": "address"
        },
        {
          "indexed": false,
          "internalType": "address",
          "name": "arbitrator",
          "type": "address"
        },
        {
          "indexed": false,
          "internalType": "uint256",
          "name": "depositDeadline",
          "type": "uint256"
        },
        {
          "indexed": false,
          "internalType": "uint256",
          "name": "confirmationDuration",
          "type": "uint256"
        },
        {
          "indexed": false,
          "internalType": "uint256",
          "name": "disputeTimeout",
          "type": "uint256"
        },
        {
          "indexed": false,
          "internalType": "uint256",
          "name": "feeRate",
          "type": "uint256"
        },
        {
          "indexed": false,
          "internalType": "address",
          "name": "platformWallet",
          "type": "address"
        },
        {
          "indexed": false,
          "internalType": "uint256",
          "name": "profitMargin",
          "type": "uint256"
        }
      ],
      "name": "TradeInitialized",
      "type": "event"
    },
    {
      "anonymous": false,
      "inputs": [
        {
          "indexed": false,
          "internalType": "uint256",
          "name": "cryptoTransferred",
          "type": "uint256"
        },
        {
          "indexed": false,
          "internalType": "uint256",
          "name": "buyerRefund",
          "type": "uint256"
        },
        {
          "indexed": false,
          "internalType": "uint256",
          "name": "sellerRefund",
          "type": "uint256"
        }
      ],
      "name": "TradeReleased",
      "type": "event"
    },
    {
      "inputs": [],
      "name": "arbitrator",
      "outputs": [
        {
          "internalType": "address",
          "name": "",
          "type": "address"
        }
      ],
      "stateMutability": "view",
      "type": "function"
    },
    {
      "inputs": [],
      "name": "buyer",
      "outputs": [
        {
          "internalType": "address payable",
          "name": "",
          "type": "address"
        }
      ],
      "stateMutability": "view",
      "type": "function"
    },
    {
      "inputs": [],
      "name": "buyerCollateral",
      "outputs": [
        {
          "internalType": "uint256",
          "name": "",
          "type": "uint256"
        }
      ],
      "stateMutability": "view",
      "type": "function"
    },
    {
      "inputs": [],
      "name": "buyerDeposited",
      "outputs": [
        {
          "internalType": "bool",
          "name": "",
          "type": "bool"
        }
      ],
      "stateMutability": "view",
      "type": "function"
    },
    {
      "inputs": [],
      "name": "cancelTrade",
      "outputs": [],
      "stateMutability": "nonpayable",
      "type": "function"
    },
    {
      "inputs": [],
      "name": "confirmFiatReceived",
      "outputs": [],
      "stateMutability": "nonpayable",
      "type": "function"
    },
    {
      "inputs": [],
      "name": "confirmFiatSent",
      "outputs": [],
      "stateMutability": "nonpayable",
      "type": "function"
    },
    {
      "inputs": [],
      "name": "confirmationDeadline",
      "outputs": [
        {
          "internalType": "uint256",
          "name": "",
          "type": "uint256"
        }
      ],
      "stateMutability": "view",
      "type": "function"
    },
    {
      "inputs": [],
      "name": "confirmationDuration",
      "outputs": [
        {
          "internalType": "uint256",
          "name": "",
          "type": "uint256"
        }
      ],
      "stateMutability": "view",
      "type": "function"
    },
    {
      "inputs": [],
      "name": "cryptoAmount",
      "outputs": [
        {
          "internalType": "uint256",
          "name": "",
          "type": "uint256"
        }
      ],
      "stateMutability": "view",
      "type": "function"
    },
    {
      "inputs": [],
      "name": "depositByBuyer",
      "outputs": [],
      "stateMutability": "payable",
      "type": "function"
    },
    {
      "inputs": [],
      "name": "depositBySeller",
      "outputs": [],
      "stateMutability": "payable",
      "type": "function"
    },
    {
      "inputs": [],
      "name": "depositDeadline",
      "outputs": [
        {
          "internalType": "uint256",
          "name": "",
          "type": "uint256"
        }
      ],
      "stateMutability": "view",
      "type": "function"
    },
    {
      "inputs": [],
      "name": "disputeRaisedAt",
      "outputs": [
        {
          "internalType": "uint256",
          "name": "",
          "type": "uint256"
        }
      ],
      "stateMutability": "view",
      "type": "function"
    },
    {
      "inputs": [],
      "name": "disputeTimeout",
      "outputs": [
        {
          "internalType": "uint256",
          "name": "",
          "type": "uint256"
        }
      ],
      "stateMutability": "view",
      "type": "function"
    },
    {
      "inputs": [],
      "name": "escalateDispute",
      "outputs": [],
      "stateMutability": "nonpayable",
      "type": "function"
    },
    {
      "inputs": [],
      "name": "feeRate",
      "outputs": [
        {
          "internalType": "uint256",
          "name": "",
          "type": "uint256"
        }
      ],
      "stateMutability": "view",
      "type": "function"
    },
    {
      "inputs": [],
      "name": "fiatReceivedConfirmed",
      "outputs": [
        {
          "internalType": "bool",
          "name": "",
          "type": "bool"
        }
      ],
      "stateMutability": "view",
      "type": "function"
    },
    {
      "inputs": [],
      "name": "fiatSentConfirmed",
      "outputs": [
        {
          "internalType": "bool",
          "name": "",
          "type": "bool"
        }
      ],
      "stateMutability": "view",
      "type": "function"
    },
    {
      "inputs": [],
      "name": "getTradeBasicDetails",
      "outputs": [
        {
          "internalType": "uint256",
          "name": "_cryptoAmount",
          "type": "uint256"
        }
      ],
      "stateMutability": "view",
      "type": "function"
    },
    {
      "inputs": [
        {
          "internalType": "address payable",
          "name": "_buyer",
          "type": "address"
        },
        {
          "internalType": "address payable",
          "name": "_seller",
          "type": "address"
        },
        {
          "internalType": "address",
          "name": "_arbitrator",
          "type": "address"
        },
        {
          "internalType": "uint256",
          "name": "_cryptoAmount",
          "type": "uint256"
        },
        {
          "internalType": "uint256",
          "name": "_buyerCollateral",
          "type": "uint256"
        },
        {
          "internalType": "uint256",
          "name": "_sellerCollateral",
          "type": "uint256"
        },
        {
          "internalType": "uint256",
          "name": "depositDuration",
          "type": "uint256"
        },
        {
          "internalType": "uint256",
          "name": "_confirmationDuration",
          "type": "uint256"
        },
        {
          "internalType": "uint256",
          "name": "_disputeTimeout",
          "type": "uint256"
        },
        {
          "internalType": "uint256",
          "name": "_feeRate",
          "type": "uint256"
        },
        {
          "internalType": "address",
          "name": "_platformWallet",
          "type": "address"
        },
        {
          "internalType": "uint256",
          "name": "_profitMargin",
          "type": "uint256"
        }
      ],
      "name": "initTrade",
      "outputs": [],
      "stateMutability": "nonpayable",
      "type": "function"
    },
    {
      "inputs": [],
      "name": "owner",
      "outputs": [
        {
          "internalType": "address",
          "name": "",
          "type": "address"
        }
      ],
      "stateMutability": "view",
      "type": "function"
    },
    {
      "inputs": [],
      "name": "platformWallet",
      "outputs": [
        {
          "internalType": "address",
          "name": "",
          "type": "address"
        }
      ],
      "stateMutability": "view",
      "type": "function"
    },
    {
      "inputs": [],
      "name": "profitMargin",
      "outputs": [
        {
          "internalType": "uint256",
          "name": "",
          "type": "uint256"
        }
      ],
      "stateMutability": "view",
      "type": "function"
    },
    {
      "inputs": [],
      "name": "raiseDispute",
      "outputs": [],
      "stateMutability": "nonpayable",
      "type": "function"
    },
    {
      "inputs": [],
      "name": "releaseTrade",
      "outputs": [],
      "stateMutability": "nonpayable",
      "type": "function"
    },
    {
      "inputs": [],
      "name": "renounceOwnership",
      "outputs": [],
      "stateMutability": "nonpayable",
      "type": "function"
    },
    {
      "inputs": [
        {
          "internalType": "bool",
          "name": "decision",
          "type": "bool"
        },
        {
          "internalType": "uint8",
          "name": "penalizedParty",
          "type": "uint8"
        }
      ],
      "name": "resolveDispute",
      "outputs": [],
      "stateMutability": "nonpayable",
      "type": "function"
    },
    {
      "inputs": [],
      "name": "seller",
      "outputs": [
        {
          "internalType": "address payable",
          "name": "",
          "type": "address"
        }
      ],
      "stateMutability": "view",
      "type": "function"
    },
    {
      "inputs": [],
      "name": "sellerCollateral",
      "outputs": [
        {
          "internalType": "uint256",
          "name": "",
          "type": "uint256"
        }
      ],
      "stateMutability": "view",
      "type": "function"
    },
    {
      "inputs": [],
      "name": "sellerDeposited",
      "outputs": [
        {
          "internalType": "bool",
          "name": "",
          "type": "bool"
        }
      ],
      "stateMutability": "view",
      "type": "function"
    },
    {
      "inputs": [
        {
          "internalType": "uint256",
          "name": "_feeRate",
          "type": "uint256"
        },
        {
          "internalType": "address",
          "name": "_platformWallet",
          "type": "address"
        }
      ],
      "name": "setFeeAndWallet",
      "outputs": [],
      "stateMutability": "nonpayable",
      "type": "function"
    },
    {
      "inputs": [],
      "name": "tradeState",
      "outputs": [
        {
          "internalType": "enum Escrow.State",
          "name": "",
          "type": "uint8"
        }
      ],
      "stateMutability": "view",
      "type": "function"
    },
    {
      "inputs": [
        {
          "internalType": "address",
          "name": "newOwner",
          "type": "address"
        }
      ],
      "name": "transferOwnership",
      "outputs": [],
      "stateMutability": "nonpayable",
      "type": "function"
    },
    {
      "inputs": [
        {
          "internalType": "address",
          "name": "_newArbitrator",
          "type": "address"
        }
      ],
      "name": "updateArbitrator",
      "outputs": [],
      "stateMutability": "nonpayable",
      "type": "function"
    }
  ],
  "bytecode": "0x608080604052346084573315606e5760008054336001600160a01b0319821681178355916001600160a01b03909116907f8be0079c531659141344cd1fd0a4f28419497f9722a3daafe3b4186f6b6457e09080a365ff000000000019600e5416600e55611cf8908161008a8239f35b631e4fbdf760e01b600052600060045260246000fd5b600080fdfe6080604052600436101561001257600080fd5b60003560e01c8063055c34e81461175a57806308551a53146117315780631746a083146117135780631cfd77be1461155757806323f64d37146115395780632a14fe1c146113315780632b76c235146112f5578063365767ba14611313578063493acc39146112f55780634b0e7297146112815780635305369b1461125b57806361603d891461123d5780636cc6cde1146112145780636daa2d441461111e578063715018a6146110c55780637150d8ae1461109c5780637c14895214611079578063864e18271461104c57806389388d8d14610e9b5780638da5cb5b14610e725780638f8b252e14610e4c578063978bbdb914610e2e5780639c76230c14610c34578063ad792f5e14610c16578063b5655bcf14610bf0578063b7366d771461084e578063b95d8dd414610830578063bffc243d146107bf578063c04c22a4146107a1578063c57b3fb314610783578063dea9851c14610456578063e50bed5714610368578063f2fde38b146102df578063fa2af9da146102b65763fdfff32f1461019d57600080fd5b346102b15760003660031901126102b157600e546101c160ff8260201c161561191a565b600160201b60ff60201b198216179060ff8260281c16600681101561029b5760026101ec9114611bbf565b6002546001600160a01b0316338190036102485761021560ff63010000009460181c1615611c0b565b7f6b2c9fa80d446f2b6e443df8d2a860e6008e348cc6979dea036085bdf869db32600080a264ffff000000191617600e55005b60405162461bcd60e51b815260206004820152602560248201527f4f6e6c792073656c6c65722063616e20636f6e6669726d206669617420726563604482015264195a5d995960da1b6064820152608490fd5b634e487b7160e01b600052602160045260246000fd5b600080fd5b346102b15760003660031901126102b1576004546040516001600160a01b039091168152602090f35b346102b15760203660031901126102b1576102f86118ee565b610300611c99565b6001600160a01b0316801561035257600080546001600160a01b03198116831782556001600160a01b0316907f8be0079c531659141344cd1fd0a4f28419497f9722a3daafe3b4186f6b6457e09080a3005b631e4fbdf760e01b600052600060045260246000fd5b346102b15760003660031901126102b157600e5461038c60ff8260201c161561191a565b600160201b60ff60201b198216179060ff8260281c16600681101561029b5760026103b79114611bbf565b6001546001600160a01b031633819003610412576103df60ff620100009460101c1615611c0b565b7fcd7e426ba936d76f601dfa9030a193626ac37a0a98adfe1d1b23168c53df9ebb600080a264ff00ff0000191617600e55005b606460405162461bcd60e51b815260206004820152602060248201527f4f6e6c792062757965722063616e20636f6e6669726d20666961742073656e746044820152fd5b346102b15760003660031901126102b157600160201b600e5461047f60ff8260201c161561191a565b60ff60201b19161780600e5560ff8160281c16600681101561029b5760020361073e576002546001600160a01b031633036106f95760ff8160101c1690816106eb575b50156106a6576104e26504000000000060ff60281b19600e541617600e55565b6007546105016127106104f7600554846119ee565b0460065490611a17565b906105248261051f6105166008549485611a17565b60095490611a17565b611a17565b471061066157600080808061054e9460018060a01b03600154165af1610548611a7a565b50611ae2565b600080808060018060a01b0360015416600754905af161056c611a7a565b501561060b5760008080806105969460018060a01b03600454165af1610590611a7a565b50611b73565b6105bd600080808060018060a01b0360025416600954905af16105b7611a7a565b50611b27565b600e547facee75a3d26f10af63bea7a4089c22d34b1d953bdc674c1f6acd937250ac2bea60606007546008546009549060405192835260208301526040820152a164ff0000ffff1916600e55005b60405162461bcd60e51b815260206004820152602860248201527f5472616e73666572206f6620747261646520616d6f756e7420746f20627579656044820152671c8819985a5b195960c21b6064820152608490fd5b60405162461bcd60e51b815260206004820152601d60248201527f496e73756666696369656e7420636f6e74726163742062616c616e63650000006044820152606490fd5b60405162461bcd60e51b815260206004820152601d60248201527f4669617420636f6e6669726d6174696f6e7320696e636f6d706c6574650000006044820152606490fd5b60ff915060181c16816104c2565b60405162461bcd60e51b815260206004820152601d60248201527f4f6e6c792073656c6c65722063616e2072656c656173652074726164650000006044820152606490fd5b60405162461bcd60e51b815260206004820152601f60248201527f5472616465206e6f7420696e20636f6e6669726d6174696f6e207068617365006044820152606490fd5b346102b15760003660031901126102b1576020600b54604051908152f35b346102b15760003660031901126102b1576020600d54604051908152f35b346102b15760203660031901126102b1577f0a4eb09e14cf0b6177b79042a04365517d9b189a50ec69eaabc40a6440103c9060406107fb6118ee565b610803611c99565b600380546001600160a01b039283166001600160a01b0319821681179092558351921682526020820152a1005b346102b15760003660031901126102b1576020600f54604051908152f35b346102b15760403660031901126102b1576004358015158082036102b1576024359160ff83168093036102b15760ff600160201b600e54610894838260201c161561191a565b60ff60201b19161780600e5560281c16600681101561029b57600303610bb3576003546001600160a01b03163303610b625760028311610b24576007546108e36127106104f7600554846119ee565b9115610a47575060018303610a2557600080808060075461090960095460085490611a17565b505b61092b8280808060018060a01b0360015416600854905af1610548611a7a565b6001546001600160a01b03165af1610941611a7a565b50156109e0577fb639d1faf6c5713b976211aefc0ca25f8760e271d97eb7b3a1283f94db9dd5f691610989600080808060409660018060a01b03600454165af1610590611a7a565b6109aa600080808060018060a01b0360025416600954905af16105b7611a7a565b6109c46504000000000060ff60281b19600e541617600e55565b600e549382519182526020820152a164ff0000ffff1916600e55005b60405162461bcd60e51b815260206004820152601860248201527f5472616e7366657220746f206275796572206661696c656400000000000000006044820152606490fd5b60028303610a3a57600080808060075461090b565b600080808060075461090b565b7fb639d1faf6c5713b976211aefc0ca25f8760e271d97eb7b3a1283f94db9dd5f692604092509060018503610aee57610a91610a8860009260095490611a17565b60085490611a17565b905b80610aca575b5080610aa6575b506109aa565b6000808080610ac49460018060a01b03600254165af16105b7611a7a565b84610aa0565b6000808080610ae89460018060a01b03600154165af1610548611a7a565b85610a99565b60028503610b0e57610a88610b069160095490611a17565b600090610a93565b610b1e6008549160095490611a17565b90610a93565b60405162461bcd60e51b815260206004820152601660248201527524b73b30b634b2103832b730b63a3c9037b83a34b7b760511b6044820152606490fd5b60405162461bcd60e51b815260206004820152602360248201527f4f6e6c792061726269747261746f722063616e207265736f6c7665206469737060448201526275746560e81b6064820152608490fd5b60405162461bcd60e51b81526020600482015260156024820152744e6f206469737075746520746f207265736f6c766560581b6044820152606490fd5b346102b15760003660031901126102b157602060ff600e5460101c166040519015158152f35b346102b15760003660031901126102b1576020600954604051908152f35b346102b15760003660031901126102b15760ff600160201b600e54610c5e838260201c161561191a565b60ff60201b19161780600e5560281c1660068110158061029b576001821490818015610e21575b15610de85761029b5715610dcf5750600a54421115610d8a575b610cb96505000000000060ff60281b19600e541617600e55565b60ff600e5416610d5a575b60ff600e5460081c16610d07575b7fc695cd059998c274ae0c0c8a411f3d839891efcd2362986a1890187baab0c4af600080a1600e805464ff0000000019169055005b610d4a6000808080610d3460075461051f610d2a6127106104f7600554856119ee565b9160095490611a17565b6002546001600160a01b03165af16105b7611a7a565b61ff0019600e5416600e55610cd2565b610d7b600080808060018060a01b0360015416600854905af1610548611a7a565b60ff19600e5416600e55610cc4565b60405162461bcd60e51b815260206004820152601c60248201527f4465706f73697420646561646c696e65206e6f742072656163686564000000006044820152606490fd5b600203610c9f57610de3600b544211611a24565b610c9f565b60405162461bcd60e51b815260206004820152601160248201527043616e6e6f742063616e63656c206e6f7760781b6044820152606490fd5b5050600060028314610c85565b346102b15760003660031901126102b1576020600554604051908152f35b346102b15760003660031901126102b157602060ff600e5460081c166040519015158152f35b346102b15760003660031901126102b1576000546040516001600160a01b039091168152602090f35b346102b15760003660031901126102b157610eb4611c99565b60ff600160201b600e54610ecd838260201c161561191a565b60ff60201b19161780600e5560281c16600681101561029b5760030361101357610efc600f54600d5490611a17565b421115610fce57610f1d6505000000000060ff60281b19600e541617600e55565b60ff600e5416610f9e575b60ff600e5460081c16610f6b575b7f123403112145db329936d47f96d9a24eb92c0b67ddb5068fda50f40317b9a593600080a1600e805464ff0000000019169055005b610f8e6000808080610d3460075461051f610d2a6127106104f7600554856119ee565b61ff0019600e5416600e55610f36565b610fbf600080808060018060a01b0360015416600854905af1610548611a7a565b60ff19600e5416600e55610f28565b60405162461bcd60e51b815260206004820152601b60248201527f446973707574652074696d656f7574206e6f74207265616368656400000000006044820152606490fd5b60405162461bcd60e51b81526020600482015260116024820152704e6f20616374697665206469737075746560781b6044820152606490fd5b346102b15760003660031901126102b15760ff600e5460281c16604051600682101561029b576020918152f35b346102b15760003660031901126102b157602060ff600e54166040519015158152f35b346102b15760003660031901126102b1576001546040516001600160a01b039091168152602090f35b346102b15760003660031901126102b1576110de611c99565b600080546001600160a01b0319811682556001600160a01b03167f8be0079c531659141344cd1fd0a4f28419497f9722a3daafe3b4186f6b6457e08280a3005b346102b15760003660031901126102b15760ff600160201b600e54611148838260201c161561191a565b60ff60201b19161780600e5560281c16600681101561029b576002036111c357611175600b544211611a24565b6503000000000060ff60281b19600e541617600e5542600f557fa9f218df296bdff29869b6b40927376285db89e1726d55dc7a5583eab3f72c42600080a1600e805464ff0000000019169055005b60405162461bcd60e51b8152602060048201526024808201527f44697370757465206e6f7420616c6c6f77656420696e2063757272656e7420736044820152637461746560e01b6064820152608490fd5b346102b15760003660031901126102b1576003546040516001600160a01b039091168152602090f35b346102b15760003660031901126102b1576020600a54604051908152f35b346102b15760003660031901126102b157602060ff600e5460181c166040519015158152f35b346102b15760403660031901126102b1577f7cfad8b150be9751a5386cc4e0f549618032ff63d14fab4f77cd4b0aaaedc24260406004356112c0611904565b6112c8611c99565b8160055560018060a01b0316806001600160601b0360a01b600454161760045582519182526020820152a1005b346102b15760003660031901126102b1576020600754604051908152f35b346102b15760003660031901126102b1576020600c54604051908152f35b346102b1576101803660031901126102b15761134b6118ee565b611353611904565b6044356001600160a01b0381169291908390036102b15760e435610144356001600160a01b03811690610124359061010435908390036102b157610164359361139a611c99565b600e5460ff8160281c166006811015908161029b576004811491821561152b575b821561151c575b5050156114d7577f7baeb922f2f62f44c5e3e9da80c34d11def42ea2103dd393b1100a2880a61a61986101209860018060a01b031697886001600160601b0360a01b600154161760015560018060a01b031691826001600160601b0360a01b6002541617600255816001600160601b0360a01b600354161760035560643560075560843560085560a43560095561145b60c43542611a17565b600a5583600c5584600d5585600555866001600160601b0360a01b60045416176004558760065563ffffffff1916600e556501000000000060ff60281b19600e541617600e55600a5491604051988952602089015260408801526060870152608086015260a085015260c084015260e0830152610100820152a1005b60405162461bcd60e51b815260206004820152601a60248201527f4578697374696e6720747261646520696e2070726f67726573730000000000006044820152606490fd5b90915061029b57158a806113c2565b5060058114915060006113bb565b346102b15760003660031901126102b1576020600854604051908152f35b60003660031901126102b157600e5461157660ff8260201c161561191a565b600160201b60ff60201b198216179060ff8260281c16600681101561029b5760016115a1911461195f565b6115af600a544211156119a2565b6002546001600160a01b031691338390036116ce5760081c60ff16611689576115e960075461051f610d2a6127106104f7600554856119ee565b3403611644576401000001009064ff0000ff00191617600e557f2da466a7b24304f47e87fa2e1e5a81b9831ce54fec19055ce277ca2f39ba42c46020604051348152a2611634611c50565b600e805464ff0000000019169055005b60405162461bcd60e51b815260206004820152601f60248201527f496e636f72726563742073656c6c6572206465706f73697420616d6f756e74006044820152606490fd5b60405162461bcd60e51b815260206004820152601860248201527f53656c6c657220616c7265616479206465706f736974656400000000000000006044820152606490fd5b60405162461bcd60e51b815260206004820152601760248201527f4f6e6c792073656c6c65722063616e206465706f7369740000000000000000006044820152606490fd5b346102b15760003660031901126102b1576020600654604051908152f35b346102b15760003660031901126102b1576002546040516001600160a01b039091168152602090f35b60003660031901126102b157600e5461177960ff8260201c161561191a565b64ff00000000198116600160201b1760281c60ff16600681101561029b5760016117a3911461195f565b6117b1600a544211156119a2565b6001546001600160a01b031690338290036118b05760ff811661186b57600854340361181c576401000000019064ff000000ff191617600e557f2da466a7b24304f47e87fa2e1e5a81b9831ce54fec19055ce277ca2f39ba42c46020604051348152a2611634611c50565b60405162461bcd60e51b815260206004820152602160248201527f496e636f727265637420627579657220636f6c6c61746572616c20616d6f756e6044820152601d60fa1b6064820152608490fd5b60405162461bcd60e51b815260206004820152601760248201527f427579657220616c7265616479206465706f73697465640000000000000000006044820152606490fd5b60405162461bcd60e51b815260206004820152601660248201527513db9b1e48189d5e595c8818d85b8819195c1bdcda5d60521b6044820152606490fd5b600435906001600160a01b03821682036102b157565b602435906001600160a01b03821682036102b157565b1561192157565b60405162461bcd60e51b81526020600482015260166024820152751499595b9d1c985b98de481b9bdd08185b1b1bddd95960521b6044820152606490fd5b1561196657565b60405162461bcd60e51b815260206004820152601460248201527311195c1bdcda5d1cc81b9bdd08185b1b1bddd95960621b6044820152606490fd5b156119a957565b60405162461bcd60e51b815260206004820152601760248201527f4465706f73697420646561646c696e65207061737365640000000000000000006044820152606490fd5b81810292918115918404141715611a0157565b634e487b7160e01b600052601160045260246000fd5b91908201809211611a0157565b15611a2b57565b60405162461bcd60e51b815260206004820152602160248201527f436f6e6669726d6174696f6e20646561646c696e65206e6f74207265616368656044820152601960fa1b6064820152608490fd5b3d15611add573d9067ffffffffffffffff8211611ac75760405191601f8101601f19908116603f0116830167ffffffffffffffff811184821017611ac75760405282523d6000602084013e565b634e487b7160e01b600052604160045260246000fd5b606090565b15611ae957565b60405162461bcd60e51b81526020600482015260166024820152751499599d5b99081d1bc8189d5e595c8819985a5b195960521b6044820152606490fd5b15611b2e57565b60405162461bcd60e51b815260206004820152601760248201527f526566756e6420746f2073656c6c6572206661696c65640000000000000000006044820152606490fd5b15611b7a57565b60405162461bcd60e51b815260206004820152601b60248201527f5472616e7366657220746f20706c6174666f726d206661696c656400000000006044820152606490fd5b15611bc657565b60405162461bcd60e51b815260206004820152601960248201527f4e6f7420696e20636f6e6669726d6174696f6e207068617365000000000000006044820152606490fd5b15611c1257565b60405162461bcd60e51b8152602060048201526016602482015275119a585d08185b1c9958591e4818dbdb999a5c9b595960521b6044820152606490fd5b600e5460ff81169081611c8b575b50611c6557565b6502000000000060ff60281b19600e541617600e55611c86600c5442611a17565b600b55565b60ff915060081c1638611c5e565b6000546001600160a01b03163303611cad57565b63118cdaa760e01b6000523360045260246000fdfea26469706673582212204af61f5c276df3bc8d07d5009b7452777f52accb2303980b9f40d3a2f66d53a964736f6c634300081c0033",
  "linkReferences": {},
  "deployedLinkReferences": {}
}