{
  "_format": "hh-sol-artifact-1",
  "contractName": "MultiTradeEscrow",
  "sourceName": "contracts/MultiTradeEscrow.sol",
  "abi": [
    {
      "inputs": [
        {
          "internalType": "address",
          "name": "_platformWallet",
          "type": "address"
        },
        {
          "internalType": "uint256",
          "name": "_feeRate",
          "type": "uint256"
        },
        {
          "internalType": "uint256",
          "name": "_profitMargin",
          "type": "uint256"
        }
      ],
      "stateMutability": "nonpayable",
      "type": "constructor"
    },
    {
      "anonymous": false,
      "inputs": [
        {
          "indexed": true,
          "internalType": "uint256",
          "name": "tradeId",
          "type": "uint256"
        },
        {
          "indexed": false,
          "internalType": "address",
          "name": "winner",
          "type": "address"
        },
        {
          "indexed": false,
          "internalType": "uint256",
          "name": "buyerAmount",
          "type": "uint256"
        },
        {
          "indexed": false,
          "internalType": "uint256",
          "name": "sellerAmount",
          "type": "uint256"
        }
      ],
      "name": "ArbitrationResolved",
      "type": "event"
    },
    {
      "anonymous": false,
      "inputs": [
        {
          "indexed": true,
          "internalType": "uint256",
          "name": "tradeId",
          "type": "uint256"
        }
      ],
      "name": "TradeCancelled",
      "type": "event"
    },
    {
      "anonymous": false,
      "inputs": [
        {
          "indexed": true,
          "internalType": "uint256",
          "name": "tradeId",
          "type": "uint256"
        }
      ],
      "name": "TradeCompleted",
      "type": "event"
    },
    {
      "anonymous": false,
      "inputs": [
        {
          "indexed": true,
          "internalType": "uint256",
          "name": "tradeId",
          "type": "uint256"
        }
      ],
      "name": "TradeConfirmed",
      "type": "event"
    },
    {
      "anonymous": false,
      "inputs": [
        {
          "indexed": true,
          "internalType": "uint256",
          "name": "tradeId",
          "type": "uint256"
        },
        {
          "indexed": true,
          "internalType": "address",
          "name": "buyer",
          "type": "address"
        },
        {
          "indexed": true,
          "internalType": "address",
          "name": "seller",
          "type": "address"
        },
        {
          "indexed": false,
          "internalType": "uint256",
          "name": "amount",
          "type": "uint256"
        }
      ],
      "name": "TradeCreated",
      "type": "event"
    },
    {
      "anonymous": false,
      "inputs": [
        {
          "indexed": true,
          "internalType": "uint256",
          "name": "tradeId",
          "type": "uint256"
        },
        {
          "indexed": false,
          "internalType": "address",
          "name": "initiator",
          "type": "address"
        }
      ],
      "name": "TradeDisputed",
      "type": "event"
    },
    {
      "anonymous": false,
      "inputs": [
        {
          "indexed": true,
          "internalType": "uint256",
          "name": "tradeId",
          "type": "uint256"
        },
        {
          "indexed": false,
          "internalType": "uint256",
          "name": "amount",
          "type": "uint256"
        },
        {
          "indexed": false,
          "internalType": "uint256",
          "name": "sellerCollateral",
          "type": "uint256"
        }
      ],
      "name": "TradeFunded",
      "type": "event"
    },
    {
      "inputs": [],
      "name": "autoCancelTrades",
      "outputs": [],
      "stateMutability": "nonpayable",
      "type": "function"
    },
    {
      "inputs": [
        {
          "internalType": "uint256",
          "name": "_tradeId",
          "type": "uint256"
        }
      ],
      "name": "cancelTrade",
      "outputs": [],
      "stateMutability": "nonpayable",
      "type": "function"
    },
    {
      "inputs": [
        {
          "internalType": "uint256",
          "name": "_tradeId",
          "type": "uint256"
        }
      ],
      "name": "confirmTrade",
      "outputs": [],
      "stateMutability": "payable",
      "type": "function"
    },
    {
      "inputs": [
        {
          "internalType": "address",
          "name": "_buyer",
          "type": "address"
        },
        {
          "internalType": "address",
          "name": "_seller",
          "type": "address"
        },
        {
          "internalType": "address",
          "name": "_arbitrator",
          "type": "address"
        },
        {
          "internalType": "uint256",
          "name": "_cryptoAmount",
          "type": "uint256"
        },
        {
          "internalType": "uint256",
          "name": "_buyerCollateral",
          "type": "uint256"
        },
        {
          "internalType": "uint256",
          "name": "_sellerCollateral",
          "type": "uint256"
        },
        {
          "internalType": "uint256",
          "name": "_tradeDuration",
          "type": "uint256"
        },
        {
          "internalType": "uint256",
          "name": "_feeRate",
          "type": "uint256"
        },
        {
          "internalType": "uint256",
          "name": "_profitMargin",
          "type": "uint256"
        }
      ],
      "name": "createTrade",
      "outputs": [
        {
          "internalType": "uint256",
          "name": "",
          "type": "uint256"
        }
      ],
      "stateMutability": "nonpayable",
      "type": "function"
    },
    {
      "inputs": [],
      "name": "defaultFeeRate",
      "outputs": [
        {
          "internalType": "uint256",
          "name": "",
          "type": "uint256"
        }
      ],
      "stateMutability": "view",
      "type": "function"
    },
    {
      "inputs": [],
      "name": "defaultProfitMargin",
      "outputs": [
        {
          "internalType": "uint256",
          "name": "",
          "type": "uint256"
        }
      ],
      "stateMutability": "view",
      "type": "function"
    },
    {
      "inputs": [
        {
          "internalType": "uint256",
          "name": "_tradeId",
          "type": "uint256"
        }
      ],
      "name": "disputeTrade",
      "outputs": [],
      "stateMutability": "nonpayable",
      "type": "function"
    },
    {
      "inputs": [
        {
          "internalType": "uint256",
          "name": "_tradeId",
          "type": "uint256"
        }
      ],
      "name": "forceCancelTrade",
      "outputs": [],
      "stateMutability": "nonpayable",
      "type": "function"
    },
    {
      "inputs": [
        {
          "internalType": "uint256",
          "name": "_tradeId",
          "type": "uint256"
        }
      ],
      "name": "fundTrade",
      "outputs": [],
      "stateMutability": "payable",
      "type": "function"
    },
    {
      "inputs": [],
      "name": "getContractBalance",
      "outputs": [
        {
          "internalType": "uint256",
          "name": "",
          "type": "uint256"
        }
      ],
      "stateMutability": "view",
      "type": "function"
    },
    {
      "inputs": [
        {
          "internalType": "uint256",
          "name": "_tradeId",
          "type": "uint256"
        }
      ],
      "name": "getTrade",
      "outputs": [
        {
          "internalType": "address",
          "name": "buyer",
          "type": "address"
        },
        {
          "internalType": "address",
          "name": "seller",
          "type": "address"
        },
        {
          "internalType": "address",
          "name": "arbitrator",
          "type": "address"
        },
        {
          "internalType": "uint256",
          "name": "cryptoAmount",
          "type": "uint256"
        },
        {
          "internalType": "uint256",
          "name": "buyerCollateral",
          "type": "uint256"
        },
        {
          "internalType": "uint256",
          "name": "sellerCollateral",
          "type": "uint256"
        },
        {
          "internalType": "uint256",
          "name": "feeRate",
          "type": "uint256"
        },
        {
          "internalType": "uint256",
          "name": "profitMargin",
          "type": "uint256"
        },
        {
          "internalType": "uint256",
          "name": "tradeDeadline",
          "type": "uint256"
        },
        {
          "internalType": "enum MultiTradeEscrow.TradeState",
          "name": "state",
          "type": "uint8"
        }
      ],
      "stateMutability": "view",
      "type": "function"
    },
    {
      "inputs": [],
      "name": "owner",
      "outputs": [
        {
          "internalType": "address",
          "name": "",
          "type": "address"
        }
      ],
      "stateMutability": "view",
      "type": "function"
    },
    {
      "inputs": [],
      "name": "platformWallet",
      "outputs": [
        {
          "internalType": "address",
          "name": "",
          "type": "address"
        }
      ],
      "stateMutability": "view",
      "type": "function"
    },
    {
      "inputs": [
        {
          "internalType": "uint256",
          "name": "_tradeId",
          "type": "uint256"
        },
        {
          "internalType": "uint256",
          "name": "buyerPercentage",
          "type": "uint256"
        }
      ],
      "name": "resolveDispute",
      "outputs": [],
      "stateMutability": "nonpayable",
      "type": "function"
    },
    {
      "inputs": [],
      "name": "tradeCount",
      "outputs": [
        {
          "internalType": "uint256",
          "name": "",
          "type": "uint256"
        }
      ],
      "stateMutability": "view",
      "type": "function"
    },
    {
      "inputs": [
        {
          "internalType": "uint256",
          "name": "",
          "type": "uint256"
        }
      ],
      "name": "trades",
      "outputs": [
        {
          "internalType": "uint256",
          "name": "id",
          "type": "uint256"
        },
        {
          "internalType": "address",
          "name": "buyer",
          "type": "address"
        },
        {
          "internalType": "address",
          "name": "seller",
          "type": "address"
        },
        {
          "internalType": "address",
          "name": "arbitrator",
          "type": "address"
        },
        {
          "internalType": "uint256",
          "name": "cryptoAmount",
          "type": "uint256"
        },
        {
          "internalType": "uint256",
          "name": "buyerCollateral",
          "type": "uint256"
        },
        {
          "internalType": "uint256",
          "name": "sellerCollateral",
          "type": "uint256"
        },
        {
          "internalType": "uint256",
          "name": "feeRate",
          "type": "uint256"
        },
        {
          "internalType": "uint256",
          "name": "profitMargin",
          "type": "uint256"
        },
        {
          "internalType": "uint256",
          "name": "tradeDeadline",
          "type": "uint256"
        },
        {
          "internalType": "enum MultiTradeEscrow.TradeState",
          "name": "state",
          "type": "uint8"
        }
      ],
      "stateMutability": "view",
      "type": "function"
    },
    {
      "inputs": [
        {
          "internalType": "uint256",
          "name": "_newFeeRate",
          "type": "uint256"
        }
      ],
      "name": "updateDefaultFeeRate",
      "outputs": [],
      "stateMutability": "nonpayable",
      "type": "function"
    },
    {
      "inputs": [
        {
          "internalType": "uint256",
          "name": "_newProfitMargin",
          "type": "uint256"
        }
      ],
      "name": "updateDefaultProfitMargin",
      "outputs": [],
      "stateMutability": "nonpayable",
      "type": "function"
    },
    {
      "inputs": [
        {
          "internalType": "address",
          "name": "_newPlatformWallet",
          "type": "address"
        }
      ],
      "name": "updatePlatformWallet",
      "outputs": [],
      "stateMutability": "nonpayable",
      "type": "function"
    }
  ],
  "bytecode": "0x60803461017657601f61142038819003918201601f19168301916001600160401b0383118484101761017b578084926060946040528339810103126101765780516001600160a01b03811691908290036101765760406020820151910151918015610131576127108210156100f8576127108310156100b35760018060a01b031960005416176000556002556003553360018060a01b03196001541617600155600060045560405161128e90816101928239f35b60405162461bcd60e51b815260206004820152601660248201527f50726f666974206d617267696e20746f6f2068696768000000000000000000006044820152606490fd5b60405162461bcd60e51b815260206004820152601160248201527008ccaca40e4c2e8ca40e8dede40d0d2ced607b1b6044820152606490fd5b60405162461bcd60e51b815260206004820152601760248201527f496e76616c696420706c6174666f726d2077616c6c65740000000000000000006044820152606490fd5b600080fd5b634e487b7160e01b600052604160045260246000fdfe6080604052600436101561001257600080fd5b60003560e01c80620fe21d1461100d57806307d3345514610fef57806309ec6cc714610ef85780631e6c598e14610e3c578063239c903014610e1e5780632db25e0514610d5b578063347291bd14610c575780635b427fb314610c1c5780636f9fb98a14610c005780637fbe518a14610a2c5780638ba9f708146109845780638c2e9b38146106745780638da5cb5b1461064b5780639ec0507f1461044c578063ada4ef30146103b2578063bd55022a14610394578063bdc84ac314610155578063f838e4b51461011a5763fa2af9da146100ec57600080fd5b34610115576000366003190112610115576000546040516001600160a01b039091168152602090f35b600080fd5b346101155760203660031901126101155760043561014360018060a01b03600154163314611105565b61015061271082106111f8565b600255005b346101155760403660031901126101155760043560243561018160018060a01b03600154163314611105565b81600052600560205260ff600a6040600020015416600681101561037e5760036101ab911461115b565b6101b860045483106110c2565b6064811161034457816000526005602052604060002090600482015461020b6102046127106101eb600787015485611238565b046127106101fd600888015486611238565b04906111a6565b809261124b565b90600080808061024661023a61022e60646102268b8b611238565b04809961124b565b9760058b0154906111a6565b9660068a0154906111a6565b81549095906001600160a01b031682821561033b575bf11561031d576001840160008080808660018060a01b03865416828215610332575bf11561031d576002850160008080808660018060a01b03865416828215610329575bf11561031d576032606095600a7f7c4a227b7c31773c6fb876de0aefb5be3c7960e8ddcd29f089f955ed937415169801600460ff198254161790551160001461030b5750546001600160a01b0316915b6040519260018060a01b0316835260208301526040820152a2005b546001600160a01b03169290506102f0565b6040513d6000823e3d90fd5b506108fc6102a0565b506108fc61027e565b506108fc61025c565b60405162461bcd60e51b8152602060048201526012602482015271496e76616c69642070657263656e7461676560701b6044820152606490fd5b634e487b7160e01b600052602160045260246000fd5b34610115576000366003190112610115576020600454604051908152f35b34610115576020366003190112610115576103cb6110ac565b6103e060018060a01b03600154163314611105565b6001600160a01b03168015610407576001600160601b0360a01b6000541617600055600080f35b60405162461bcd60e51b815260206004820152601760248201527f496e76616c696420706c6174666f726d2077616c6c65740000000000000000006044820152606490fd5b60203660031901126101155760043561047060018060a01b03600154163314611105565b80600052600560205260ff600a6040600020015416600681101561037e57600161049a911461115b565b6104a760045482106110c2565b80600052600560205260406000206005810154341061060657600a01805460ff19166002179055807f56ab764471b8940ceae99d18ee42f7ccef7190a57d284469b2321de29c6afa9b600080a28060005260056020526040600020600481015461052d61271061051b600785015484611238565b046127106101fd600886015485611238565b9060008080806105508661054b60068a01549760058b0154906111a6565b61124b565b81549096906001600160a01b03168282156105fd575bf11561031d5760028301546000918291829182916001600160a01b03168282156105f4575bf11561031d5760018201546000918291829182916001600160a01b03168282156105eb575bf11561031d57600a01805460ff191660041790557f60f91a26281f20fb528663f4da55773c83e2ee8a7a5dddb6d1753749e81dc49b600080a2005b506108fc6105b0565b506108fc61058b565b506108fc610566565b60405162461bcd60e51b815260206004820152601960248201527f427579657220636f6c6c61746572616c207265717569726564000000000000006044820152606490fd5b34610115576000366003190112610115576001546040516001600160a01b039091168152602090f35b34610115576101203660031901126101155761068e6110ac565b6024356001600160a01b0381169190829003610115576044356001600160a01b03811692908390036101155761010435916001600160a01b031660643560e4358215158061097b575b80610972575b156109395781156108f45780156108ea57935b80156108e057935b61070561271082106111f8565b61071261271086106111b3565b6004549460001986146108ca576001860160045561073260c435426111a6565b9060405192610160840184811067ffffffffffffffff8211176108b4576040528784526020840198868a526040850190888252606086019081526080860187815260a0870191608435835260c088019360a435855260e089019586526101008901968752610120890197885261014089019d60008f528d6000526005602052604060002099518a55600160a01b6001900390511660018a0190600160a01b60019003166001600160601b0360a01b825416179055600160a01b600190039051166002890190600160a01b60019003166001600160601b0360a01b825416179055600160a01b600190039051166003880190600160a01b60019003166001600160601b0360a01b825416179055516004870155516005860155516006850155516007840155516008830155516009820155600a01945194600686101561037e57602085927f7db1856a9087992b8c7c25a7f1622a9b144ff325953aee6bbb6d38d762c189f692829860ff80198354169116179055604051908152a4604051908152f35b634e487b7160e01b600052604160045260246000fd5b634e487b7160e01b600052601160045260246000fd5b50600354936106f8565b50600254936106f0565b60405162461bcd60e51b815260206004820152601d60248201527f416d6f756e74206d7573742062652067726561746572207468616e20300000006044820152606490fd5b60405162461bcd60e51b8152602060048201526011602482015270496e76616c69642061646472657373657360781b6044820152606490fd5b508515156106dd565b508315156106d7565b34610115576020366003190112610115576004356109ad60018060a01b03600154163314611105565b80600052600560205260ff600a6040600020015416600681101561037e5760016109d7911461115b565b6109e460045482106110c2565b806000526005602052600a604060002001600360ff198254161790557f1716a391765fa98cf509fa991d6f31a43dcb9c128bdceca13baf8ae746c4d09c6020604051338152a2005b346101155760003660031901126101155760005b6004549081811015610bfe5780600052600560205260406000206009810154421180610be3575b610a77575b506001915001610a40565b610a8490549283106110c2565b8160005260056020526040600020916009830154421115610b9e57600a83019260ff84541660068110158061037e5781158015610b91575b15610b4c5761037e57600114610b07575b50600192600560ff198254161790557f4e02dcf02d8510f6c8a6878a3c54ae6e2bfbf552df29221d7a1eed173a6b1ae7600080a282610a6c565b600080808093610b2e60018060a01b036002830154169160066004820154910154906111a6565b90828215610b43575bf11561031d5783610acd565b506108fc610b37565b60405162461bcd60e51b815260206004820152601e60248201527f43616e6e6f742063616e63656c20696e2063757272656e7420737461746500006044820152606490fd5b5050600060018214610abc565b60405162461bcd60e51b815260206004820152601a60248201527f547261646520646561646c696e65206e6f7420726561636865640000000000006044820152606490fd5b5060ff600a82015416600681101561037e5760051415610a67565b005b3461011557600036600319011261011557602047604051908152f35b3461011557602036600319011261011557600435610c4560018060a01b03600154163314611105565b610c5261271082106111b3565b600355005b602036600319011261011557600435610c7b60018060a01b03600154163314611105565b80600052600560205260ff600a6040600020015416600681101561037e57610ca3901561115b565b610cb060045482106110c2565b806000526005602052604060002060048101908154610cd560068301918254906111a6565b3403610d1e577fbe01c2c653297af8400bf87c16beb2690b9e0a2c54d7a9728222669fbace077392600a60409301600160ff1982541617905554905482519182526020820152a2005b60405162461bcd60e51b8152602060048201526015602482015274125b98dbdc9c9958dd08185b5bdd5b9d081cd95b9d605a1b6044820152606490fd5b3461011557602036600319011261011557600435610d7c60045482106110c2565b60005260056020526101406040600020610e1c60018060a01b036001830154169160018060a01b036002820154169060018060a01b036003820154166004820154600583015460068401549060078501549260088601549460ff600a600989015498015416976040519a8b5260208b015260408a01526060890152608088015260a087015260c086015260e085015261010084015261012083019061109f565bf35b34610115576000366003190112610115576020600354604051908152f35b346101155760203660031901126101155760043560005260056020526101606040600020610e1c81549160018060a01b036001820154169060018060a01b0360028201541660018060a01b036003830154166004830154600584015460068501549160078601549360088701549560ff600a60098a015499015416986040519b8c5260208c015260408b015260608a0152608089015260a088015260c087015260e086015261010085015261012084015261014083019061109f565b3461011557602036600319011261011557600435610f226004548210610f1d816110c2565b6110c2565b80600052600560205260406000206009810154421115610b9e57600a81019060ff82541660068110158061037e5781158015610fe2575b15610b4c5761037e57600114610f9d575b50805460ff191660051790557f4e02dcf02d8510f6c8a6878a3c54ae6e2bfbf552df29221d7a1eed173a6b1ae7600080a2005b600080808093610fc460018060a01b036002830154169160066004820154910154906111a6565b90828215610fd9575bf11561031d5782610f6a565b506108fc610fcd565b5050600060018214610f59565b34610115576000366003190112610115576020600254604051908152f35b34610115576020366003190112610115576004356110326004548210610f1d816110c2565b8060005260056020526040600020600a81019060ff82541660068110158061037e5781158015610fe25715610b4c5761037e57600114610f9d5750805460ff191660051790557f4e02dcf02d8510f6c8a6878a3c54ae6e2bfbf552df29221d7a1eed173a6b1ae7600080a2005b90600682101561037e5752565b600435906001600160a01b038216820361011557565b156110c957565b60405162461bcd60e51b8152602060048201526014602482015273151c98591948191bd95cc81b9bdd08195e1a5cdd60621b6044820152606490fd5b1561110c57565b60405162461bcd60e51b815260206004820152602160248201527f4f6e6c79206f776e65722063616e2063616c6c20746869732066756e6374696f6044820152603760f91b6064820152608490fd5b1561116257565b606460405162461bcd60e51b815260206004820152602060248201527f496e76616c696420737461746520666f722074686973206f7065726174696f6e6044820152fd5b919082018092116108ca57565b156111ba57565b60405162461bcd60e51b81526020600482015260166024820152750a0e4deccd2e840dac2e4ced2dc40e8dede40d0d2ced60531b6044820152606490fd5b156111ff57565b60405162461bcd60e51b815260206004820152601160248201527008ccaca40e4c2e8ca40e8dede40d0d2ced607b1b6044820152606490fd5b818102929181159184041417156108ca57565b919082039182116108ca5756fea26469706673582212206693ee4a26deaab5993103b319159cb8d3c38e59c1513d5567d18dd16ee38a3c64736f6c634300081c0033",
  "linkReferences": {},
  "deployedLinkReferences": {}
}