{
  "_format": "hh-sol-artifact-1",
  "contractName": "NativeTokenEscrow",
  "sourceName": "contracts/NativeTokenEscrow.sol",
  "abi": [
    {
      "inputs": [
        {
          "internalType": "address",
          "name": "_platformWallet",
          "type": "address"
        },
        {
          "internalType": "uint256",
          "name": "_feeRate",
          "type": "uint256"
        },
        {
          "internalType": "uint256",
          "name": "_profitMargin",
          "type": "uint256"
        }
      ],
      "stateMutability": "nonpayable",
      "type": "constructor"
    },
    {
      "anonymous": false,
      "inputs": [
        {
          "indexed": true,
          "internalType": "uint256",
          "name": "tradeId",
          "type": "uint256"
        },
        {
          "indexed": false,
          "internalType": "address",
          "name": "winner",
          "type": "address"
        },
        {
          "indexed": false,
          "internalType": "uint256",
          "name": "buyerAmount",
          "type": "uint256"
        },
        {
          "indexed": false,
          "internalType": "uint256",
          "name": "sellerAmount",
          "type": "uint256"
        }
      ],
      "name": "ArbitrationResolved",
      "type": "event"
    },
    {
      "anonymous": false,
      "inputs": [
        {
          "indexed": true,
          "internalType": "uint256",
          "name": "tradeId",
          "type": "uint256"
        },
        {
          "indexed": false,
          "internalType": "uint256",
          "name": "collateral",
          "type": "uint256"
        }
      ],
      "name": "BuyerFunded",
      "type": "event"
    },
    {
      "anonymous": false,
      "inputs": [
        {
          "indexed": true,
          "internalType": "uint256",
          "name": "tradeId",
          "type": "uint256"
        },
        {
          "indexed": false,
          "internalType": "uint256",
          "name": "amount",
          "type": "uint256"
        }
      ],
      "name": "SellerFunded",
      "type": "event"
    },
    {
      "anonymous": false,
      "inputs": [
        {
          "indexed": true,
          "internalType": "uint256",
          "name": "tradeId",
          "type": "uint256"
        }
      ],
      "name": "TradeCancelled",
      "type": "event"
    },
    {
      "anonymous": false,
      "inputs": [
        {
          "indexed": true,
          "internalType": "uint256",
          "name": "tradeId",
          "type": "uint256"
        }
      ],
      "name": "TradeCompleted",
      "type": "event"
    },
    {
      "anonymous": false,
      "inputs": [
        {
          "indexed": true,
          "internalType": "uint256",
          "name": "tradeId",
          "type": "uint256"
        },
        {
          "indexed": true,
          "internalType": "address",
          "name": "buyer",
          "type": "address"
        },
        {
          "indexed": true,
          "internalType": "address",
          "name": "seller",
          "type": "address"
        },
        {
          "indexed": false,
          "internalType": "uint256",
          "name": "amount",
          "type": "uint256"
        }
      ],
      "name": "TradeCreated",
      "type": "event"
    },
    {
      "anonymous": false,
      "inputs": [
        {
          "indexed": true,
          "internalType": "uint256",
          "name": "tradeId",
          "type": "uint256"
        },
        {
          "indexed": false,
          "internalType": "address",
          "name": "initiator",
          "type": "address"
        }
      ],
      "name": "TradeDisputed",
      "type": "event"
    },
    {
      "anonymous": false,
      "inputs": [
        {
          "indexed": true,
          "internalType": "uint256",
          "name": "tradeId",
          "type": "uint256"
        }
      ],
      "name": "TradeExecuted",
      "type": "event"
    },
    {
      "anonymous": false,
      "inputs": [
        {
          "indexed": true,
          "internalType": "uint256",
          "name": "tradeId",
          "type": "uint256"
        }
      ],
      "name": "TradeFullyFunded",
      "type": "event"
    },
    {
      "inputs": [],
      "name": "autoCancelTrades",
      "outputs": [],
      "stateMutability": "nonpayable",
      "type": "function"
    },
    {
      "inputs": [
        {
          "internalType": "uint256",
          "name": "_tradeId",
          "type": "uint256"
        }
      ],
      "name": "buyerFundTrade",
      "outputs": [],
      "stateMutability": "payable",
      "type": "function"
    },
    {
      "inputs": [
        {
          "internalType": "uint256",
          "name": "_tradeId",
          "type": "uint256"
        },
        {
          "internalType": "bool",
          "name": "_forceCancel",
          "type": "bool"
        }
      ],
      "name": "cancelTrade",
      "outputs": [],
      "stateMutability": "nonpayable",
      "type": "function"
    },
    {
      "inputs": [
        {
          "internalType": "address",
          "name": "_buyer",
          "type": "address"
        },
        {
          "internalType": "address",
          "name": "_seller",
          "type": "address"
        },
        {
          "internalType": "address",
          "name": "_arbitrator",
          "type": "address"
        },
        {
          "internalType": "uint256",
          "name": "_cryptoAmount",
          "type": "uint256"
        },
        {
          "internalType": "uint256",
          "name": "_buyerCollateral",
          "type": "uint256"
        },
        {
          "internalType": "uint256",
          "name": "_sellerCollateral",
          "type": "uint256"
        },
        {
          "internalType": "uint256",
          "name": "_sellerTotalDeposit",
          "type": "uint256"
        },
        {
          "internalType": "uint256",
          "name": "_tradeDuration",
          "type": "uint256"
        },
        {
          "internalType": "uint256",
          "name": "_feeRate",
          "type": "uint256"
        },
        {
          "internalType": "uint256",
          "name": "_profitMargin",
          "type": "uint256"
        }
      ],
      "name": "createTrade",
      "outputs": [
        {
          "internalType": "uint256",
          "name": "",
          "type": "uint256"
        }
      ],
      "stateMutability": "nonpayable",
      "type": "function"
    },
    {
      "inputs": [],
      "name": "defaultFeeRate",
      "outputs": [
        {
          "internalType": "uint256",
          "name": "",
          "type": "uint256"
        }
      ],
      "stateMutability": "view",
      "type": "function"
    },
    {
      "inputs": [],
      "name": "defaultProfitMargin",
      "outputs": [
        {
          "internalType": "uint256",
          "name": "",
          "type": "uint256"
        }
      ],
      "stateMutability": "view",
      "type": "function"
    },
    {
      "inputs": [
        {
          "internalType": "uint256",
          "name": "_tradeId",
          "type": "uint256"
        }
      ],
      "name": "disputeTrade",
      "outputs": [],
      "stateMutability": "nonpayable",
      "type": "function"
    },
    {
      "inputs": [
        {
          "internalType": "uint256",
          "name": "_tradeId",
          "type": "uint256"
        }
      ],
      "name": "executeTrade",
      "outputs": [],
      "stateMutability": "nonpayable",
      "type": "function"
    },
    {
      "inputs": [
        {
          "internalType": "uint256",
          "name": "_tradeId",
          "type": "uint256"
        }
      ],
      "name": "forceCancelTrade",
      "outputs": [],
      "stateMutability": "nonpayable",
      "type": "function"
    },
    {
      "inputs": [],
      "name": "getContractBalance",
      "outputs": [
        {
          "internalType": "uint256",
          "name": "",
          "type": "uint256"
        }
      ],
      "stateMutability": "view",
      "type": "function"
    },
    {
      "inputs": [
        {
          "internalType": "uint256",
          "name": "_tradeId",
          "type": "uint256"
        }
      ],
      "name": "getTrade",
      "outputs": [
        {
          "internalType": "uint256",
          "name": "id",
          "type": "uint256"
        },
        {
          "internalType": "address",
          "name": "buyer",
          "type": "address"
        },
        {
          "internalType": "address",
          "name": "seller",
          "type": "address"
        },
        {
          "internalType": "address",
          "name": "arbitrator",
          "type": "address"
        },
        {
          "internalType": "uint256",
          "name": "cryptoAmount",
          "type": "uint256"
        },
        {
          "internalType": "uint256",
          "name": "buyerCollateral",
          "type": "uint256"
        },
        {
          "internalType": "uint256",
          "name": "sellerCollateral",
          "type": "uint256"
        },
        {
          "internalType": "uint256",
          "name": "sellerTotalDeposit",
          "type": "uint256"
        },
        {
          "internalType": "uint256",
          "name": "feeRate",
          "type": "uint256"
        },
        {
          "internalType": "uint256",
          "name": "profitMargin",
          "type": "uint256"
        },
        {
          "internalType": "uint256",
          "name": "tradeDeadline",
          "type": "uint256"
        },
        {
          "internalType": "enum NativeTokenEscrow.TradeState",
          "name": "state",
          "type": "uint8"
        },
        {
          "internalType": "bool",
          "name": "sellerFunded",
          "type": "bool"
        },
        {
          "internalType": "bool",
          "name": "buyerFunded",
          "type": "bool"
        }
      ],
      "stateMutability": "view",
      "type": "function"
    },
    {
      "inputs": [
        {
          "internalType": "uint256",
          "name": "_tradeId",
          "type": "uint256"
        }
      ],
      "name": "getTradeBalance",
      "outputs": [
        {
          "internalType": "uint256",
          "name": "",
          "type": "uint256"
        }
      ],
      "stateMutability": "view",
      "type": "function"
    },
    {
      "inputs": [],
      "name": "owner",
      "outputs": [
        {
          "internalType": "address",
          "name": "",
          "type": "address"
        }
      ],
      "stateMutability": "view",
      "type": "function"
    },
    {
      "inputs": [],
      "name": "platformWallet",
      "outputs": [
        {
          "internalType": "address",
          "name": "",
          "type": "address"
        }
      ],
      "stateMutability": "view",
      "type": "function"
    },
    {
      "inputs": [
        {
          "internalType": "uint256",
          "name": "_tradeId",
          "type": "uint256"
        },
        {
          "internalType": "uint256",
          "name": "buyerPercentage",
          "type": "uint256"
        }
      ],
      "name": "resolveDispute",
      "outputs": [],
      "stateMutability": "nonpayable",
      "type": "function"
    },
    {
      "inputs": [
        {
          "internalType": "uint256",
          "name": "_tradeId",
          "type": "uint256"
        }
      ],
      "name": "sellerFundTrade",
      "outputs": [],
      "stateMutability": "payable",
      "type": "function"
    },
    {
      "inputs": [],
      "name": "tradeCount",
      "outputs": [
        {
          "internalType": "uint256",
          "name": "",
          "type": "uint256"
        }
      ],
      "stateMutability": "view",
      "type": "function"
    },
    {
      "inputs": [
        {
          "internalType": "uint256",
          "name": "",
          "type": "uint256"
        }
      ],
      "name": "trades",
      "outputs": [
        {
          "internalType": "uint256",
          "name": "id",
          "type": "uint256"
        },
        {
          "internalType": "address",
          "name": "buyer",
          "type": "address"
        },
        {
          "internalType": "address",
          "name": "seller",
          "type": "address"
        },
        {
          "internalType": "address",
          "name": "arbitrator",
          "type": "address"
        },
        {
          "internalType": "uint256",
          "name": "cryptoAmount",
          "type": "uint256"
        },
        {
          "internalType": "uint256",
          "name": "buyerCollateral",
          "type": "uint256"
        },
        {
          "internalType": "uint256",
          "name": "sellerCollateral",
          "type": "uint256"
        },
        {
          "internalType": "uint256",
          "name": "sellerTotalDeposit",
          "type": "uint256"
        },
        {
          "internalType": "uint256",
          "name": "feeRate",
          "type": "uint256"
        },
        {
          "internalType": "uint256",
          "name": "profitMargin",
          "type": "uint256"
        },
        {
          "internalType": "uint256",
          "name": "tradeDeadline",
          "type": "uint256"
        },
        {
          "internalType": "enum NativeTokenEscrow.TradeState",
          "name": "state",
          "type": "uint8"
        },
        {
          "internalType": "bool",
          "name": "sellerFunded",
          "type": "bool"
        },
        {
          "internalType": "bool",
          "name": "buyerFunded",
          "type": "bool"
        }
      ],
      "stateMutability": "view",
      "type": "function"
    },
    {
      "inputs": [
        {
          "internalType": "uint256",
          "name": "_newFeeRate",
          "type": "uint256"
        }
      ],
      "name": "updateDefaultFeeRate",
      "outputs": [],
      "stateMutability": "nonpayable",
      "type": "function"
    },
    {
      "inputs": [
        {
          "internalType": "uint256",
          "name": "_newProfitMargin",
          "type": "uint256"
        }
      ],
      "name": "updateDefaultProfitMargin",
      "outputs": [],
      "stateMutability": "nonpayable",
      "type": "function"
    },
    {
      "inputs": [
        {
          "internalType": "address",
          "name": "_newPlatformWallet",
          "type": "address"
        }
      ],
      "name": "updatePlatformWallet",
      "outputs": [],
      "stateMutability": "nonpayable",
      "type": "function"
    }
  ],
  "bytecode": "0x60803461017657601f611aa438819003918201601f19168301916001600160401b0383118484101761017b578084926060946040528339810103126101765780516001600160a01b03811691908290036101765760406020820151910151918015610131576127108210156100f8576127108310156100b35760018060a01b031960005416176000556002556003553360018060a01b03196001541617600155600060045560405161191290816101928239f35b60405162461bcd60e51b815260206004820152601660248201527f50726f666974206d617267696e20746f6f2068696768000000000000000000006044820152606490fd5b60405162461bcd60e51b815260206004820152601160248201527008ccaca40e4c2e8ca40e8dede40d0d2ced607b1b6044820152606490fd5b60405162461bcd60e51b815260206004820152601760248201527f496e76616c696420706c6174666f726d2077616c6c65740000000000000000006044820152606490fd5b600080fd5b634e487b7160e01b600052604160045260246000fdfe60a0604052600436101561001257600080fd5b60003560e01c80620fe21d146115e157806302d2838b1461142d57806307d334551461140f5780631e6c598e1461136a578063239c90301461134c5780632db25e05146112955780634e2e5f2814610f0d5780635b427fb314610ed25780636f9fb98a14610eb65780637eaf11a514610c745780637fbe518a14610a9c578063860bd13e1461085e5780638ba9f708146106df5780638da5cb5b146106b6578063ada4ef301461061c578063bd55022a146105fe578063bdc84ac3146103e1578063e7326c3b146101a9578063f6dc05f91461016b578063f838e4b5146101305763fa2af9da1461010257600080fd5b3461012b57600036600319011261012b576000546040516001600160a01b039091168152602090f35b600080fd5b3461012b57602036600319011261012b5760043561015960018060a01b03600154163314611746565b610166612710821061182a565b600255005b3461012b57602036600319011261012b57600435600052600560205260206101a1604060002060056006820154910154906118af565b604051908152f35b3461012b57604036600319011261012b5760043560243580159081150361012b576101df60018060a01b03600154163314611746565b6101f560045483106101f08161179c565b61179c565b816000526005602052604060002090610390575b600b810190815460ff81166008811015908161035b578015918215610382575b8215610371575b821561034a575b5050156103055760081c60ff166102cb575b60ff825460101c16610289575b50805460ff191660071790557f4e02dcf02d8510f6c8a6878a3c54ae6e2bfbf552df29221d7a1eed173a6b1ae7600080a2005b600080808093600560018060a01b03600183015416910154908282156102c2575bf1156102b65782610256565b6040513d6000823e3d90fd5b506108fc6102aa565b600080808060018060a01b036002860154166007860154908282156102fc575bf1610249576040513d6000823e3d90fd5b506108fc6102eb565b60405162461bcd60e51b815260206004820152601e60248201527f43616e6e6f742063616e63656c20696e2063757272656e7420737461746500006044820152606490fd5b90915061035b576003148580610237565b634e487b7160e01b600052602160045260246000fd5b80925061035b576002811491610230565b506001811491506000610229565b600a8101544211610209575b60405162461bcd60e51b815260206004820152601a60248201527f547261646520646561646c696e65206e6f7420726561636865640000000000006044820152606490fd5b3461012b57604036600319011261012b5760043560243561040d60018060a01b03600154163314611746565b81600052600560205260ff600b6040600020015416600881101561035b57600561043791146117df565b610444600454831061179c565b606481116105c45781600052600560205260406000209060048201546104976104906127106104776008870154856118bc565b046127106104896009880154866118bc565b04906118af565b80926118cf565b9060008080806104d26104c66104ba60646104b28b8b6118bc565b0480996118cf565b9760058b0154906118af565b9660068a0154906118af565b81549095906001600160a01b03168282156105bb575bf1156102b6576001840160008080808660018060a01b038654168282156105b2575bf1156102b6576002850160008080808660018060a01b038654168282156105a9575bf1156102b6576032606095600b7f7c4a227b7c31773c6fb876de0aefb5be3c7960e8ddcd29f089f955ed937415169801600660ff19825416179055116000146105975750546001600160a01b0316915b6040519260018060a01b0316835260208301526040820152a2005b546001600160a01b031692905061057c565b506108fc61052c565b506108fc61050a565b506108fc6104e8565b60405162461bcd60e51b8152602060048201526012602482015271496e76616c69642070657263656e7461676560701b6044820152606490fd5b3461012b57600036600319011261012b576020600454604051908152f35b3461012b57602036600319011261012b57610635611730565b61064a60018060a01b03600154163314611746565b6001600160a01b03168015610671576001600160601b0360a01b6000541617600055600080f35b60405162461bcd60e51b815260206004820152601760248201527f496e76616c696420706c6174666f726d2077616c6c65740000000000000000006044820152606490fd5b3461012b57600036600319011261012b576001546040516001600160a01b039091168152602090f35b3461012b57602036600319011261012b5760043580600052600560205260018060a01b03600160406000200154163314801561083c575b156107e057610728600454821061179c565b806000526005602052600b60406000200160ff815416600881101561035b57600381149081156107d5575b501561079057600560ff198254161790557f1716a391765fa98cf509fa991d6f31a43dcb9c128bdceca13baf8ae746c4d09c6020604051338152a2005b60405162461bcd60e51b815260206004820152601960248201527f496e76616c696420737461746520666f722064697370757465000000000000006044820152606490fd5b600491501483610753565b60405162461bcd60e51b815260206004820152602e60248201527f4f6e6c79207472616465207061727469636970616e74732063616e2063616c6c60448201526d103a3434b990333ab731ba34b7b760911b6064820152608490fd5b5080600052600560205260018060a01b03600260406000200154163314610716565b602036600319011261012b576004356000818152600560205260409020600201546001600160a01b03163303610a4c5761089b600454821061179c565b8060005260056020526040600020600b810190815460ff81169160088310801561035b57831591828015610a42575b156109fe5760ff8460081c166109c15760070192835434036109845761ff0019166101001785551561035b577f7efdf4d9f9f81d24dfd642a45b87021eec9833df78432041a5430b129da375a69360209386921561093a5750805460ff19166001179055505b54604051908152a2005b60026000911461094d575b505050610930565b7f6558865016438943ec07cfc1fa9ed87c32dd5d4dc17d530a8d932f6219a7190f91600360ff1982541617905580a2838580610945565b60405162461bcd60e51b8152602060048201526015602482015274125b98dbdc9c9958dd08185b5bdd5b9d081cd95b9d605a1b6044820152606490fd5b60405162461bcd60e51b815260206004820152601560248201527414d95b1b195c88185b1c9958591e48199d5b991959605a1b6044820152606490fd5b606460405162461bcd60e51b815260206004820152602060248201527f496e76616c696420737461746520666f722073656c6c65722066756e64696e676044820152fd5b50600285146108ca565b60405162461bcd60e51b815260206004820152602260248201527f4f6e6c792073656c6c65722063616e2063616c6c20746869732066756e63746960448201526137b760f11b6064820152608490fd5b3461012b57600036600319011261012b5760005b6004549081811015610c72578060005260056020526040600020600a810154421180610c57575b80610c3c575b610aed575b506001915001610ab0565b610afa905492831061179c565b816000526005602052604060002091600a83015442111561039c57600b830192835460ff81166008811015908161035b578015918215610c2e575b8215610c1d575b8215610c0c575b5050156103055760081c60ff16610bd2575b60ff845460101c16610b9c575b50600192600760ff198254161790557f4e02dcf02d8510f6c8a6878a3c54ae6e2bfbf552df29221d7a1eed173a6b1ae7600080a282610ae2565b600080808093600560018060a01b0360018301541691015490828215610bc9575bf1156102b65783610b62565b506108fc610bbd565b600080808060018060a01b03600286015416600786015490828215610c03575bf1610b55576040513d6000823e3d90fd5b506108fc610bf2565b90915061035b576003148680610b43565b80925061035b576002811491610b3c565b506001811491506000610b35565b5060ff600b82015416600881101561035b5760061415610add565b5060ff600b82015416600881101561035b5760071415610ad7565b005b602036600319011261012b576004356000818152600560205260409020600101546001600160a01b03163303610e6757610cb1600454821061179c565b8060005260056020526040600020600b8101805460ff8116906008821090811561035b57821594858015610e5d575b15610e185760ff8260101c16610ddc57600501543410610d975762ff00001916620100001783551561035b57839215610d4d5750805460ff19166002179055505b7f475bb06150904a2591f7f80edd2f2cc6c5169b02106e39544d66d6ed7c2941db6020604051348152a2005b600160009114610d60575b505050610d21565b7f6558865016438943ec07cfc1fa9ed87c32dd5d4dc17d530a8d932f6219a7190f91600360ff1982541617905580a2808280610d58565b60405162461bcd60e51b815260206004820152601760248201527f496e73756666696369656e7420636f6c6c61746572616c0000000000000000006044820152606490fd5b60405162461bcd60e51b8152602060048201526014602482015273109d5e595c88185b1c9958591e48199d5b99195960621b6044820152606490fd5b60405162461bcd60e51b815260206004820152601f60248201527f496e76616c696420737461746520666f722062757965722066756e64696e67006044820152606490fd5b5060018414610ce0565b60405162461bcd60e51b815260206004820152602160248201527f4f6e6c792062757965722063616e2063616c6c20746869732066756e6374696f6044820152603760f91b6064820152608490fd5b3461012b57600036600319011261012b57602047604051908152f35b3461012b57602036600319011261012b57600435610efb60018060a01b03600154163314611746565b610f08612710821061186a565b600355005b3461012b5761014036600319011261012b57610f27611730565b602435906001600160a01b038216820361012b576044356001600160a01b038116919082900361012b576101243592610104356001600160a01b038316151580611283575b8061127a575b1561124157606435156111fc5780156111f257935b80156111e9575b610f9b612710861061182a565b610fa8612710821061186a565b6004549360001985146111d35760018501600455610fc860e435426118af565b95604051926101c084019084821067ffffffffffffffff8311176111bd5761016092600b9260405288865260018060a01b0388166020870152604086019160018060a01b038816835260608701958652608087019a6064358c5260a0880190608435825260c089019260a435845260e08a019460c43586526101008b01526101208a015261014089015260008689015261018088019b60008d526101a0890197600089528c60005260056020526040600020958a51875560018060a01b0360208c015116600188019060018060a01b03166001600160601b0360a01b82541617905560018060a01b03905116600287019060018060a01b03166001600160601b0360a01b82541617905560018060a01b03905116600386019060018060a01b03166001600160601b0360a01b82541617905551600485015551600584015551600683015551600782015561010085015160088201556101208501516009820155610140850151600a8201550192015195600887101561035b5782549051915162ffffff1990911660ff9097169690961790151560081b61ff00161794151560101b62ff0000169490941790935560405160643581526020936001600160a01b0390811692169083907f7db1856a9087992b8c7c25a7f1622a9b144ff325953aee6bbb6d38d762c189f6908690a4604051908152f35b634e487b7160e01b600052604160045260246000fd5b634e487b7160e01b600052601160045260246000fd5b50600354610f8e565b5060025493610f87565b60405162461bcd60e51b815260206004820152601d60248201527f416d6f756e74206d7573742062652067726561746572207468616e20300000006044820152606490fd5b60405162461bcd60e51b8152602060048201526011602482015270496e76616c69642061646472657373657360781b6044820152606490fd5b50831515610f72565b506001600160a01b0382161515610f6c565b3461012b57602036600319011261012b5760043560045481106112b79061179c565b60005260056020526040600020805490600160a01b60019003600182015416600160a01b6001900360028301541690600160a01b600190036003840154169260048101549460058201549160068101546007820154600883015490600984015492600a85015494600b0154966040519b8c9b8c9b8a60101c60ff169b8b60081c60ff169b60ff169a6113489e6116a4565b0390f35b3461012b57600036600319011261012b576020600354604051908152f35b3461012b57602036600319011261012b5760043560005260056020526040600020805490600160a01b60019003600182015416600160a01b6001900360028301541690600160a01b600190036003840154169260048101549460058201549160068101546007820154600883015490600984015492600a85015494600b0154966040519b8c9b8c9b8a60101c60ff169b8b60081c60ff169b60ff169a6113489e6116a4565b3461012b57600036600319011261012b576020600254604051908152f35b3461012b57602036600319011261012b5760043561145660018060a01b03600154163314611746565b80600052600560205260ff600b6040600020015416600881101561035b57600361148091146117df565b61148d600454821061179c565b806000526005602052600b604060002001600460ff19825416179055807f80ef05806f38eb8789ddab5e34cd350f1ff47d351308a6de7f10fedd2770afec600080a2806000526005602052604060002060048101546115086127106114f66008850154846118bc565b046127106104896009860154856118bc565b90600080808061152b8661152660068a01549760058b0154906118af565b6118cf565b81549096906001600160a01b03168282156115d8575bf1156102b65760028301546000918291829182916001600160a01b03168282156115cf575bf1156102b65760018201546000918291829182916001600160a01b03168282156115c6575bf1156102b657600b01805460ff191660061790557f60f91a26281f20fb528663f4da55773c83e2ee8a7a5dddb6d1753749e81dc49b600080a2005b506108fc61158b565b506108fc611566565b506108fc611541565b3461012b57602036600319011261012b5760043561160a60018060a01b03600154163314611746565b61161b60045482106101f08161179c565b8060005260056020526040600020600b810190815460ff81166008811015908161035b57801591821561038257821561037157821561034a575050156103055760081c60ff166102cb5760ff825460101c166102895750805460ff191660071790557f4e02dcf02d8510f6c8a6878a3c54ae6e2bfbf552df29221d7a1eed173a6b1ae7600080a2005b60808281529181526001600160a01b0392831660208201529282166040840152921660608201529081019190915260a081019190915260c081019190915260e08101919091526101008101919091526101208101919091526101408101919091526101c0810194939092600883101561035b576101a09261016085015215156101808401521515910152565b600435906001600160a01b038216820361012b57565b1561174d57565b60405162461bcd60e51b815260206004820152602160248201527f4f6e6c79206f776e65722063616e2063616c6c20746869732066756e6374696f6044820152603760f91b6064820152608490fd5b156117a357565b60405162461bcd60e51b8152602060048201526014602482015273151c98591948191bd95cc81b9bdd08195e1a5cdd60621b6044820152606490fd5b156117e657565b606460405162461bcd60e51b815260206004820152602060248201527f496e76616c696420737461746520666f722074686973206f7065726174696f6e6044820152fd5b1561183157565b60405162461bcd60e51b815260206004820152601160248201527008ccaca40e4c2e8ca40e8dede40d0d2ced607b1b6044820152606490fd5b1561187157565b60405162461bcd60e51b81526020600482015260166024820152750a0e4deccd2e840dac2e4ced2dc40e8dede40d0d2ced60531b6044820152606490fd5b919082018092116111d357565b818102929181159184041417156111d357565b919082039182116111d35756fea2646970667358221220e7058c23c02ff844d2c070c7ae3a06c118256c29920d2d862df848a5e957273164736f6c634300081c0033",
  "linkReferences": {},
  "deployedLinkReferences": {}
}