{"contracts/Escrow.sol":{"Escrow":{"abi":[{"inputs":[],"stateMutability":"nonpayable","type":"constructor"},{"inputs":[{"internalType":"address","name":"owner","type":"address"}],"name":"OwnableInvalidOwner","type":"error"},{"inputs":[{"internalType":"address","name":"account","type":"address"}],"name":"OwnableUnauthorizedAccount","type":"error"},{"inputs":[],"name":"ReentrancyGuardReentrantCall","type":"error"},{"anonymous":false,"inputs":[{"indexed":false,"internalType":"uint256","name":"amount","type":"uint256"},{"indexed":false,"internalType":"uint256","name":"collateral","type":"uint256"}],"name":"BuyerDeposited","type":"event"},{"anonymous":false,"inputs":[{"indexed":false,"internalType":"address","name":"initiator","type":"address"}],"name":"DisputeRaised","type":"event"},{"anonymous":false,"inputs":[{"indexed":false,"internalType":"enum Escrow.DisputeDecision","name":"decision","type":"uint8"},{"indexed":false,"internalType":"enum Escrow.PenaltyTarget","name":"penaltyTarget","type":"uint8"}],"name":"DisputeResolved","type":"event"},{"anonymous":false,"inputs":[{"indexed":false,"internalType":"uint256","name":"newFeeRate","type":"uint256"},{"indexed":false,"internalType":"address","name":"platformWallet","type":"address"}],"name":"FeeUpdated","type":"event"},{"anonymous":false,"inputs":[{"indexed":false,"internalType":"address","name":"confirmer","type":"address"}],"name":"FiatReceiveConfirmed","type":"event"},{"anonymous":false,"inputs":[{"indexed":false,"internalType":"address","name":"confirmer","type":"address"}],"name":"FiatSendConfirmed","type":"event"},{"anonymous":false,"inputs":[{"indexed":true,"internalType":"address","name":"previousOwner","type":"address"},{"indexed":true,"internalType":"address","name":"newOwner","type":"address"}],"name":"OwnershipTransferred","type":"event"},{"anonymous":false,"inputs":[{"indexed":false,"internalType":"uint256","name":"amount","type":"uint256"},{"indexed":false,"internalType":"uint256","name":"collateral","type":"uint256"}],"name":"SellerDeposited","type":"event"},{"anonymous":false,"inputs":[{"indexed":false,"internalType":"address","name":"initiator","type":"address"},{"indexed":false,"internalType":"string","name":"reason","type":"string"}],"name":"TradeCancelled","type":"event"},{"anonymous":false,"inputs":[{"indexed":false,"internalType":"address","name":"buyer","type":"address"},{"indexed":false,"internalType":"address","name":"seller","type":"address"},{"indexed":false,"internalType":"uint256","name":"cryptoAmount","type":"uint256"}],"name":"TradeCompleted","type":"event"},{"anonymous":false,"inputs":[{"indexed":false,"internalType":"address","name":"buyer","type":"address"},{"indexed":false,"internalType":"address","name":"seller","type":"address"},{"indexed":false,"internalType":"address","name":"arbitrator","type":"address"},{"indexed":false,"internalType":"uint256","name":"cryptoAmount","type":"uint256"},{"indexed":false,"internalType":"uint256","name":"depositDeadline","type":"uint256"}],"name":"TradeInitialized","type":"event"},{"inputs":[],"name":"BASIS_POINTS_DIVISOR","outputs":[{"internalType":"uint256","name":"","type":"uint256"}],"stateMutability":"view","type":"function"},{"inputs":[],"name":"buyerDeposit","outputs":[],"stateMutability":"payable","type":"function"},{"inputs":[],"name":"cancelTrade","outputs":[],"stateMutability":"nonpayable","type":"function"},{"inputs":[],"name":"completeTrade","outputs":[],"stateMutability":"nonpayable","type":"function"},{"inputs":[],"name":"confirmFiatReceived","outputs":[],"stateMutability":"nonpayable","type":"function"},{"inputs":[],"name":"confirmFiatSent","outputs":[],"stateMutability":"nonpayable","type":"function"},{"inputs":[],"name":"currentTrade","outputs":[{"internalType":"address payable","name":"buyer","type":"address"},{"internalType":"address payable","name":"seller","type":"address"},{"internalType":"address payable","name":"arbitrator","type":"address"},{"internalType":"uint256","name":"cryptoAmount","type":"uint256"},{"internalType":"uint256","name":"buyerCollateral","type":"uint256"},{"internalType":"uint256","name":"sellerCollateral","type":"uint256"},{"internalType":"uint256","name":"depositDeadline","type":"uint256"},{"internalType":"uint256","name":"confirmationDeadline","type":"uint256"},{"internalType":"uint256","name":"feeRate","type":"uint256"},{"internalType":"address payable","name":"platformWallet","type":"address"},{"internalType":"enum Escrow.TradeState","name":"state","type":"uint8"},{"internalType":"bool","name":"buyerDeposited","type":"bool"},{"internalType":"bool","name":"sellerDeposited","type":"bool"}],"stateMutability":"view","type":"function"},{"inputs":[],"name":"getTradeDetails","outputs":[{"internalType":"address","name":"","type":"address"},{"internalType":"address","name":"","type":"address"},{"internalType":"address","name":"","type":"address"},{"internalType":"uint256","name":"","type":"uint256"},{"internalType":"uint256","name":"","type":"uint256"},{"internalType":"uint256","name":"","type":"uint256"},{"internalType":"uint256","name":"","type":"uint256"},{"internalType":"uint256","name":"","type":"uint256"},{"internalType":"enum Escrow.TradeState","name":"","type":"uint8"}],"stateMutability":"view","type":"function"},{"inputs":[],"name":"getTradeState","outputs":[{"internalType":"enum Escrow.TradeState","name":"","type":"uint8"}],"stateMutability":"view","type":"function"},{"inputs":[{"internalType":"address payable","name":"_buyer","type":"address"},{"internalType":"address payable","name":"_seller","type":"address"},{"internalType":"address payable","name":"_arbitrator","type":"address"},{"internalType":"uint256","name":"_cryptoAmount","type":"uint256"},{"internalType":"uint256","name":"_buyerCollateral","type":"uint256"},{"internalType":"uint256","name":"_sellerCollateral","type":"uint256"},{"internalType":"uint256","name":"_depositDuration","type":"uint256"},{"internalType":"uint256","name":"_confirmationDuration","type":"uint256"},{"internalType":"uint256","name":"_feeRate","type":"uint256"},{"internalType":"address payable","name":"_platformWallet","type":"address"}],"name":"initTrade","outputs":[],"stateMutability":"nonpayable","type":"function"},{"inputs":[],"name":"owner","outputs":[{"internalType":"address","name":"","type":"address"}],"stateMutability":"view","type":"function"},{"inputs":[],"name":"raiseDispute","outputs":[],"stateMutability":"nonpayable","type":"function"},{"inputs":[],"name":"renounceOwnership","outputs":[],"stateMutability":"nonpayable","type":"function"},{"inputs":[{"internalType":"enum Escrow.DisputeDecision","name":"decision","type":"uint8"},{"internalType":"enum Escrow.PenaltyTarget","name":"penaltyTarget","type":"uint8"}],"name":"resolveDispute","outputs":[],"stateMutability":"nonpayable","type":"function"},{"inputs":[],"name":"sellerDeposit","outputs":[],"stateMutability":"payable","type":"function"},{"inputs":[{"internalType":"address","name":"newOwner","type":"address"}],"name":"transferOwnership","outputs":[],"stateMutability":"nonpayable","type":"function"},{"inputs":[{"internalType":"uint256","name":"_newFeeRate","type":"uint256"},{"internalType":"address payable","name":"_newPlatformWallet","type":"address"}],"name":"updateFeeSettings","outputs":[],"stateMutability":"nonpayable","type":"function"}],"evm":{"bytecode":{"linkReferences":{},"object":"608080604052346078576001600055331560625760018054336001600160a01b0319821681179092556001600160a01b03167f8be0079c531659141344cd1fd0a4f28419497f9722a3daafe3b4186f6b6457e0600080a3611c46908161007e8239f35b631e4fbdf760e01b600052600060045260246000fd5b600080fdfe6080604052600436101561001257600080fd5b6000803560e01c806310509aa9146118e2578063126082cf146118c5578063234d442b146116c35780634c1786ea1461150f5780636daa2d441461137e578063715018a61461132157806372e1ab9414610ed25780638da5cb5b14610ea95780639c76230c14610bfd578063a057958714610a2c578063bb96d6c214610534578063be43bef51461050b578063be444a6814610481578063d81f337c146103c4578063e50bed57146102b0578063f2fde38b1461021e5763fdfff32f146100d857600080fd5b3461021b578060031936011261021b576100f0611bee565b60ff600b5460a01c166008811015610207576003036101c2576003546001600160a01b0316330361016f57610129600954421115611b79565b600b805460ff60a01b1916600160a21b1790556040513381527f957c7f11c28387fb00f24c4862b8cc1d3ac625463ca33486484c992f7a83a52f90602090a16001815580f35b60405162461bcd60e51b815260206004820152602560248201527f4f6e6c792073656c6c65722063616e20636f6e6669726d206669617420726563604482015264195a5d995960da1b6064820152608490fd5b60405162461bcd60e51b815260206004820152601760248201527f46696174206d7573742062652073656e742066697273740000000000000000006044820152606490fd5b634e487b7160e01b82526021600452602482fd5b80fd5b503461021b57602036600319011261021b576004356001600160a01b038116908190036102ac5761024d611bc5565b801561029857600180546001600160a01b0319811683179091556001600160a01b03167f8be0079c531659141344cd1fd0a4f28419497f9722a3daafe3b4186f6b6457e0600080a380f35b631e4fbdf760e01b82526004829052602482fd5b5080fd5b503461021b578060031936011261021b576102c9611bee565b60ff600b5460a01c1660088110156102075760020361038c576002546001600160a01b0316330361034857610302600954421115611b79565b600b805460ff60a01b1916600360a01b1790556040513381527f568a305daa40b0e9f566bcb1a3872c5f9d4baabf28a59311acc31e4972d32b6390602090a16001815580f35b606460405162461bcd60e51b815260206004820152602060248201527f4f6e6c792062757965722063616e20636f6e6669726d20666961742073656e746044820152fd5b60405162461bcd60e51b815260206004820152601060248201526f5472616465206e6f742061637469766560801b6044820152606490fd5b503461021b578060031936011261021b576101a060018060a01b036002541660ff60018060a01b036003541660018060a01b03600454166005546006546007546008549160095493600a5495600b54976040519a8b5260208b015260408a01526060890152608088015260a087015260c086015260e085015261010084015260018060a01b0381166101208401526104656101408401838360a01c1661198c565b818160a81c16151561016084015260b01c161515610180820152f35b503461021b578060031936011261021b5761012060018060a01b036002541661050960018060a01b036003541660018060a01b036004541660055460065460075490600854926009549460ff600b5460a01c1696604051998a5260208a015260408901526060880152608087015260a086015260c085015260e084015261010083019061198c565bf35b503461021b578060031936011261021b57602060ff600b5460a01c16610509604051809261198c565b503461021b5761014036600319011261021b576004356001600160a01b038116908190036102ac57610564611971565b6044356001600160a01b03811690819003610a28576064359060843560a43560c4359461010435610124359160018060a01b038316809303610a24576105a8611bc5565b60ff600b5460a01c1660088110159081610a10578015918215610a03575b82156109de575b5050156109735788151580610961575b80610958575b1561091f576001600160a01b0316968888141580610915575b8061090b575b156108c657861515806108bd575b806108b4575b15610865578015158061085a575b156108095761064b9061063a61271084106119af565b6106458415156119fb565b42611b21565b93604051946101a0860186811067ffffffffffffffff8211176107f557917f1cf27b0e969a83431adb7b723c5c4f46843fbf7e2b0048b1b2a095f402adea069b939160a09b9a9998979695936040528a875260208701958a87526040880192898452606089018b815260808a019182528e8a0192835260c08a0193845260e08a01948886526101008b019687526101208b0197885260016101408c01526101608b0199898b526101808c019b8a8d5260a0600180911b0390511660a06001600160601b03901b600254161760025560a0600180911b0390511660a06001600160601b03901b60035416176003558f600180911b039051168f6001600160601b03901b6004541617600455516005555160065551600755516008555160095551600a556001808a1b039051166001600160601b03891b600b541617600b55506001871b60ff881b19600b541617600b55511515600b549060ff60a81b9060a81b169060ff60a81b191617600b55511515600b549060ff60b01b9060b01b169060ff60b01b191617600b55600854926040519485526020850152604084015260608301526080820152a1005b634e487b7160e01b8c52604160045260248cfd5b60405162461bcd60e51b815260206004820152602360248201527f4475726174696f6e73206d7573742062652067726561746572207468616e207a60448201526265726f60e81b6064820152608490fd5b5060e4351515610624565b60405162461bcd60e51b815260206004820152602160248201527f416d6f756e7473206d7573742062652067726561746572207468616e207a65726044820152606f60f81b6064820152608490fd5b50831515610616565b50841515610610565b60405162461bcd60e51b815260206004820152601b60248201527f416464726573736573206d75737420626520646966666572656e7400000000006044820152606490fd5b5085881415610602565b50858914156105fc565b60405162461bcd60e51b8152602060048201526011602482015270496e76616c69642061646472657373657360781b6044820152606490fd5b508515156105e3565b506001600160a01b03811615156105dd565b60405162461bcd60e51b815260206004820152603760248201527f43757272656e74207472616465206d75737420626520636f6d706c657465642c60448201527f2063616e63656c6c65642c206f7220696e6163746976650000000000000000006064820152608490fd5b9091506109ef5760071438806105cd565b634e487b7160e01b8b52602160045260248bfd5b506005811491508b6105c6565b634e487b7160e01b8c52602160045260248cfd5b8980fd5b8380fd5b508060031936011261021b57610a40611bee565b600b5460ff8160a01c166008811015610be9576001610a5f9114611a7d565b6002546001600160a01b03163303610bab5760ff8160a81c16610b6657610a8a600854421115611ad5565b6006543403610b215760ff60a81b1916600160a81b17600b81905560b01c60ff16610ae6575b7fb6551eab5c9e624d74922adeedb1651d10c9366a370e1de2cdb25f4d1935496260408051838152346020820152a16001815580f35b600b805460ff60a01b1916600160a11b179055610e104201804211610b0d57600955610ab0565b634e487b7160e01b82526011600452602482fd5b60405162461bcd60e51b815260206004820152601b60248201527f496e636f727265637420636f6c6c61746572616c20616d6f756e7400000000006044820152606490fd5b60405162461bcd60e51b815260206004820152601760248201527f427579657220616c7265616479206465706f73697465640000000000000000006044820152606490fd5b60405162461bcd60e51b815260206004820152601660248201527513db9b1e48189d5e595c8818d85b8819195c1bdcda5d60521b6044820152606490fd5b634e487b7160e01b83526021600452602483fd5b503461021b578060031936011261021b57610c16611bee565b60ff600b5460a01c16600881101580610be9576001821480928115610e9b575b828215610e76575b505015610e1e576002546001600160a01b031633148015610e0a575b15610dc5576102075715610db357600854421115610d6e575b600b805460ff60a01b1916600760a01b179081905560a81c60ff16610d39575b60ff600b5460b01c16610cf8575b7f370002a6887a4f27a9bc604366b017597e9702eb0d961626af8e7101acfa1897608060405133815260406020820152600f60408201526e111958591b1a5b99481b5a5cdcd959608a1b6060820152a16001815580f35b8080808060018060a01b0360035416610d1660075460055490611b21565b90828215610d30575bf1610ca157604051903d90823e3d90fd5b506108fc610d1f565b8080808060018060a01b036002541660065490828215610d65575bf1610c9357604051903d90823e3d90fd5b506108fc610d54565b60405162461bcd60e51b815260206004820152601b60248201527f4465706f73697420646561646c696e65206e6f742070617373656400000000006044820152606490fd5b610dc06009544211611b2e565b610c73565b60405162461bcd60e51b815260206004820152601f60248201527f4f6e6c79206275796572206f722073656c6c65722063616e2063616e63656c006044820152606490fd5b506003546001600160a01b03163314610c5a565b60405162461bcd60e51b815260206004820152602a60248201527f54726164652063616e6e6f742062652063616e63656c6c656420696e2063757260448201526972656e7420737461746560b01b6064820152608490fd5b909150610e87576003143882610c3e565b634e487b7160e01b84526021600452602484fd5b849250600281149150610c36565b503461021b578060031936011261021b576001546040516001600160a01b039091168152602090f35b503461021b57604036600319011261021b5760043560028110158061131d57602435906003821015610a2857610f06611bee565b60ff600b5460a01c166008811015611309576006036112c4576004546001600160a01b031633036112735783908215801590611267575b1561121457610e87578215801561120d5760055b60088110156110f057600b805460ff60a01b191660a09290921b60ff60a01b16919091179055156111045760055481610f9a612710610f92600a5485611a47565b048093611a70565b906110f05785919060018503611093578280808060018060a01b0360035416610fc860075460065490611b21565b9082821561108a575bf11561107f5760025483918291829182916001600160a01b0316828215611076575bf11561106957818080925b600b546001600160a01b0316828215611060575bf115611055575b604051928352610be9578160409160207f055e65f41a3e0a640327c69d9693e8fabf7ef17722890bb3caeafd908fbb5f86940152a16001815580f35b6040513d85823e3d90fd5b506108fc611012565b50604051903d90823e3d90fd5b506108fc610ff3565b6040513d84823e3d90fd5b506108fc610fd1565b9250818093600286146110aa575b50808092610ffe565b818080926110d160018060a01b0360025416916110cc60065460075490611b21565b611b21565b908282156110e7575bf1156110695781386110a1565b506108fc6110da565b634e487b7160e01b86526021600452602486fd5b508260018203611156578380808060018060a01b036003541661113861112f60075460065490611b21565b60055490611b21565b9082821561114d575bf115611055575b611019565b506108fc611141565b5082600282036111a3578380808060018060a01b036002541661118161112f60065460075490611b21565b9082821561119a575bf1611019576040513d85823e3d90fd5b506108fc61118a565b8380808060018060a01b036002541660065490828215611204575bf115611055578380808060018060a01b03600354166111e260075460055490611b21565b908282156111fb575bf1611148576040513d85823e3d90fd5b506108fc6111eb565b506108fc6111be565b6007610f51565b60405162461bcd60e51b815260206004820152602560248201527f50656e616c747920726571756972656420666f722072656c656173652064656360448201526434b9b4b7b760d91b6064820152608490fd5b50508360018414610f3d565b60405162461bcd60e51b815260206004820152602360248201527f4f6e6c792061726269747261746f722063616e207265736f6c7665206469737060448201526275746560e81b6064820152608490fd5b60405162461bcd60e51b815260206004820152601b60248201527f5472616465206e6f7420696e20646973707574656420737461746500000000006044820152606490fd5b634e487b7160e01b85526021600452602485fd5b8280fd5b503461021b578060031936011261021b5761133a611bc5565b600180546001600160a01b0319811690915581906001600160a01b03167f8be0079c531659141344cd1fd0a4f28419497f9722a3daafe3b4186f6b6457e08280a380f35b503461021b578060031936011261021b57611397611bee565b60ff600b5460a01c1660088110159081610be95760028114918215611502575b82156114f1575b50501561149a576002546001600160a01b031633148015611486575b15611432576113ec6009544211611b2e565b600b805460ff60a01b1916600360a11b1790556040513381527f0b3cd97b16a08a5c77357c276d248827ad32dfd56060f7c55d6255537ba3d96290602090a16001815580f35b60405162461bcd60e51b815260206004820152602660248201527f4f6e6c79206275796572206f722073656c6c65722063616e207261697365206460448201526569737075746560d01b6064820152608490fd5b506003546001600160a01b031633146113da565b60405162461bcd60e51b815260206004820152602960248201527f54726164652063616e6e6f7420626520646973707574656420696e2063757272604482015268656e7420737461746560b81b6064820152608490fd5b9091506102075760041438806113be565b50600381149150826113b7565b508060031936011261021b57611523611bee565b600b5460ff8160a01c166008811015610be95760016115429114611a7d565b6003546001600160a01b0316330361167e5760ff8160b01c166116395761156d600854421115611ad5565b61157c60055460075490611b21565b34036116015760ff60b01b1916600160b01b17600b81905560a81c60ff166115da575b7f2b0627072d198d1cbedbe793e8752f932b4ad8d6c9729451695e1c5adc8b276d604060055460075482519182526020820152a16001815580f35b600b805460ff60a01b1916600160a11b179055610e104201804211610b0d5760095561159f565b60405162461bcd60e51b815260206004820152601060248201526f125b98dbdc9c9958dd08185b5bdd5b9d60821b6044820152606490fd5b60405162461bcd60e51b815260206004820152601860248201527f53656c6c657220616c7265616479206465706f736974656400000000000000006044820152606490fd5b60405162461bcd60e51b815260206004820152601760248201527f4f6e6c792073656c6c65722063616e206465706f7369740000000000000000006044820152606490fd5b503461021b578060031936011261021b576116dc611bee565b60ff600b5460a01c16600881101561020757600403611880576003546001600160a01b03163303611830576005548161171d612710610f92600a5485611a47565b600b805460ff60a01b1916600560a01b1790556002546006549193918391829182918291906001600160a01b0316828215611827575bf115611069578180808060018060a01b03600354166007549082821561181e575bf11561106957818080808660018060a01b0360025416828215611815575bf11561106957600b54829182918291906001600160a01b031682821561180c575bf11561106957600254600354604080516001600160a01b0393841681529290911660208301528101919091527fe675a546c1992cdf86a6d4a0e4e2928dc0de8237b8dc9349b701fb13fff810ac90606090a16001815580f35b506108fc6117b3565b506108fc611792565b506108fc611774565b506108fc611753565b60405162461bcd60e51b815260206004820152602260248201527f4f6e6c792073656c6c65722063616e20636f6d706c6574652074686520747261604482015261646560f01b6064820152608490fd5b60405162461bcd60e51b815260206004820152601b60248201527f46696174206d75737420626520726563656976656420666972737400000000006044820152606490fd5b503461021b578060031936011261021b5760206040516127108152f35b503461021b57604036600319011261021b577f7cfad8b150be9751a5386cc4e0f549618032ff63d14fab4f77cd4b0aaaedc2426040600435611922611971565b61192a611bc5565b61193761271083106119af565b6001600160a01b031661194b8115156119fb565b81600a55806001600160601b0360a01b600b541617600b5582519182526020820152a180f35b602435906001600160a01b038216820361198757565b600080fd5b9060088210156119995752565b634e487b7160e01b600052602160045260246000fd5b156119b657565b60405162461bcd60e51b815260206004820152601f60248201527f4665652072617465206d757374206265206c657373207468616e2031303025006044820152606490fd5b15611a0257565b60405162461bcd60e51b815260206004820152601760248201527f496e76616c696420706c6174666f726d2077616c6c65740000000000000000006044820152606490fd5b81810292918115918404141715611a5a57565b634e487b7160e01b600052601160045260246000fd5b91908203918211611a5a57565b15611a8457565b60405162461bcd60e51b8152602060048201526024808201527f5472616465206e6f7420696e206177616974696e67206465706f7369747320736044820152637461746560e01b6064820152608490fd5b15611adc57565b60405162461bcd60e51b815260206004820152601760248201527f4465706f73697420646561646c696e65207061737365640000000000000000006044820152606490fd5b91908201809211611a5a57565b15611b3557565b606460405162461bcd60e51b815260206004820152602060248201527f436f6e6669726d6174696f6e20646561646c696e65206e6f74207061737365646044820152fd5b15611b8057565b60405162461bcd60e51b815260206004820152601c60248201527f436f6e6669726d6174696f6e20646561646c696e6520706173736564000000006044820152606490fd5b6001546001600160a01b03163303611bd957565b63118cdaa760e01b6000523360045260246000fd5b600260005414611bff576002600055565b633ee5aeb560e01b60005260046000fdfea2646970667358221220fd609507a8fd29f7c59afbcfae3e73804902d3d9aca4108f570f7e94925b47d864736f6c634300081c0033","opcodes":"PUSH1 0x80 DUP1 PUSH1 0x40 MSTORE CALLVALUE PUSH1 0x78 JUMPI PUSH1 0x1 PUSH1 0x0 SSTORE CALLER ISZERO PUSH1 0x62 JUMPI PUSH1 0x1 DUP1 SLOAD CALLER PUSH1 0x1 PUSH1 0x1 PUSH1 0xA0 SHL SUB NOT DUP3 AND DUP2 OR SWAP1 SWAP3 SSTORE PUSH1 0x1 PUSH1 0x1 PUSH1 0xA0 SHL SUB AND PUSH32 0x8BE0079C531659141344CD1FD0A4F28419497F9722A3DAAFE3B4186F6B6457E0 PUSH1 0x0 DUP1 LOG3 PUSH2 0x1C46 SWAP1 DUP2 PUSH2 0x7E DUP3 CODECOPY RETURN JUMPDEST PUSH4 0x1E4FBDF7 PUSH1 0xE0 SHL PUSH1 0x0 MSTORE PUSH1 0x0 PUSH1 0x4 MSTORE PUSH1 0x24 PUSH1 0x0 REVERT JUMPDEST PUSH1 0x0 DUP1 REVERT INVALID PUSH1 0x80 PUSH1 0x40 MSTORE PUSH1 0x4 CALLDATASIZE LT ISZERO PUSH2 0x12 JUMPI PUSH1 0x0 DUP1 REVERT JUMPDEST PUSH1 0x0 DUP1 CALLDATALOAD PUSH1 0xE0 SHR DUP1 PUSH4 0x10509AA9 EQ PUSH2 0x18E2 JUMPI DUP1 PUSH4 0x126082CF EQ PUSH2 0x18C5 JUMPI DUP1 PUSH4 0x234D442B EQ PUSH2 0x16C3 JUMPI DUP1 PUSH4 0x4C1786EA EQ PUSH2 0x150F JUMPI DUP1 PUSH4 0x6DAA2D44 EQ PUSH2 0x137E JUMPI DUP1 PUSH4 0x715018A6 EQ PUSH2 0x1321 JUMPI DUP1 PUSH4 0x72E1AB94 EQ PUSH2 0xED2 JUMPI DUP1 PUSH4 0x8DA5CB5B EQ PUSH2 0xEA9 JUMPI DUP1 PUSH4 0x9C76230C EQ PUSH2 0xBFD JUMPI DUP1 PUSH4 0xA0579587 EQ PUSH2 0xA2C JUMPI DUP1 PUSH4 0xBB96D6C2 EQ PUSH2 0x534 JUMPI DUP1 PUSH4 0xBE43BEF5 EQ PUSH2 0x50B JUMPI DUP1 PUSH4 0xBE444A68 EQ PUSH2 0x481 JUMPI DUP1 PUSH4 0xD81F337C EQ PUSH2 0x3C4 JUMPI DUP1 PUSH4 0xE50BED57 EQ PUSH2 0x2B0 JUMPI DUP1 PUSH4 0xF2FDE38B EQ PUSH2 0x21E JUMPI PUSH4 0xFDFFF32F EQ PUSH2 0xD8 JUMPI PUSH1 0x0 DUP1 REVERT JUMPDEST CALLVALUE PUSH2 0x21B JUMPI DUP1 PUSH1 0x3 NOT CALLDATASIZE ADD SLT PUSH2 0x21B JUMPI PUSH2 0xF0 PUSH2 0x1BEE JUMP JUMPDEST PUSH1 0xFF PUSH1 0xB SLOAD PUSH1 0xA0 SHR AND PUSH1 0x8 DUP2 LT ISZERO PUSH2 0x207 JUMPI PUSH1 0x3 SUB PUSH2 0x1C2 JUMPI PUSH1 0x3 SLOAD PUSH1 0x1 PUSH1 0x1 PUSH1 0xA0 SHL SUB AND CALLER SUB PUSH2 0x16F JUMPI PUSH2 0x129 PUSH1 0x9 SLOAD TIMESTAMP GT ISZERO PUSH2 0x1B79 JUMP JUMPDEST PUSH1 0xB DUP1 SLOAD PUSH1 0xFF PUSH1 0xA0 SHL NOT AND PUSH1 0x1 PUSH1 0xA2 SHL OR SWAP1 SSTORE PUSH1 0x40 MLOAD CALLER DUP2 MSTORE PUSH32 0x957C7F11C28387FB00F24C4862B8CC1D3AC625463CA33486484C992F7A83A52F SWAP1 PUSH1 0x20 SWAP1 LOG1 PUSH1 0x1 DUP2 SSTORE DUP1 RETURN JUMPDEST PUSH1 0x40 MLOAD PUSH3 0x461BCD PUSH1 0xE5 SHL DUP2 MSTORE PUSH1 0x20 PUSH1 0x4 DUP3 ADD MSTORE PUSH1 0x25 PUSH1 0x24 DUP3 ADD MSTORE PUSH32 0x4F6E6C792073656C6C65722063616E20636F6E6669726D206669617420726563 PUSH1 0x44 DUP3 ADD MSTORE PUSH5 0x195A5D9959 PUSH1 0xDA SHL PUSH1 0x64 DUP3 ADD MSTORE PUSH1 0x84 SWAP1 REVERT JUMPDEST PUSH1 0x40 MLOAD PUSH3 0x461BCD PUSH1 0xE5 SHL DUP2 MSTORE PUSH1 0x20 PUSH1 0x4 DUP3 ADD MSTORE PUSH1 0x17 PUSH1 0x24 DUP3 ADD MSTORE PUSH32 0x46696174206D7573742062652073656E74206669727374000000000000000000 PUSH1 0x44 DUP3 ADD MSTORE PUSH1 0x64 SWAP1 REVERT JUMPDEST PUSH4 0x4E487B71 PUSH1 0xE0 SHL DUP3 MSTORE PUSH1 0x21 PUSH1 0x4 MSTORE PUSH1 0x24 DUP3 REVERT JUMPDEST DUP1 REVERT JUMPDEST POP CALLVALUE PUSH2 0x21B JUMPI PUSH1 0x20 CALLDATASIZE PUSH1 0x3 NOT ADD SLT PUSH2 0x21B JUMPI PUSH1 0x4 CALLDATALOAD PUSH1 0x1 PUSH1 0x1 PUSH1 0xA0 SHL SUB DUP2 AND SWAP1 DUP2 SWAP1 SUB PUSH2 0x2AC JUMPI PUSH2 0x24D PUSH2 0x1BC5 JUMP JUMPDEST DUP1 ISZERO PUSH2 0x298 JUMPI PUSH1 0x1 DUP1 SLOAD PUSH1 0x1 PUSH1 0x1 PUSH1 0xA0 SHL SUB NOT DUP2 AND DUP4 OR SWAP1 SWAP2 SSTORE PUSH1 0x1 PUSH1 0x1 PUSH1 0xA0 SHL SUB AND PUSH32 0x8BE0079C531659141344CD1FD0A4F28419497F9722A3DAAFE3B4186F6B6457E0 PUSH1 0x0 DUP1 LOG3 DUP1 RETURN JUMPDEST PUSH4 0x1E4FBDF7 PUSH1 0xE0 SHL DUP3 MSTORE PUSH1 0x4 DUP3 SWAP1 MSTORE PUSH1 0x24 DUP3 REVERT JUMPDEST POP DUP1 REVERT JUMPDEST POP CALLVALUE PUSH2 0x21B JUMPI DUP1 PUSH1 0x3 NOT CALLDATASIZE ADD SLT PUSH2 0x21B JUMPI PUSH2 0x2C9 PUSH2 0x1BEE JUMP JUMPDEST PUSH1 0xFF PUSH1 0xB SLOAD PUSH1 0xA0 SHR AND PUSH1 0x8 DUP2 LT ISZERO PUSH2 0x207 JUMPI PUSH1 0x2 SUB PUSH2 0x38C JUMPI PUSH1 0x2 SLOAD PUSH1 0x1 PUSH1 0x1 PUSH1 0xA0 SHL SUB AND CALLER SUB PUSH2 0x348 JUMPI PUSH2 0x302 PUSH1 0x9 SLOAD TIMESTAMP GT ISZERO PUSH2 0x1B79 JUMP JUMPDEST PUSH1 0xB DUP1 SLOAD PUSH1 0xFF PUSH1 0xA0 SHL NOT AND PUSH1 0x3 PUSH1 0xA0 SHL OR SWAP1 SSTORE PUSH1 0x40 MLOAD CALLER DUP2 MSTORE PUSH32 0x568A305DAA40B0E9F566BCB1A3872C5F9D4BAABF28A59311ACC31E4972D32B63 SWAP1 PUSH1 0x20 SWAP1 LOG1 PUSH1 0x1 DUP2 SSTORE DUP1 RETURN JUMPDEST PUSH1 0x64 PUSH1 0x40 MLOAD PUSH3 0x461BCD PUSH1 0xE5 SHL DUP2 MSTORE PUSH1 0x20 PUSH1 0x4 DUP3 ADD MSTORE PUSH1 0x20 PUSH1 0x24 DUP3 ADD MSTORE PUSH32 0x4F6E6C792062757965722063616E20636F6E6669726D20666961742073656E74 PUSH1 0x44 DUP3 ADD MSTORE REVERT JUMPDEST PUSH1 0x40 MLOAD PUSH3 0x461BCD PUSH1 0xE5 SHL DUP2 MSTORE PUSH1 0x20 PUSH1 0x4 DUP3 ADD MSTORE PUSH1 0x10 PUSH1 0x24 DUP3 ADD MSTORE PUSH16 0x5472616465206E6F7420616374697665 PUSH1 0x80 SHL PUSH1 0x44 DUP3 ADD MSTORE PUSH1 0x64 SWAP1 REVERT JUMPDEST POP CALLVALUE PUSH2 0x21B JUMPI DUP1 PUSH1 0x3 NOT CALLDATASIZE ADD SLT PUSH2 0x21B JUMPI PUSH2 0x1A0 PUSH1 0x1 DUP1 PUSH1 0xA0 SHL SUB PUSH1 0x2 SLOAD AND PUSH1 0xFF PUSH1 0x1 DUP1 PUSH1 0xA0 SHL SUB PUSH1 0x3 SLOAD AND PUSH1 0x1 DUP1 PUSH1 0xA0 SHL SUB PUSH1 0x4 SLOAD AND PUSH1 0x5 SLOAD PUSH1 0x6 SLOAD PUSH1 0x7 SLOAD PUSH1 0x8 SLOAD SWAP2 PUSH1 0x9 SLOAD SWAP4 PUSH1 0xA SLOAD SWAP6 PUSH1 0xB SLOAD SWAP8 PUSH1 0x40 MLOAD SWAP11 DUP12 MSTORE PUSH1 0x20 DUP12 ADD MSTORE PUSH1 0x40 DUP11 ADD MSTORE PUSH1 0x60 DUP10 ADD MSTORE PUSH1 0x80 DUP9 ADD MSTORE PUSH1 0xA0 DUP8 ADD MSTORE PUSH1 0xC0 DUP7 ADD MSTORE PUSH1 0xE0 DUP6 ADD MSTORE PUSH2 0x100 DUP5 ADD MSTORE PUSH1 0x1 DUP1 PUSH1 0xA0 SHL SUB DUP2 AND PUSH2 0x120 DUP5 ADD MSTORE PUSH2 0x465 PUSH2 0x140 DUP5 ADD DUP4 DUP4 PUSH1 0xA0 SHR AND PUSH2 0x198C JUMP JUMPDEST DUP2 DUP2 PUSH1 0xA8 SHR AND ISZERO ISZERO PUSH2 0x160 DUP5 ADD MSTORE PUSH1 0xB0 SHR AND ISZERO ISZERO PUSH2 0x180 DUP3 ADD MSTORE RETURN JUMPDEST POP CALLVALUE PUSH2 0x21B JUMPI DUP1 PUSH1 0x3 NOT CALLDATASIZE ADD SLT PUSH2 0x21B JUMPI PUSH2 0x120 PUSH1 0x1 DUP1 PUSH1 0xA0 SHL SUB PUSH1 0x2 SLOAD AND PUSH2 0x509 PUSH1 0x1 DUP1 PUSH1 0xA0 SHL SUB PUSH1 0x3 SLOAD AND PUSH1 0x1 DUP1 PUSH1 0xA0 SHL SUB PUSH1 0x4 SLOAD AND PUSH1 0x5 SLOAD PUSH1 0x6 SLOAD PUSH1 0x7 SLOAD SWAP1 PUSH1 0x8 SLOAD SWAP3 PUSH1 0x9 SLOAD SWAP5 PUSH1 0xFF PUSH1 0xB SLOAD PUSH1 0xA0 SHR AND SWAP7 PUSH1 0x40 MLOAD SWAP10 DUP11 MSTORE PUSH1 0x20 DUP11 ADD MSTORE PUSH1 0x40 DUP10 ADD MSTORE PUSH1 0x60 DUP9 ADD MSTORE PUSH1 0x80 DUP8 ADD MSTORE PUSH1 0xA0 DUP7 ADD MSTORE PUSH1 0xC0 DUP6 ADD MSTORE PUSH1 0xE0 DUP5 ADD MSTORE PUSH2 0x100 DUP4 ADD SWAP1 PUSH2 0x198C JUMP JUMPDEST RETURN JUMPDEST POP CALLVALUE PUSH2 0x21B JUMPI DUP1 PUSH1 0x3 NOT CALLDATASIZE ADD SLT PUSH2 0x21B JUMPI PUSH1 0x20 PUSH1 0xFF PUSH1 0xB SLOAD PUSH1 0xA0 SHR AND PUSH2 0x509 PUSH1 0x40 MLOAD DUP1 SWAP3 PUSH2 0x198C JUMP JUMPDEST POP CALLVALUE PUSH2 0x21B JUMPI PUSH2 0x140 CALLDATASIZE PUSH1 0x3 NOT ADD SLT PUSH2 0x21B JUMPI PUSH1 0x4 CALLDATALOAD PUSH1 0x1 PUSH1 0x1 PUSH1 0xA0 SHL SUB DUP2 AND SWAP1 DUP2 SWAP1 SUB PUSH2 0x2AC JUMPI PUSH2 0x564 PUSH2 0x1971 JUMP JUMPDEST PUSH1 0x44 CALLDATALOAD PUSH1 0x1 PUSH1 0x1 PUSH1 0xA0 SHL SUB DUP2 AND SWAP1 DUP2 SWAP1 SUB PUSH2 0xA28 JUMPI PUSH1 0x64 CALLDATALOAD SWAP1 PUSH1 0x84 CALLDATALOAD PUSH1 0xA4 CALLDATALOAD PUSH1 0xC4 CALLDATALOAD SWAP5 PUSH2 0x104 CALLDATALOAD PUSH2 0x124 CALLDATALOAD SWAP2 PUSH1 0x1 DUP1 PUSH1 0xA0 SHL SUB DUP4 AND DUP1 SWAP4 SUB PUSH2 0xA24 JUMPI PUSH2 0x5A8 PUSH2 0x1BC5 JUMP JUMPDEST PUSH1 0xFF PUSH1 0xB SLOAD PUSH1 0xA0 SHR AND PUSH1 0x8 DUP2 LT ISZERO SWAP1 DUP2 PUSH2 0xA10 JUMPI DUP1 ISZERO SWAP2 DUP3 ISZERO PUSH2 0xA03 JUMPI JUMPDEST DUP3 ISZERO PUSH2 0x9DE JUMPI JUMPDEST POP POP ISZERO PUSH2 0x973 JUMPI DUP9 ISZERO ISZERO DUP1 PUSH2 0x961 JUMPI JUMPDEST DUP1 PUSH2 0x958 JUMPI JUMPDEST ISZERO PUSH2 0x91F JUMPI PUSH1 0x1 PUSH1 0x1 PUSH1 0xA0 SHL SUB AND SWAP7 DUP9 DUP9 EQ ISZERO DUP1 PUSH2 0x915 JUMPI JUMPDEST DUP1 PUSH2 0x90B JUMPI JUMPDEST ISZERO PUSH2 0x8C6 JUMPI DUP7 ISZERO ISZERO DUP1 PUSH2 0x8BD JUMPI JUMPDEST DUP1 PUSH2 0x8B4 JUMPI JUMPDEST ISZERO PUSH2 0x865 JUMPI DUP1 ISZERO ISZERO DUP1 PUSH2 0x85A JUMPI JUMPDEST ISZERO PUSH2 0x809 JUMPI PUSH2 0x64B SWAP1 PUSH2 0x63A PUSH2 0x2710 DUP5 LT PUSH2 0x19AF JUMP JUMPDEST PUSH2 0x645 DUP5 ISZERO ISZERO PUSH2 0x19FB JUMP JUMPDEST TIMESTAMP PUSH2 0x1B21 JUMP JUMPDEST SWAP4 PUSH1 0x40 MLOAD SWAP5 PUSH2 0x1A0 DUP7 ADD DUP7 DUP2 LT PUSH8 0xFFFFFFFFFFFFFFFF DUP3 GT OR PUSH2 0x7F5 JUMPI SWAP2 PUSH32 0x1CF27B0E969A83431ADB7B723C5C4F46843FBF7E2B0048B1B2A095F402ADEA06 SWAP12 SWAP4 SWAP2 PUSH1 0xA0 SWAP12 SWAP11 SWAP10 SWAP9 SWAP8 SWAP7 SWAP6 SWAP4 PUSH1 0x40 MSTORE DUP11 DUP8 MSTORE PUSH1 0x20 DUP8 ADD SWAP6 DUP11 DUP8 MSTORE PUSH1 0x40 DUP9 ADD SWAP3 DUP10 DUP5 MSTORE PUSH1 0x60 DUP10 ADD DUP12 DUP2 MSTORE PUSH1 0x80 DUP11 ADD SWAP2 DUP3 MSTORE DUP15 DUP11 ADD SWAP3 DUP4 MSTORE PUSH1 0xC0 DUP11 ADD SWAP4 DUP5 MSTORE PUSH1 0xE0 DUP11 ADD SWAP5 DUP9 DUP7 MSTORE PUSH2 0x100 DUP12 ADD SWAP7 DUP8 MSTORE PUSH2 0x120 DUP12 ADD SWAP8 DUP9 MSTORE PUSH1 0x1 PUSH2 0x140 DUP13 ADD MSTORE PUSH2 0x160 DUP12 ADD SWAP10 DUP10 DUP12 MSTORE PUSH2 0x180 DUP13 ADD SWAP12 DUP11 DUP14 MSTORE PUSH1 0xA0 PUSH1 0x1 DUP1 SWAP2 SHL SUB SWAP1 MLOAD AND PUSH1 0xA0 PUSH1 0x1 PUSH1 0x1 PUSH1 0x60 SHL SUB SWAP1 SHL PUSH1 0x2 SLOAD AND OR PUSH1 0x2 SSTORE PUSH1 0xA0 PUSH1 0x1 DUP1 SWAP2 SHL SUB SWAP1 MLOAD AND PUSH1 0xA0 PUSH1 0x1 PUSH1 0x1 PUSH1 0x60 SHL SUB SWAP1 SHL PUSH1 0x3 SLOAD AND OR PUSH1 0x3 SSTORE DUP16 PUSH1 0x1 DUP1 SWAP2 SHL SUB SWAP1 MLOAD AND DUP16 PUSH1 0x1 PUSH1 0x1 PUSH1 0x60 SHL SUB SWAP1 SHL PUSH1 0x4 SLOAD AND OR PUSH1 0x4 SSTORE MLOAD PUSH1 0x5 SSTORE MLOAD PUSH1 0x6 SSTORE MLOAD PUSH1 0x7 SSTORE MLOAD PUSH1 0x8 SSTORE MLOAD PUSH1 0x9 SSTORE MLOAD PUSH1 0xA SSTORE PUSH1 0x1 DUP1 DUP11 SHL SUB SWAP1 MLOAD AND PUSH1 0x1 PUSH1 0x1 PUSH1 0x60 SHL SUB DUP10 SHL PUSH1 0xB SLOAD AND OR PUSH1 0xB SSTORE POP PUSH1 0x1 DUP8 SHL PUSH1 0xFF DUP9 SHL NOT PUSH1 0xB SLOAD AND OR PUSH1 0xB SSTORE MLOAD ISZERO ISZERO PUSH1 0xB SLOAD SWAP1 PUSH1 0xFF PUSH1 0xA8 SHL SWAP1 PUSH1 0xA8 SHL AND SWAP1 PUSH1 0xFF PUSH1 0xA8 SHL NOT AND OR PUSH1 0xB SSTORE MLOAD ISZERO ISZERO PUSH1 0xB SLOAD SWAP1 PUSH1 0xFF PUSH1 0xB0 SHL SWAP1 PUSH1 0xB0 SHL AND SWAP1 PUSH1 0xFF PUSH1 0xB0 SHL NOT AND OR PUSH1 0xB SSTORE PUSH1 0x8 SLOAD SWAP3 PUSH1 0x40 MLOAD SWAP5 DUP6 MSTORE PUSH1 0x20 DUP6 ADD MSTORE PUSH1 0x40 DUP5 ADD MSTORE PUSH1 0x60 DUP4 ADD MSTORE PUSH1 0x80 DUP3 ADD MSTORE LOG1 STOP JUMPDEST PUSH4 0x4E487B71 PUSH1 0xE0 SHL DUP13 MSTORE PUSH1 0x41 PUSH1 0x4 MSTORE PUSH1 0x24 DUP13 REVERT JUMPDEST PUSH1 0x40 MLOAD PUSH3 0x461BCD PUSH1 0xE5 SHL DUP2 MSTORE PUSH1 0x20 PUSH1 0x4 DUP3 ADD MSTORE PUSH1 0x23 PUSH1 0x24 DUP3 ADD MSTORE PUSH32 0x4475726174696F6E73206D7573742062652067726561746572207468616E207A PUSH1 0x44 DUP3 ADD MSTORE PUSH3 0x65726F PUSH1 0xE8 SHL PUSH1 0x64 DUP3 ADD MSTORE PUSH1 0x84 SWAP1 REVERT JUMPDEST POP PUSH1 0xE4 CALLDATALOAD ISZERO ISZERO PUSH2 0x624 JUMP JUMPDEST PUSH1 0x40 MLOAD PUSH3 0x461BCD PUSH1 0xE5 SHL DUP2 MSTORE PUSH1 0x20 PUSH1 0x4 DUP3 ADD MSTORE PUSH1 0x21 PUSH1 0x24 DUP3 ADD MSTORE PUSH32 0x416D6F756E7473206D7573742062652067726561746572207468616E207A6572 PUSH1 0x44 DUP3 ADD MSTORE PUSH1 0x6F PUSH1 0xF8 SHL PUSH1 0x64 DUP3 ADD MSTORE PUSH1 0x84 SWAP1 REVERT JUMPDEST POP DUP4 ISZERO ISZERO PUSH2 0x616 JUMP JUMPDEST POP DUP5 ISZERO ISZERO PUSH2 0x610 JUMP JUMPDEST PUSH1 0x40 MLOAD PUSH3 0x461BCD PUSH1 0xE5 SHL DUP2 MSTORE PUSH1 0x20 PUSH1 0x4 DUP3 ADD MSTORE PUSH1 0x1B PUSH1 0x24 DUP3 ADD MSTORE PUSH32 0x416464726573736573206D75737420626520646966666572656E740000000000 PUSH1 0x44 DUP3 ADD MSTORE PUSH1 0x64 SWAP1 REVERT JUMPDEST POP DUP6 DUP9 EQ ISZERO PUSH2 0x602 JUMP JUMPDEST POP DUP6 DUP10 EQ ISZERO PUSH2 0x5FC JUMP JUMPDEST PUSH1 0x40 MLOAD PUSH3 0x461BCD PUSH1 0xE5 SHL DUP2 MSTORE PUSH1 0x20 PUSH1 0x4 DUP3 ADD MSTORE PUSH1 0x11 PUSH1 0x24 DUP3 ADD MSTORE PUSH17 0x496E76616C696420616464726573736573 PUSH1 0x78 SHL PUSH1 0x44 DUP3 ADD MSTORE PUSH1 0x64 SWAP1 REVERT JUMPDEST POP DUP6 ISZERO ISZERO PUSH2 0x5E3 JUMP JUMPDEST POP PUSH1 0x1 PUSH1 0x1 PUSH1 0xA0 SHL SUB DUP2 AND ISZERO ISZERO PUSH2 0x5DD JUMP JUMPDEST PUSH1 0x40 MLOAD PUSH3 0x461BCD PUSH1 0xE5 SHL DUP2 MSTORE PUSH1 0x20 PUSH1 0x4 DUP3 ADD MSTORE PUSH1 0x37 PUSH1 0x24 DUP3 ADD MSTORE PUSH32 0x43757272656E74207472616465206D75737420626520636F6D706C657465642C PUSH1 0x44 DUP3 ADD MSTORE PUSH32 0x2063616E63656C6C65642C206F7220696E616374697665000000000000000000 PUSH1 0x64 DUP3 ADD MSTORE PUSH1 0x84 SWAP1 REVERT JUMPDEST SWAP1 SWAP2 POP PUSH2 0x9EF JUMPI PUSH1 0x7 EQ CODESIZE DUP1 PUSH2 0x5CD JUMP JUMPDEST PUSH4 0x4E487B71 PUSH1 0xE0 SHL DUP12 MSTORE PUSH1 0x21 PUSH1 0x4 MSTORE PUSH1 0x24 DUP12 REVERT JUMPDEST POP PUSH1 0x5 DUP2 EQ SWAP2 POP DUP12 PUSH2 0x5C6 JUMP JUMPDEST PUSH4 0x4E487B71 PUSH1 0xE0 SHL DUP13 MSTORE PUSH1 0x21 PUSH1 0x4 MSTORE PUSH1 0x24 DUP13 REVERT JUMPDEST DUP10 DUP1 REVERT JUMPDEST DUP4 DUP1 REVERT JUMPDEST POP DUP1 PUSH1 0x3 NOT CALLDATASIZE ADD SLT PUSH2 0x21B JUMPI PUSH2 0xA40 PUSH2 0x1BEE JUMP JUMPDEST PUSH1 0xB SLOAD PUSH1 0xFF DUP2 PUSH1 0xA0 SHR AND PUSH1 0x8 DUP2 LT ISZERO PUSH2 0xBE9 JUMPI PUSH1 0x1 PUSH2 0xA5F SWAP2 EQ PUSH2 0x1A7D JUMP JUMPDEST PUSH1 0x2 SLOAD PUSH1 0x1 PUSH1 0x1 PUSH1 0xA0 SHL SUB AND CALLER SUB PUSH2 0xBAB JUMPI PUSH1 0xFF DUP2 PUSH1 0xA8 SHR AND PUSH2 0xB66 JUMPI PUSH2 0xA8A PUSH1 0x8 SLOAD TIMESTAMP GT ISZERO PUSH2 0x1AD5 JUMP JUMPDEST PUSH1 0x6 SLOAD CALLVALUE SUB PUSH2 0xB21 JUMPI PUSH1 0xFF PUSH1 0xA8 SHL NOT AND PUSH1 0x1 PUSH1 0xA8 SHL OR PUSH1 0xB DUP2 SWAP1 SSTORE PUSH1 0xB0 SHR PUSH1 0xFF AND PUSH2 0xAE6 JUMPI JUMPDEST PUSH32 0xB6551EAB5C9E624D74922ADEEDB1651D10C9366A370E1DE2CDB25F4D19354962 PUSH1 0x40 DUP1 MLOAD DUP4 DUP2 MSTORE CALLVALUE PUSH1 0x20 DUP3 ADD MSTORE LOG1 PUSH1 0x1 DUP2 SSTORE DUP1 RETURN JUMPDEST PUSH1 0xB DUP1 SLOAD PUSH1 0xFF PUSH1 0xA0 SHL NOT AND PUSH1 0x1 PUSH1 0xA1 SHL OR SWAP1 SSTORE PUSH2 0xE10 TIMESTAMP ADD DUP1 TIMESTAMP GT PUSH2 0xB0D JUMPI PUSH1 0x9 SSTORE PUSH2 0xAB0 JUMP JUMPDEST PUSH4 0x4E487B71 PUSH1 0xE0 SHL DUP3 MSTORE PUSH1 0x11 PUSH1 0x4 MSTORE PUSH1 0x24 DUP3 REVERT JUMPDEST PUSH1 0x40 MLOAD PUSH3 0x461BCD PUSH1 0xE5 SHL DUP2 MSTORE PUSH1 0x20 PUSH1 0x4 DUP3 ADD MSTORE PUSH1 0x1B PUSH1 0x24 DUP3 ADD MSTORE PUSH32 0x496E636F727265637420636F6C6C61746572616C20616D6F756E740000000000 PUSH1 0x44 DUP3 ADD MSTORE PUSH1 0x64 SWAP1 REVERT JUMPDEST PUSH1 0x40 MLOAD PUSH3 0x461BCD PUSH1 0xE5 SHL DUP2 MSTORE PUSH1 0x20 PUSH1 0x4 DUP3 ADD MSTORE PUSH1 0x17 PUSH1 0x24 DUP3 ADD MSTORE PUSH32 0x427579657220616C7265616479206465706F7369746564000000000000000000 PUSH1 0x44 DUP3 ADD MSTORE PUSH1 0x64 SWAP1 REVERT JUMPDEST PUSH1 0x40 MLOAD PUSH3 0x461BCD PUSH1 0xE5 SHL DUP2 MSTORE PUSH1 0x20 PUSH1 0x4 DUP3 ADD MSTORE PUSH1 0x16 PUSH1 0x24 DUP3 ADD MSTORE PUSH22 0x13DB9B1E48189D5E595C8818D85B8819195C1BDCDA5D PUSH1 0x52 SHL PUSH1 0x44 DUP3 ADD MSTORE PUSH1 0x64 SWAP1 REVERT JUMPDEST PUSH4 0x4E487B71 PUSH1 0xE0 SHL DUP4 MSTORE PUSH1 0x21 PUSH1 0x4 MSTORE PUSH1 0x24 DUP4 REVERT JUMPDEST POP CALLVALUE PUSH2 0x21B JUMPI DUP1 PUSH1 0x3 NOT CALLDATASIZE ADD SLT PUSH2 0x21B JUMPI PUSH2 0xC16 PUSH2 0x1BEE JUMP JUMPDEST PUSH1 0xFF PUSH1 0xB SLOAD PUSH1 0xA0 SHR AND PUSH1 0x8 DUP2 LT ISZERO DUP1 PUSH2 0xBE9 JUMPI PUSH1 0x1 DUP3 EQ DUP1 SWAP3 DUP2 ISZERO PUSH2 0xE9B JUMPI JUMPDEST DUP3 DUP3 ISZERO PUSH2 0xE76 JUMPI JUMPDEST POP POP ISZERO PUSH2 0xE1E JUMPI PUSH1 0x2 SLOAD PUSH1 0x1 PUSH1 0x1 PUSH1 0xA0 SHL SUB AND CALLER EQ DUP1 ISZERO PUSH2 0xE0A JUMPI JUMPDEST ISZERO PUSH2 0xDC5 JUMPI PUSH2 0x207 JUMPI ISZERO PUSH2 0xDB3 JUMPI PUSH1 0x8 SLOAD TIMESTAMP GT ISZERO PUSH2 0xD6E JUMPI JUMPDEST PUSH1 0xB DUP1 SLOAD PUSH1 0xFF PUSH1 0xA0 SHL NOT AND PUSH1 0x7 PUSH1 0xA0 SHL OR SWAP1 DUP2 SWAP1 SSTORE PUSH1 0xA8 SHR PUSH1 0xFF AND PUSH2 0xD39 JUMPI JUMPDEST PUSH1 0xFF PUSH1 0xB SLOAD PUSH1 0xB0 SHR AND PUSH2 0xCF8 JUMPI JUMPDEST PUSH32 0x370002A6887A4F27A9BC604366B017597E9702EB0D961626AF8E7101ACFA1897 PUSH1 0x80 PUSH1 0x40 MLOAD CALLER DUP2 MSTORE PUSH1 0x40 PUSH1 0x20 DUP3 ADD MSTORE PUSH1 0xF PUSH1 0x40 DUP3 ADD MSTORE PUSH15 0x111958591B1A5B99481B5A5CDCD959 PUSH1 0x8A SHL PUSH1 0x60 DUP3 ADD MSTORE LOG1 PUSH1 0x1 DUP2 SSTORE DUP1 RETURN JUMPDEST DUP1 DUP1 DUP1 DUP1 PUSH1 0x1 DUP1 PUSH1 0xA0 SHL SUB PUSH1 0x3 SLOAD AND PUSH2 0xD16 PUSH1 0x7 SLOAD PUSH1 0x5 SLOAD SWAP1 PUSH2 0x1B21 JUMP JUMPDEST SWAP1 DUP3 DUP3 ISZERO PUSH2 0xD30 JUMPI JUMPDEST CALL PUSH2 0xCA1 JUMPI PUSH1 0x40 MLOAD SWAP1 RETURNDATASIZE SWAP1 DUP3 RETURNDATACOPY RETURNDATASIZE SWAP1 REVERT JUMPDEST POP PUSH2 0x8FC PUSH2 0xD1F JUMP JUMPDEST DUP1 DUP1 DUP1 DUP1 PUSH1 0x1 DUP1 PUSH1 0xA0 SHL SUB PUSH1 0x2 SLOAD AND PUSH1 0x6 SLOAD SWAP1 DUP3 DUP3 ISZERO PUSH2 0xD65 JUMPI JUMPDEST CALL PUSH2 0xC93 JUMPI PUSH1 0x40 MLOAD SWAP1 RETURNDATASIZE SWAP1 DUP3 RETURNDATACOPY RETURNDATASIZE SWAP1 REVERT JUMPDEST POP PUSH2 0x8FC PUSH2 0xD54 JUMP JUMPDEST PUSH1 0x40 MLOAD PUSH3 0x461BCD PUSH1 0xE5 SHL DUP2 MSTORE PUSH1 0x20 PUSH1 0x4 DUP3 ADD MSTORE PUSH1 0x1B PUSH1 0x24 DUP3 ADD MSTORE PUSH32 0x4465706F73697420646561646C696E65206E6F74207061737365640000000000 PUSH1 0x44 DUP3 ADD MSTORE PUSH1 0x64 SWAP1 REVERT JUMPDEST PUSH2 0xDC0 PUSH1 0x9 SLOAD TIMESTAMP GT PUSH2 0x1B2E JUMP JUMPDEST PUSH2 0xC73 JUMP JUMPDEST PUSH1 0x40 MLOAD PUSH3 0x461BCD PUSH1 0xE5 SHL DUP2 MSTORE PUSH1 0x20 PUSH1 0x4 DUP3 ADD MSTORE PUSH1 0x1F PUSH1 0x24 DUP3 ADD MSTORE PUSH32 0x4F6E6C79206275796572206F722073656C6C65722063616E2063616E63656C00 PUSH1 0x44 DUP3 ADD MSTORE PUSH1 0x64 SWAP1 REVERT JUMPDEST POP PUSH1 0x3 SLOAD PUSH1 0x1 PUSH1 0x1 PUSH1 0xA0 SHL SUB AND CALLER EQ PUSH2 0xC5A JUMP JUMPDEST PUSH1 0x40 MLOAD PUSH3 0x461BCD PUSH1 0xE5 SHL DUP2 MSTORE PUSH1 0x20 PUSH1 0x4 DUP3 ADD MSTORE PUSH1 0x2A PUSH1 0x24 DUP3 ADD MSTORE PUSH32 0x54726164652063616E6E6F742062652063616E63656C6C656420696E20637572 PUSH1 0x44 DUP3 ADD MSTORE PUSH10 0x72656E74207374617465 PUSH1 0xB0 SHL PUSH1 0x64 DUP3 ADD MSTORE PUSH1 0x84 SWAP1 REVERT JUMPDEST SWAP1 SWAP2 POP PUSH2 0xE87 JUMPI PUSH1 0x3 EQ CODESIZE DUP3 PUSH2 0xC3E JUMP JUMPDEST PUSH4 0x4E487B71 PUSH1 0xE0 SHL DUP5 MSTORE PUSH1 0x21 PUSH1 0x4 MSTORE PUSH1 0x24 DUP5 REVERT JUMPDEST DUP5 SWAP3 POP PUSH1 0x2 DUP2 EQ SWAP2 POP PUSH2 0xC36 JUMP JUMPDEST POP CALLVALUE PUSH2 0x21B JUMPI DUP1 PUSH1 0x3 NOT CALLDATASIZE ADD SLT PUSH2 0x21B JUMPI PUSH1 0x1 SLOAD PUSH1 0x40 MLOAD PUSH1 0x1 PUSH1 0x1 PUSH1 0xA0 SHL SUB SWAP1 SWAP2 AND DUP2 MSTORE PUSH1 0x20 SWAP1 RETURN JUMPDEST POP CALLVALUE PUSH2 0x21B JUMPI PUSH1 0x40 CALLDATASIZE PUSH1 0x3 NOT ADD SLT PUSH2 0x21B JUMPI PUSH1 0x4 CALLDATALOAD PUSH1 0x2 DUP2 LT ISZERO DUP1 PUSH2 0x131D JUMPI PUSH1 0x24 CALLDATALOAD SWAP1 PUSH1 0x3 DUP3 LT ISZERO PUSH2 0xA28 JUMPI PUSH2 0xF06 PUSH2 0x1BEE JUMP JUMPDEST PUSH1 0xFF PUSH1 0xB SLOAD PUSH1 0xA0 SHR AND PUSH1 0x8 DUP2 LT ISZERO PUSH2 0x1309 JUMPI PUSH1 0x6 SUB PUSH2 0x12C4 JUMPI PUSH1 0x4 SLOAD PUSH1 0x1 PUSH1 0x1 PUSH1 0xA0 SHL SUB AND CALLER SUB PUSH2 0x1273 JUMPI DUP4 SWAP1 DUP3 ISZERO DUP1 ISZERO SWAP1 PUSH2 0x1267 JUMPI JUMPDEST ISZERO PUSH2 0x1214 JUMPI PUSH2 0xE87 JUMPI DUP3 ISZERO DUP1 ISZERO PUSH2 0x120D JUMPI PUSH1 0x5 JUMPDEST PUSH1 0x8 DUP2 LT ISZERO PUSH2 0x10F0 JUMPI PUSH1 0xB DUP1 SLOAD PUSH1 0xFF PUSH1 0xA0 SHL NOT AND PUSH1 0xA0 SWAP3 SWAP1 SWAP3 SHL PUSH1 0xFF PUSH1 0xA0 SHL AND SWAP2 SWAP1 SWAP2 OR SWAP1 SSTORE ISZERO PUSH2 0x1104 JUMPI PUSH1 0x5 SLOAD DUP2 PUSH2 0xF9A PUSH2 0x2710 PUSH2 0xF92 PUSH1 0xA SLOAD DUP6 PUSH2 0x1A47 JUMP JUMPDEST DIV DUP1 SWAP4 PUSH2 0x1A70 JUMP JUMPDEST SWAP1 PUSH2 0x10F0 JUMPI DUP6 SWAP2 SWAP1 PUSH1 0x1 DUP6 SUB PUSH2 0x1093 JUMPI DUP3 DUP1 DUP1 DUP1 PUSH1 0x1 DUP1 PUSH1 0xA0 SHL SUB PUSH1 0x3 SLOAD AND PUSH2 0xFC8 PUSH1 0x7 SLOAD PUSH1 0x6 SLOAD SWAP1 PUSH2 0x1B21 JUMP JUMPDEST SWAP1 DUP3 DUP3 ISZERO PUSH2 0x108A JUMPI JUMPDEST CALL ISZERO PUSH2 0x107F JUMPI PUSH1 0x2 SLOAD DUP4 SWAP2 DUP3 SWAP2 DUP3 SWAP2 DUP3 SWAP2 PUSH1 0x1 PUSH1 0x1 PUSH1 0xA0 SHL SUB AND DUP3 DUP3 ISZERO PUSH2 0x1076 JUMPI JUMPDEST CALL ISZERO PUSH2 0x1069 JUMPI DUP2 DUP1 DUP1 SWAP3 JUMPDEST PUSH1 0xB SLOAD PUSH1 0x1 PUSH1 0x1 PUSH1 0xA0 SHL SUB AND DUP3 DUP3 ISZERO PUSH2 0x1060 JUMPI JUMPDEST CALL ISZERO PUSH2 0x1055 JUMPI JUMPDEST PUSH1 0x40 MLOAD SWAP3 DUP4 MSTORE PUSH2 0xBE9 JUMPI DUP2 PUSH1 0x40 SWAP2 PUSH1 0x20 PUSH32 0x55E65F41A3E0A640327C69D9693E8FABF7EF17722890BB3CAEAFD908FBB5F86 SWAP5 ADD MSTORE LOG1 PUSH1 0x1 DUP2 SSTORE DUP1 RETURN JUMPDEST PUSH1 0x40 MLOAD RETURNDATASIZE DUP6 DUP3 RETURNDATACOPY RETURNDATASIZE SWAP1 REVERT JUMPDEST POP PUSH2 0x8FC PUSH2 0x1012 JUMP JUMPDEST POP PUSH1 0x40 MLOAD SWAP1 RETURNDATASIZE SWAP1 DUP3 RETURNDATACOPY RETURNDATASIZE SWAP1 REVERT JUMPDEST POP PUSH2 0x8FC PUSH2 0xFF3 JUMP JUMPDEST PUSH1 0x40 MLOAD RETURNDATASIZE DUP5 DUP3 RETURNDATACOPY RETURNDATASIZE SWAP1 REVERT JUMPDEST POP PUSH2 0x8FC PUSH2 0xFD1 JUMP JUMPDEST SWAP3 POP DUP2 DUP1 SWAP4 PUSH1 0x2 DUP7 EQ PUSH2 0x10AA JUMPI JUMPDEST POP DUP1 DUP1 SWAP3 PUSH2 0xFFE JUMP JUMPDEST DUP2 DUP1 DUP1 SWAP3 PUSH2 0x10D1 PUSH1 0x1 DUP1 PUSH1 0xA0 SHL SUB PUSH1 0x2 SLOAD AND SWAP2 PUSH2 0x10CC PUSH1 0x6 SLOAD PUSH1 0x7 SLOAD SWAP1 PUSH2 0x1B21 JUMP JUMPDEST PUSH2 0x1B21 JUMP JUMPDEST SWAP1 DUP3 DUP3 ISZERO PUSH2 0x10E7 JUMPI JUMPDEST CALL ISZERO PUSH2 0x1069 JUMPI DUP2 CODESIZE PUSH2 0x10A1 JUMP JUMPDEST POP PUSH2 0x8FC PUSH2 0x10DA JUMP JUMPDEST PUSH4 0x4E487B71 PUSH1 0xE0 SHL DUP7 MSTORE PUSH1 0x21 PUSH1 0x4 MSTORE PUSH1 0x24 DUP7 REVERT JUMPDEST POP DUP3 PUSH1 0x1 DUP3 SUB PUSH2 0x1156 JUMPI DUP4 DUP1 DUP1 DUP1 PUSH1 0x1 DUP1 PUSH1 0xA0 SHL SUB PUSH1 0x3 SLOAD AND PUSH2 0x1138 PUSH2 0x112F PUSH1 0x7 SLOAD PUSH1 0x6 SLOAD SWAP1 PUSH2 0x1B21 JUMP JUMPDEST PUSH1 0x5 SLOAD SWAP1 PUSH2 0x1B21 JUMP JUMPDEST SWAP1 DUP3 DUP3 ISZERO PUSH2 0x114D JUMPI JUMPDEST CALL ISZERO PUSH2 0x1055 JUMPI JUMPDEST PUSH2 0x1019 JUMP JUMPDEST POP PUSH2 0x8FC PUSH2 0x1141 JUMP JUMPDEST POP DUP3 PUSH1 0x2 DUP3 SUB PUSH2 0x11A3 JUMPI DUP4 DUP1 DUP1 DUP1 PUSH1 0x1 DUP1 PUSH1 0xA0 SHL SUB PUSH1 0x2 SLOAD AND PUSH2 0x1181 PUSH2 0x112F PUSH1 0x6 SLOAD PUSH1 0x7 SLOAD SWAP1 PUSH2 0x1B21 JUMP JUMPDEST SWAP1 DUP3 DUP3 ISZERO PUSH2 0x119A JUMPI JUMPDEST CALL PUSH2 0x1019 JUMPI PUSH1 0x40 MLOAD RETURNDATASIZE DUP6 DUP3 RETURNDATACOPY RETURNDATASIZE SWAP1 REVERT JUMPDEST POP PUSH2 0x8FC PUSH2 0x118A JUMP JUMPDEST DUP4 DUP1 DUP1 DUP1 PUSH1 0x1 DUP1 PUSH1 0xA0 SHL SUB PUSH1 0x2 SLOAD AND PUSH1 0x6 SLOAD SWAP1 DUP3 DUP3 ISZERO PUSH2 0x1204 JUMPI JUMPDEST CALL ISZERO PUSH2 0x1055 JUMPI DUP4 DUP1 DUP1 DUP1 PUSH1 0x1 DUP1 PUSH1 0xA0 SHL SUB PUSH1 0x3 SLOAD AND PUSH2 0x11E2 PUSH1 0x7 SLOAD PUSH1 0x5 SLOAD SWAP1 PUSH2 0x1B21 JUMP JUMPDEST SWAP1 DUP3 DUP3 ISZERO PUSH2 0x11FB JUMPI JUMPDEST CALL PUSH2 0x1148 JUMPI PUSH1 0x40 MLOAD RETURNDATASIZE DUP6 DUP3 RETURNDATACOPY RETURNDATASIZE SWAP1 REVERT JUMPDEST POP PUSH2 0x8FC PUSH2 0x11EB JUMP JUMPDEST POP PUSH2 0x8FC PUSH2 0x11BE JUMP JUMPDEST PUSH1 0x7 PUSH2 0xF51 JUMP JUMPDEST PUSH1 0x40 MLOAD PUSH3 0x461BCD PUSH1 0xE5 SHL DUP2 MSTORE PUSH1 0x20 PUSH1 0x4 DUP3 ADD MSTORE PUSH1 0x25 PUSH1 0x24 DUP3 ADD MSTORE PUSH32 0x50656E616C747920726571756972656420666F722072656C6561736520646563 PUSH1 0x44 DUP3 ADD MSTORE PUSH5 0x34B9B4B7B7 PUSH1 0xD9 SHL PUSH1 0x64 DUP3 ADD MSTORE PUSH1 0x84 SWAP1 REVERT JUMPDEST POP POP DUP4 PUSH1 0x1 DUP5 EQ PUSH2 0xF3D JUMP JUMPDEST PUSH1 0x40 MLOAD PUSH3 0x461BCD PUSH1 0xE5 SHL DUP2 MSTORE PUSH1 0x20 PUSH1 0x4 DUP3 ADD MSTORE PUSH1 0x23 PUSH1 0x24 DUP3 ADD MSTORE PUSH32 0x4F6E6C792061726269747261746F722063616E207265736F6C76652064697370 PUSH1 0x44 DUP3 ADD MSTORE PUSH3 0x757465 PUSH1 0xE8 SHL PUSH1 0x64 DUP3 ADD MSTORE PUSH1 0x84 SWAP1 REVERT JUMPDEST PUSH1 0x40 MLOAD PUSH3 0x461BCD PUSH1 0xE5 SHL DUP2 MSTORE PUSH1 0x20 PUSH1 0x4 DUP3 ADD MSTORE PUSH1 0x1B PUSH1 0x24 DUP3 ADD MSTORE PUSH32 0x5472616465206E6F7420696E2064697370757465642073746174650000000000 PUSH1 0x44 DUP3 ADD MSTORE PUSH1 0x64 SWAP1 REVERT JUMPDEST PUSH4 0x4E487B71 PUSH1 0xE0 SHL DUP6 MSTORE PUSH1 0x21 PUSH1 0x4 MSTORE PUSH1 0x24 DUP6 REVERT JUMPDEST DUP3 DUP1 REVERT JUMPDEST POP CALLVALUE PUSH2 0x21B JUMPI DUP1 PUSH1 0x3 NOT CALLDATASIZE ADD SLT PUSH2 0x21B JUMPI PUSH2 0x133A PUSH2 0x1BC5 JUMP JUMPDEST PUSH1 0x1 DUP1 SLOAD PUSH1 0x1 PUSH1 0x1 PUSH1 0xA0 SHL SUB NOT DUP2 AND SWAP1 SWAP2 SSTORE DUP2 SWAP1 PUSH1 0x1 PUSH1 0x1 PUSH1 0xA0 SHL SUB AND PUSH32 0x8BE0079C531659141344CD1FD0A4F28419497F9722A3DAAFE3B4186F6B6457E0 DUP3 DUP1 LOG3 DUP1 RETURN JUMPDEST POP CALLVALUE PUSH2 0x21B JUMPI DUP1 PUSH1 0x3 NOT CALLDATASIZE ADD SLT PUSH2 0x21B JUMPI PUSH2 0x1397 PUSH2 0x1BEE JUMP JUMPDEST PUSH1 0xFF PUSH1 0xB SLOAD PUSH1 0xA0 SHR AND PUSH1 0x8 DUP2 LT ISZERO SWAP1 DUP2 PUSH2 0xBE9 JUMPI PUSH1 0x2 DUP2 EQ SWAP2 DUP3 ISZERO PUSH2 0x1502 JUMPI JUMPDEST DUP3 ISZERO PUSH2 0x14F1 JUMPI JUMPDEST POP POP ISZERO PUSH2 0x149A JUMPI PUSH1 0x2 SLOAD PUSH1 0x1 PUSH1 0x1 PUSH1 0xA0 SHL SUB AND CALLER EQ DUP1 ISZERO PUSH2 0x1486 JUMPI JUMPDEST ISZERO PUSH2 0x1432 JUMPI PUSH2 0x13EC PUSH1 0x9 SLOAD TIMESTAMP GT PUSH2 0x1B2E JUMP JUMPDEST PUSH1 0xB DUP1 SLOAD PUSH1 0xFF PUSH1 0xA0 SHL NOT AND PUSH1 0x3 PUSH1 0xA1 SHL OR SWAP1 SSTORE PUSH1 0x40 MLOAD CALLER DUP2 MSTORE PUSH32 0xB3CD97B16A08A5C77357C276D248827AD32DFD56060F7C55D6255537BA3D962 SWAP1 PUSH1 0x20 SWAP1 LOG1 PUSH1 0x1 DUP2 SSTORE DUP1 RETURN JUMPDEST PUSH1 0x40 MLOAD PUSH3 0x461BCD PUSH1 0xE5 SHL DUP2 MSTORE PUSH1 0x20 PUSH1 0x4 DUP3 ADD MSTORE PUSH1 0x26 PUSH1 0x24 DUP3 ADD MSTORE PUSH32 0x4F6E6C79206275796572206F722073656C6C65722063616E2072616973652064 PUSH1 0x44 DUP3 ADD MSTORE PUSH6 0x697370757465 PUSH1 0xD0 SHL PUSH1 0x64 DUP3 ADD MSTORE PUSH1 0x84 SWAP1 REVERT JUMPDEST POP PUSH1 0x3 SLOAD PUSH1 0x1 PUSH1 0x1 PUSH1 0xA0 SHL SUB AND CALLER EQ PUSH2 0x13DA JUMP JUMPDEST PUSH1 0x40 MLOAD PUSH3 0x461BCD PUSH1 0xE5 SHL DUP2 MSTORE PUSH1 0x20 PUSH1 0x4 DUP3 ADD MSTORE PUSH1 0x29 PUSH1 0x24 DUP3 ADD MSTORE PUSH32 0x54726164652063616E6E6F7420626520646973707574656420696E2063757272 PUSH1 0x44 DUP3 ADD MSTORE PUSH9 0x656E74207374617465 PUSH1 0xB8 SHL PUSH1 0x64 DUP3 ADD MSTORE PUSH1 0x84 SWAP1 REVERT JUMPDEST SWAP1 SWAP2 POP PUSH2 0x207 JUMPI PUSH1 0x4 EQ CODESIZE DUP1 PUSH2 0x13BE JUMP JUMPDEST POP PUSH1 0x3 DUP2 EQ SWAP2 POP DUP3 PUSH2 0x13B7 JUMP JUMPDEST POP DUP1 PUSH1 0x3 NOT CALLDATASIZE ADD SLT PUSH2 0x21B JUMPI PUSH2 0x1523 PUSH2 0x1BEE JUMP JUMPDEST PUSH1 0xB SLOAD PUSH1 0xFF DUP2 PUSH1 0xA0 SHR AND PUSH1 0x8 DUP2 LT ISZERO PUSH2 0xBE9 JUMPI PUSH1 0x1 PUSH2 0x1542 SWAP2 EQ PUSH2 0x1A7D JUMP JUMPDEST PUSH1 0x3 SLOAD PUSH1 0x1 PUSH1 0x1 PUSH1 0xA0 SHL SUB AND CALLER SUB PUSH2 0x167E JUMPI PUSH1 0xFF DUP2 PUSH1 0xB0 SHR AND PUSH2 0x1639 JUMPI PUSH2 0x156D PUSH1 0x8 SLOAD TIMESTAMP GT ISZERO PUSH2 0x1AD5 JUMP JUMPDEST PUSH2 0x157C PUSH1 0x5 SLOAD PUSH1 0x7 SLOAD SWAP1 PUSH2 0x1B21 JUMP JUMPDEST CALLVALUE SUB PUSH2 0x1601 JUMPI PUSH1 0xFF PUSH1 0xB0 SHL NOT AND PUSH1 0x1 PUSH1 0xB0 SHL OR PUSH1 0xB DUP2 SWAP1 SSTORE PUSH1 0xA8 SHR PUSH1 0xFF AND PUSH2 0x15DA JUMPI JUMPDEST PUSH32 0x2B0627072D198D1CBEDBE793E8752F932B4AD8D6C9729451695E1C5ADC8B276D PUSH1 0x40 PUSH1 0x5 SLOAD PUSH1 0x7 SLOAD DUP3 MLOAD SWAP2 DUP3 MSTORE PUSH1 0x20 DUP3 ADD MSTORE LOG1 PUSH1 0x1 DUP2 SSTORE DUP1 RETURN JUMPDEST PUSH1 0xB DUP1 SLOAD PUSH1 0xFF PUSH1 0xA0 SHL NOT AND PUSH1 0x1 PUSH1 0xA1 SHL OR SWAP1 SSTORE PUSH2 0xE10 TIMESTAMP ADD DUP1 TIMESTAMP GT PUSH2 0xB0D JUMPI PUSH1 0x9 SSTORE PUSH2 0x159F JUMP JUMPDEST PUSH1 0x40 MLOAD PUSH3 0x461BCD PUSH1 0xE5 SHL DUP2 MSTORE PUSH1 0x20 PUSH1 0x4 DUP3 ADD MSTORE PUSH1 0x10 PUSH1 0x24 DUP3 ADD MSTORE PUSH16 0x125B98DBDC9C9958DD08185B5BDD5B9D PUSH1 0x82 SHL PUSH1 0x44 DUP3 ADD MSTORE PUSH1 0x64 SWAP1 REVERT JUMPDEST PUSH1 0x40 MLOAD PUSH3 0x461BCD PUSH1 0xE5 SHL DUP2 MSTORE PUSH1 0x20 PUSH1 0x4 DUP3 ADD MSTORE PUSH1 0x18 PUSH1 0x24 DUP3 ADD MSTORE PUSH32 0x53656C6C657220616C7265616479206465706F73697465640000000000000000 PUSH1 0x44 DUP3 ADD MSTORE PUSH1 0x64 SWAP1 REVERT JUMPDEST PUSH1 0x40 MLOAD PUSH3 0x461BCD PUSH1 0xE5 SHL DUP2 MSTORE PUSH1 0x20 PUSH1 0x4 DUP3 ADD MSTORE PUSH1 0x17 PUSH1 0x24 DUP3 ADD MSTORE PUSH32 0x4F6E6C792073656C6C65722063616E206465706F736974000000000000000000 PUSH1 0x44 DUP3 ADD MSTORE PUSH1 0x64 SWAP1 REVERT JUMPDEST POP CALLVALUE PUSH2 0x21B JUMPI DUP1 PUSH1 0x3 NOT CALLDATASIZE ADD SLT PUSH2 0x21B JUMPI PUSH2 0x16DC PUSH2 0x1BEE JUMP JUMPDEST PUSH1 0xFF PUSH1 0xB SLOAD PUSH1 0xA0 SHR AND PUSH1 0x8 DUP2 LT ISZERO PUSH2 0x207 JUMPI PUSH1 0x4 SUB PUSH2 0x1880 JUMPI PUSH1 0x3 SLOAD PUSH1 0x1 PUSH1 0x1 PUSH1 0xA0 SHL SUB AND CALLER SUB PUSH2 0x1830 JUMPI PUSH1 0x5 SLOAD DUP2 PUSH2 0x171D PUSH2 0x2710 PUSH2 0xF92 PUSH1 0xA SLOAD DUP6 PUSH2 0x1A47 JUMP JUMPDEST PUSH1 0xB DUP1 SLOAD PUSH1 0xFF PUSH1 0xA0 SHL NOT AND PUSH1 0x5 PUSH1 0xA0 SHL OR SWAP1 SSTORE PUSH1 0x2 SLOAD PUSH1 0x6 SLOAD SWAP2 SWAP4 SWAP2 DUP4 SWAP2 DUP3 SWAP2 DUP3 SWAP2 DUP3 SWAP2 SWAP1 PUSH1 0x1 PUSH1 0x1 PUSH1 0xA0 SHL SUB AND DUP3 DUP3 ISZERO PUSH2 0x1827 JUMPI JUMPDEST CALL ISZERO PUSH2 0x1069 JUMPI DUP2 DUP1 DUP1 DUP1 PUSH1 0x1 DUP1 PUSH1 0xA0 SHL SUB PUSH1 0x3 SLOAD AND PUSH1 0x7 SLOAD SWAP1 DUP3 DUP3 ISZERO PUSH2 0x181E JUMPI JUMPDEST CALL ISZERO PUSH2 0x1069 JUMPI DUP2 DUP1 DUP1 DUP1 DUP7 PUSH1 0x1 DUP1 PUSH1 0xA0 SHL SUB PUSH1 0x2 SLOAD AND DUP3 DUP3 ISZERO PUSH2 0x1815 JUMPI JUMPDEST CALL ISZERO PUSH2 0x1069 JUMPI PUSH1 0xB SLOAD DUP3 SWAP2 DUP3 SWAP2 DUP3 SWAP2 SWAP1 PUSH1 0x1 PUSH1 0x1 PUSH1 0xA0 SHL SUB AND DUP3 DUP3 ISZERO PUSH2 0x180C JUMPI JUMPDEST CALL ISZERO PUSH2 0x1069 JUMPI PUSH1 0x2 SLOAD PUSH1 0x3 SLOAD PUSH1 0x40 DUP1 MLOAD PUSH1 0x1 PUSH1 0x1 PUSH1 0xA0 SHL SUB SWAP4 DUP5 AND DUP2 MSTORE SWAP3 SWAP1 SWAP2 AND PUSH1 0x20 DUP4 ADD MSTORE DUP2 ADD SWAP2 SWAP1 SWAP2 MSTORE PUSH32 0xE675A546C1992CDF86A6D4A0E4E2928DC0DE8237B8DC9349B701FB13FFF810AC SWAP1 PUSH1 0x60 SWAP1 LOG1 PUSH1 0x1 DUP2 SSTORE DUP1 RETURN JUMPDEST POP PUSH2 0x8FC PUSH2 0x17B3 JUMP JUMPDEST POP PUSH2 0x8FC PUSH2 0x1792 JUMP JUMPDEST POP PUSH2 0x8FC PUSH2 0x1774 JUMP JUMPDEST POP PUSH2 0x8FC PUSH2 0x1753 JUMP JUMPDEST PUSH1 0x40 MLOAD PUSH3 0x461BCD PUSH1 0xE5 SHL DUP2 MSTORE PUSH1 0x20 PUSH1 0x4 DUP3 ADD MSTORE PUSH1 0x22 PUSH1 0x24 DUP3 ADD MSTORE PUSH32 0x4F6E6C792073656C6C65722063616E20636F6D706C6574652074686520747261 PUSH1 0x44 DUP3 ADD MSTORE PUSH2 0x6465 PUSH1 0xF0 SHL PUSH1 0x64 DUP3 ADD MSTORE PUSH1 0x84 SWAP1 REVERT JUMPDEST PUSH1 0x40 MLOAD PUSH3 0x461BCD PUSH1 0xE5 SHL DUP2 MSTORE PUSH1 0x20 PUSH1 0x4 DUP3 ADD MSTORE PUSH1 0x1B PUSH1 0x24 DUP3 ADD MSTORE PUSH32 0x46696174206D7573742062652072656365697665642066697273740000000000 PUSH1 0x44 DUP3 ADD MSTORE PUSH1 0x64 SWAP1 REVERT JUMPDEST POP CALLVALUE PUSH2 0x21B JUMPI DUP1 PUSH1 0x3 NOT CALLDATASIZE ADD SLT PUSH2 0x21B JUMPI PUSH1 0x20 PUSH1 0x40 MLOAD PUSH2 0x2710 DUP2 MSTORE RETURN JUMPDEST POP CALLVALUE PUSH2 0x21B JUMPI PUSH1 0x40 CALLDATASIZE PUSH1 0x3 NOT ADD SLT PUSH2 0x21B JUMPI PUSH32 0x7CFAD8B150BE9751A5386CC4E0F549618032FF63D14FAB4F77CD4B0AAAEDC242 PUSH1 0x40 PUSH1 0x4 CALLDATALOAD PUSH2 0x1922 PUSH2 0x1971 JUMP JUMPDEST PUSH2 0x192A PUSH2 0x1BC5 JUMP JUMPDEST PUSH2 0x1937 PUSH2 0x2710 DUP4 LT PUSH2 0x19AF JUMP JUMPDEST PUSH1 0x1 PUSH1 0x1 PUSH1 0xA0 SHL SUB AND PUSH2 0x194B DUP2 ISZERO ISZERO PUSH2 0x19FB JUMP JUMPDEST DUP2 PUSH1 0xA SSTORE DUP1 PUSH1 0x1 PUSH1 0x1 PUSH1 0x60 SHL SUB PUSH1 0xA0 SHL PUSH1 0xB SLOAD AND OR PUSH1 0xB SSTORE DUP3 MLOAD SWAP2 DUP3 MSTORE PUSH1 0x20 DUP3 ADD MSTORE LOG1 DUP1 RETURN JUMPDEST PUSH1 0x24 CALLDATALOAD SWAP1 PUSH1 0x1 PUSH1 0x1 PUSH1 0xA0 SHL SUB DUP3 AND DUP3 SUB PUSH2 0x1987 JUMPI JUMP JUMPDEST PUSH1 0x0 DUP1 REVERT JUMPDEST SWAP1 PUSH1 0x8 DUP3 LT ISZERO PUSH2 0x1999 JUMPI MSTORE JUMP JUMPDEST PUSH4 0x4E487B71 PUSH1 0xE0 SHL PUSH1 0x0 MSTORE PUSH1 0x21 PUSH1 0x4 MSTORE PUSH1 0x24 PUSH1 0x0 REVERT JUMPDEST ISZERO PUSH2 0x19B6 JUMPI JUMP JUMPDEST PUSH1 0x40 MLOAD PUSH3 0x461BCD PUSH1 0xE5 SHL DUP2 MSTORE PUSH1 0x20 PUSH1 0x4 DUP3 ADD MSTORE PUSH1 0x1F PUSH1 0x24 DUP3 ADD MSTORE PUSH32 0x4665652072617465206D757374206265206C657373207468616E203130302500 PUSH1 0x44 DUP3 ADD MSTORE PUSH1 0x64 SWAP1 REVERT JUMPDEST ISZERO PUSH2 0x1A02 JUMPI JUMP JUMPDEST PUSH1 0x40 MLOAD PUSH3 0x461BCD PUSH1 0xE5 SHL DUP2 MSTORE PUSH1 0x20 PUSH1 0x4 DUP3 ADD MSTORE PUSH1 0x17 PUSH1 0x24 DUP3 ADD MSTORE PUSH32 0x496E76616C696420706C6174666F726D2077616C6C6574000000000000000000 PUSH1 0x44 DUP3 ADD MSTORE PUSH1 0x64 SWAP1 REVERT JUMPDEST DUP2 DUP2 MUL SWAP3 SWAP2 DUP2 ISZERO SWAP2 DUP5 DIV EQ OR ISZERO PUSH2 0x1A5A JUMPI JUMP JUMPDEST PUSH4 0x4E487B71 PUSH1 0xE0 SHL PUSH1 0x0 MSTORE PUSH1 0x11 PUSH1 0x4 MSTORE PUSH1 0x24 PUSH1 0x0 REVERT JUMPDEST SWAP2 SWAP1 DUP3 SUB SWAP2 DUP3 GT PUSH2 0x1A5A JUMPI JUMP JUMPDEST ISZERO PUSH2 0x1A84 JUMPI JUMP JUMPDEST PUSH1 0x40 MLOAD PUSH3 0x461BCD PUSH1 0xE5 SHL DUP2 MSTORE PUSH1 0x20 PUSH1 0x4 DUP3 ADD MSTORE PUSH1 0x24 DUP1 DUP3 ADD MSTORE PUSH32 0x5472616465206E6F7420696E206177616974696E67206465706F736974732073 PUSH1 0x44 DUP3 ADD MSTORE PUSH4 0x74617465 PUSH1 0xE0 SHL PUSH1 0x64 DUP3 ADD MSTORE PUSH1 0x84 SWAP1 REVERT JUMPDEST ISZERO PUSH2 0x1ADC JUMPI JUMP JUMPDEST PUSH1 0x40 MLOAD PUSH3 0x461BCD PUSH1 0xE5 SHL DUP2 MSTORE PUSH1 0x20 PUSH1 0x4 DUP3 ADD MSTORE PUSH1 0x17 PUSH1 0x24 DUP3 ADD MSTORE PUSH32 0x4465706F73697420646561646C696E6520706173736564000000000000000000 PUSH1 0x44 DUP3 ADD MSTORE PUSH1 0x64 SWAP1 REVERT JUMPDEST SWAP2 SWAP1 DUP3 ADD DUP1 SWAP3 GT PUSH2 0x1A5A JUMPI JUMP JUMPDEST ISZERO PUSH2 0x1B35 JUMPI JUMP JUMPDEST PUSH1 0x64 PUSH1 0x40 MLOAD PUSH3 0x461BCD PUSH1 0xE5 SHL DUP2 MSTORE PUSH1 0x20 PUSH1 0x4 DUP3 ADD MSTORE PUSH1 0x20 PUSH1 0x24 DUP3 ADD MSTORE PUSH32 0x436F6E6669726D6174696F6E20646561646C696E65206E6F7420706173736564 PUSH1 0x44 DUP3 ADD MSTORE REVERT JUMPDEST ISZERO PUSH2 0x1B80 JUMPI JUMP JUMPDEST PUSH1 0x40 MLOAD PUSH3 0x461BCD PUSH1 0xE5 SHL DUP2 MSTORE PUSH1 0x20 PUSH1 0x4 DUP3 ADD MSTORE PUSH1 0x1C PUSH1 0x24 DUP3 ADD MSTORE PUSH32 0x436F6E6669726D6174696F6E20646561646C696E652070617373656400000000 PUSH1 0x44 DUP3 ADD MSTORE PUSH1 0x64 SWAP1 REVERT JUMPDEST PUSH1 0x1 SLOAD PUSH1 0x1 PUSH1 0x1 PUSH1 0xA0 SHL SUB AND CALLER SUB PUSH2 0x1BD9 JUMPI JUMP JUMPDEST PUSH4 0x118CDAA7 PUSH1 0xE0 SHL PUSH1 0x0 MSTORE CALLER PUSH1 0x4 MSTORE PUSH1 0x24 PUSH1 0x0 REVERT JUMPDEST PUSH1 0x2 PUSH1 0x0 SLOAD EQ PUSH2 0x1BFF JUMPI PUSH1 0x2 PUSH1 0x0 SSTORE JUMP JUMPDEST PUSH4 0x3EE5AEB5 PUSH1 0xE0 SHL PUSH1 0x0 MSTORE PUSH1 0x4 PUSH1 0x0 REVERT INVALID LOG2 PUSH5 0x6970667358 0x22 SLT KECCAK256 REVERT PUSH1 0x95 SMOD 0xA8 REVERT 0x29 0xF7 0xC5 SWAP11 0xFB 0xCF 0xAE RETURNDATACOPY PUSH20 0x804902D3D9ACA4108F570F7E94925B47D864736F PUSH13 0x634300081C0033000000000000 "},"methodIdentifiers":{"BASIS_POINTS_DIVISOR()":"126082cf","buyerDeposit()":"a0579587","cancelTrade()":"9c76230c","completeTrade()":"234d442b","confirmFiatReceived()":"fdfff32f","confirmFiatSent()":"e50bed57","currentTrade()":"d81f337c","getTradeDetails()":"be444a68","getTradeState()":"be43bef5","initTrade(address,address,address,uint256,uint256,uint256,uint256,uint256,uint256,address)":"bb96d6c2","owner()":"8da5cb5b","raiseDispute()":"6daa2d44","renounceOwnership()":"715018a6","resolveDispute(uint8,uint8)":"72e1ab94","sellerDeposit()":"4c1786ea","transferOwnership(address)":"f2fde38b","updateFeeSettings(uint256,address)":"10509aa9"}}}}}