{"contracts/Escrow1.sol":{"Escrow":{"abi":[{"inputs":[],"stateMutability":"nonpayable","type":"constructor"},{"inputs":[{"internalType":"address","name":"owner","type":"address"}],"name":"OwnableInvalidOwner","type":"error"},{"inputs":[{"internalType":"address","name":"account","type":"address"}],"name":"OwnableUnauthorizedAccount","type":"error"},{"anonymous":false,"inputs":[{"indexed":false,"internalType":"address","name":"oldArbitrator","type":"address"},{"indexed":false,"internalType":"address","name":"newArbitrator","type":"address"}],"name":"ArbitratorUpdated","type":"event"},{"anonymous":false,"inputs":[{"indexed":true,"internalType":"address","name":"party","type":"address"},{"indexed":false,"internalType":"uint256","name":"amount","type":"uint256"}],"name":"Deposited","type":"event"},{"anonymous":false,"inputs":[],"name":"DisputeEscalated","type":"event"},{"anonymous":false,"inputs":[],"name":"DisputeRaised","type":"event"},{"anonymous":false,"inputs":[{"indexed":false,"internalType":"bool","name":"tradeReleased","type":"bool"},{"indexed":false,"internalType":"uint8","name":"penalizedParty","type":"uint8"}],"name":"DisputeResolved","type":"event"},{"anonymous":false,"inputs":[{"indexed":false,"internalType":"uint256","name":"newFeeRate","type":"uint256"},{"indexed":false,"internalType":"address","name":"newPlatformWallet","type":"address"}],"name":"FeeUpdated","type":"event"},{"anonymous":false,"inputs":[{"indexed":true,"internalType":"address","name":"seller","type":"address"}],"name":"FiatReceivedConfirmed","type":"event"},{"anonymous":false,"inputs":[{"indexed":true,"internalType":"address","name":"buyer","type":"address"}],"name":"FiatSentConfirmed","type":"event"},{"anonymous":false,"inputs":[{"indexed":true,"internalType":"address","name":"previousOwner","type":"address"},{"indexed":true,"internalType":"address","name":"newOwner","type":"address"}],"name":"OwnershipTransferred","type":"event"},{"anonymous":false,"inputs":[],"name":"TradeCancelled","type":"event"},{"anonymous":false,"inputs":[{"indexed":false,"internalType":"address","name":"buyer","type":"address"},{"indexed":false,"internalType":"address","name":"seller","type":"address"},{"indexed":false,"internalType":"address","name":"arbitrator","type":"address"},{"indexed":false,"internalType":"uint256","name":"depositDeadline","type":"uint256"},{"indexed":false,"internalType":"uint256","name":"confirmationDuration","type":"uint256"},{"indexed":false,"internalType":"uint256","name":"disputeTimeout","type":"uint256"},{"indexed":false,"internalType":"uint256","name":"feeRate","type":"uint256"},{"indexed":false,"internalType":"address","name":"platformWallet","type":"address"}],"name":"TradeInitialized","type":"event"},{"anonymous":false,"inputs":[{"indexed":false,"internalType":"uint256","name":"cryptoTransferred","type":"uint256"},{"indexed":false,"internalType":"uint256","name":"buyerRefund","type":"uint256"},{"indexed":false,"internalType":"uint256","name":"sellerRefund","type":"uint256"}],"name":"TradeReleased","type":"event"},{"inputs":[],"name":"arbitrator","outputs":[{"internalType":"address","name":"","type":"address"}],"stateMutability":"view","type":"function"},{"inputs":[],"name":"buyer","outputs":[{"internalType":"address payable","name":"","type":"address"}],"stateMutability":"view","type":"function"},{"inputs":[],"name":"buyerCollateral","outputs":[{"internalType":"uint256","name":"","type":"uint256"}],"stateMutability":"view","type":"function"},{"inputs":[],"name":"buyerDeposited","outputs":[{"internalType":"bool","name":"","type":"bool"}],"stateMutability":"view","type":"function"},{"inputs":[],"name":"cancelTrade","outputs":[],"stateMutability":"nonpayable","type":"function"},{"inputs":[],"name":"confirmFiatReceived","outputs":[],"stateMutability":"nonpayable","type":"function"},{"inputs":[],"name":"confirmFiatSent","outputs":[],"stateMutability":"nonpayable","type":"function"},{"inputs":[],"name":"confirmationDeadline","outputs":[{"internalType":"uint256","name":"","type":"uint256"}],"stateMutability":"view","type":"function"},{"inputs":[],"name":"confirmationDuration","outputs":[{"internalType":"uint256","name":"","type":"uint256"}],"stateMutability":"view","type":"function"},{"inputs":[],"name":"cryptoAmount","outputs":[{"internalType":"uint256","name":"","type":"uint256"}],"stateMutability":"view","type":"function"},{"inputs":[],"name":"depositByBuyer","outputs":[],"stateMutability":"payable","type":"function"},{"inputs":[],"name":"depositBySeller","outputs":[],"stateMutability":"payable","type":"function"},{"inputs":[],"name":"depositDeadline","outputs":[{"internalType":"uint256","name":"","type":"uint256"}],"stateMutability":"view","type":"function"},{"inputs":[],"name":"disputeRaisedAt","outputs":[{"internalType":"uint256","name":"","type":"uint256"}],"stateMutability":"view","type":"function"},{"inputs":[],"name":"disputeTimeout","outputs":[{"internalType":"uint256","name":"","type":"uint256"}],"stateMutability":"view","type":"function"},{"inputs":[],"name":"escalateDispute","outputs":[],"stateMutability":"nonpayable","type":"function"},{"inputs":[],"name":"feeRate","outputs":[{"internalType":"uint256","name":"","type":"uint256"}],"stateMutability":"view","type":"function"},{"inputs":[],"name":"fiatReceivedConfirmed","outputs":[{"internalType":"bool","name":"","type":"bool"}],"stateMutability":"view","type":"function"},{"inputs":[],"name":"fiatSentConfirmed","outputs":[{"internalType":"bool","name":"","type":"bool"}],"stateMutability":"view","type":"function"},{"inputs":[{"internalType":"address payable","name":"_buyer","type":"address"},{"internalType":"address payable","name":"_seller","type":"address"},{"internalType":"address","name":"_arbitrator","type":"address"},{"internalType":"uint256","name":"_cryptoAmount","type":"uint256"},{"internalType":"uint256","name":"_buyerCollateral","type":"uint256"},{"internalType":"uint256","name":"_sellerCollateral","type":"uint256"},{"internalType":"uint256","name":"depositDuration","type":"uint256"},{"internalType":"uint256","name":"_confirmationDuration","type":"uint256"},{"internalType":"uint256","name":"_disputeTimeout","type":"uint256"},{"internalType":"uint256","name":"_feeRate","type":"uint256"},{"internalType":"address","name":"_platformWallet","type":"address"}],"name":"initTrade","outputs":[],"stateMutability":"nonpayable","type":"function"},{"inputs":[],"name":"owner","outputs":[{"internalType":"address","name":"","type":"address"}],"stateMutability":"view","type":"function"},{"inputs":[],"name":"platformWallet","outputs":[{"internalType":"address","name":"","type":"address"}],"stateMutability":"view","type":"function"},{"inputs":[],"name":"raiseDispute","outputs":[],"stateMutability":"nonpayable","type":"function"},{"inputs":[],"name":"releaseTrade","outputs":[],"stateMutability":"nonpayable","type":"function"},{"inputs":[],"name":"renounceOwnership","outputs":[],"stateMutability":"nonpayable","type":"function"},{"inputs":[{"internalType":"bool","name":"decision","type":"bool"},{"internalType":"uint8","name":"penalizedParty","type":"uint8"}],"name":"resolveDispute","outputs":[],"stateMutability":"nonpayable","type":"function"},{"inputs":[],"name":"seller","outputs":[{"internalType":"address payable","name":"","type":"address"}],"stateMutability":"view","type":"function"},{"inputs":[],"name":"sellerCollateral","outputs":[{"internalType":"uint256","name":"","type":"uint256"}],"stateMutability":"view","type":"function"},{"inputs":[],"name":"sellerDeposited","outputs":[{"internalType":"bool","name":"","type":"bool"}],"stateMutability":"view","type":"function"},{"inputs":[{"internalType":"uint256","name":"_feeRate","type":"uint256"},{"internalType":"address","name":"_platformWallet","type":"address"}],"name":"setFeeAndWallet","outputs":[],"stateMutability":"nonpayable","type":"function"},{"inputs":[],"name":"tradeState","outputs":[{"internalType":"enum Escrow.State","name":"","type":"uint8"}],"stateMutability":"view","type":"function"},{"inputs":[{"internalType":"address","name":"newOwner","type":"address"}],"name":"transferOwnership","outputs":[],"stateMutability":"nonpayable","type":"function"},{"inputs":[{"internalType":"address","name":"_newArbitrator","type":"address"}],"name":"updateArbitrator","outputs":[],"stateMutability":"nonpayable","type":"function"}],"evm":{"bytecode":{"linkReferences":{},"object":"608080604052346084573315606e5760008054336001600160a01b0319821681178355916001600160a01b03909116907f8be0079c531659141344cd1fd0a4f28419497f9722a3daafe3b4186f6b6457e09080a365ff000000000019600d5416600d55611bcc908161008a8239f35b631e4fbdf760e01b600052600060045260246000fd5b600080fdfe6080604052600436101561001257600080fd5b60003560e01c8063055c34e81461158a57806308551a53146115615780631cfd77be146113b257806323f64d3714611394578063365767ba14611376578063493acc39146113585780634b0e7297146112e45780635305369b146112be57806361603d89146112a05780636cc6cde1146112775780636daa2d4414611182578063715018a6146111295780637150d8ae146111005780637c148952146110dd578063864e1827146110b057806389388d8d14610f135780638da5cb5b14610eea5780638f8b252e14610ec4578063978bbdb914610ea65780639c76230c14610cb4578063ad792f5e14610c96578063b5655bcf14610c70578063b7366d7714610956578063b95d8dd414610938578063bffc243d146108c7578063c04c22a4146108a9578063c57b3fb31461088b578063d362903c14610698578063dea9851c14610440578063e50bed5714610352578063f2fde38b146102c9578063fa2af9da146102a05763fdfff32f1461018757600080fd5b3461029b57600036600319011261029b57600d546101ab60ff8260201c1615611749565b600160201b60ff60201b198216179060ff8260281c1660068110156102855760026101d69114611a93565b6002546001600160a01b031633819003610232576101ff60ff63010000009460181c1615611adf565b7f6b2c9fa80d446f2b6e443df8d2a860e6008e348cc6979dea036085bdf869db32600080a264ffff000000191617600d55005b60405162461bcd60e51b815260206004820152602560248201527f4f6e6c792073656c6c65722063616e20636f6e6669726d206669617420726563604482015264195a5d995960da1b6064820152608490fd5b634e487b7160e01b600052602160045260246000fd5b600080fd5b3461029b57600036600319011261029b576004546040516001600160a01b039091168152602090f35b3461029b57602036600319011261029b576102e2611733565b6102ea611b6d565b6001600160a01b0316801561033c57600080546001600160a01b03198116831782556001600160a01b0316907f8be0079c531659141344cd1fd0a4f28419497f9722a3daafe3b4186f6b6457e09080a3005b631e4fbdf760e01b600052600060045260246000fd5b3461029b57600036600319011261029b57600d5461037660ff8260201c1615611749565b600160201b60ff60201b198216179060ff8260281c1660068110156102855760026103a19114611a93565b6001546001600160a01b0316338190036103fc576103c960ff620100009460101c1615611adf565b7fcd7e426ba936d76f601dfa9030a193626ac37a0a98adfe1d1b23168c53df9ebb600080a264ff00ff0000191617600d55005b606460405162461bcd60e51b815260206004820152602060248201527f4f6e6c792062757965722063616e20636f6e6669726d20666961742073656e746044820152fd5b3461029b57600036600319011261029b57600160201b600d5461046960ff8260201c1615611749565b60ff60201b19161780600d5560ff8160281c16600681101561028557600203610653576002546001600160a01b0316330361060e5760ff8160101c169081610600575b50156105bb576104cc6504000000000060ff60281b19600d541617600d55565b61056e6000808080600654610552828080806105046104fb6127106104f36005548a61198f565b0480986119a2565b6007549061181d565b95610536828080806008549b61ffff19600d5416600d5560018060a01b03600154165af1610530611896565b506119af565b6004546001600160a01b03165af161054c611896565b506119fb565b6002546001600160a01b03165af1610568611896565b50611a47565b7facee75a3d26f10af63bea7a4089c22d34b1d953bdc674c1f6acd937250ac2bea60606006546007546008549060405192835260208301526040820152a1600d805460ff60201b19169055005b60405162461bcd60e51b815260206004820152601d60248201527f4669617420636f6e6669726d6174696f6e7320696e636f6d706c6574650000006044820152606490fd5b60ff915060181c16816104ac565b60405162461bcd60e51b815260206004820152601d60248201527f4f6e6c792073656c6c65722063616e2072656c656173652074726164650000006044820152606490fd5b60405162461bcd60e51b815260206004820152601f60248201527f5472616465206e6f7420696e20636f6e6669726d6174696f6e207068617365006044820152606490fd5b3461029b5761016036600319011261029b576106b2611733565b6106ba61171d565b6044356001600160a01b03811692919083900361029b57610144356001600160a01b038116906101243590610104359060e4359084900361029b576106fd611b6d565b600d5460ff8160281c1660068110159081610285576004811491821561087d575b821561086e575b505015610829577f56379c279390dc0faaf0652a61a5817c40bbb5ba291d88cada27b406afd8db98976101009760018060a01b031696876001600160601b0360a01b600154161760015560018060a01b031691826001600160601b0360a01b6002541617600255816001600160601b0360a01b600354161760035560643560065560843560075560a4356008556107be60c4354261181d565b6009819055600b859055600c8690556005879055600480546001600160a01b0319168917905565ff00ffffffff199091166501000000000017600d55604080519889526020890193909352918701526060860152608085015260a084015260c083015260e0820152a1005b60405162461bcd60e51b815260206004820152601a60248201527f4578697374696e6720747261646520696e2070726f67726573730000000000006044820152606490fd5b90915061028557158980610725565b50600581149150600061071e565b3461029b57600036600319011261029b576020600a54604051908152f35b3461029b57600036600319011261029b576020600c54604051908152f35b3461029b57602036600319011261029b577f0a4eb09e14cf0b6177b79042a04365517d9b189a50ec69eaabc40a6440103c906040610903611733565b61090b611b6d565b600380546001600160a01b039283166001600160a01b0319821681179092558351921682526020820152a1005b3461029b57600036600319011261029b576020600e54604051908152f35b3461029b57604036600319011261029b576004358015159081810361029b576024359160ff831680930361029b5760ff600160201b600d5461099d838260201c1615611749565b60ff60201b19161780600d5560281c16600681101561028557600303610c33576003546001600160a01b03163303610be25760028311610ba4577fb639d1faf6c5713b976211aefc0ca25f8760e271d97eb7b3a1283f94db9dd5f69260409260008115610b545750600654612710610a176005548361198f565b04809160018514600014610b135790610a2f916119a2565b91610a3f6008546007549061181d565b925b610a5b6504000000000060ff60281b19600d541617600d55565b61ffff19600d5416600d5580610aef575b508115159081610ae7575b50610ac3575b5080610a9f575b5082519182526020820152a1600d805460ff60201b19169055005b6000808080610abd9460018060a01b03600254165af1610568611896565b84610a84565b6000808080610ae19460018060a01b03600454165af161054c611896565b85610a7d565b905087610a77565b6000808080610b0d9460018060a01b03600154165af1610530611896565b87610a6c565b60028503610b3d576104fb610b3492610b2b926119a2565b6008549061181d565b91600092610a41565b610b4a916104fb916119a2565b9160085492610a41565b60018303610b7757600091610b716104fb6006546008549061181d565b92610a41565b60028303610b9157610b34610b2b6006546007549061181d565b60075491610b716006546008549061181d565b60405162461bcd60e51b815260206004820152601660248201527524b73b30b634b2103832b730b63a3c9037b83a34b7b760511b6044820152606490fd5b60405162461bcd60e51b815260206004820152602360248201527f4f6e6c792061726269747261746f722063616e207265736f6c7665206469737060448201526275746560e81b6064820152608490fd5b60405162461bcd60e51b81526020600482015260156024820152744e6f206469737075746520746f207265736f6c766560581b6044820152606490fd5b3461029b57600036600319011261029b57602060ff600d5460101c166040519015158152f35b3461029b57600036600319011261029b576020600854604051908152f35b3461029b57600036600319011261029b5760ff600160201b600d54610cde838260201c1615611749565b60ff60201b19161780600d5560281c16600681101580610285576001821490818015610e99575b15610e60576102855715610e475750600954421115610e02575b610d396505000000000060ff60281b19600d541617600d55565b600d5460ff8116610dcd575b50600d5460ff8160081c16610d89575b7fc695cd059998c274ae0c0c8a411f3d839891efcd2362986a1890187baab0c4af600080a1600d805460ff60201b19169055005b6000808080610dc794610da16006546008549061181d565b61ff0019909116600d556002546001600160a01b03165af1610dc1611896565b50611943565b80610d55565b6000808080610dfc946007549060ff1916600d5560018060a01b03600154165af1610df6611896565b506118fe565b80610d45565b60405162461bcd60e51b815260206004820152601c60248201527f4465706f73697420646561646c696e65206e6f742072656163686564000000006044820152606490fd5b600203610d1f57610e5b600a544211611840565b610d1f565b60405162461bcd60e51b815260206004820152601160248201527043616e6e6f742063616e63656c206e6f7760781b6044820152606490fd5b5050600060028314610d05565b3461029b57600036600319011261029b576020600554604051908152f35b3461029b57600036600319011261029b57602060ff600d5460081c166040519015158152f35b3461029b57600036600319011261029b576000546040516001600160a01b039091168152602090f35b3461029b57600036600319011261029b57610f2c611b6d565b60ff600160201b600d54610f45838260201c1615611749565b60ff60201b19161780600d5560281c1660068110156102855760030361107757610f74600e54600c549061181d565b42111561103257610f956505000000000060ff60281b19600d541617600d55565b600d5460ff8116611003575b50600d5460ff8160081c16610fe5575b7f123403112145db329936d47f96d9a24eb92c0b67ddb5068fda50f40317b9a593600080a1600d805460ff60201b19169055005b6000808080610ffd94610da16006546008549061181d565b80610fb1565b600080808061102c946007549060ff1916600d5560018060a01b03600154165af1610df6611896565b80610fa1565b60405162461bcd60e51b815260206004820152601b60248201527f446973707574652074696d656f7574206e6f74207265616368656400000000006044820152606490fd5b60405162461bcd60e51b81526020600482015260116024820152704e6f20616374697665206469737075746560781b6044820152606490fd5b3461029b57600036600319011261029b5760ff600d5460281c166040516006821015610285576020918152f35b3461029b57600036600319011261029b57602060ff600d54166040519015158152f35b3461029b57600036600319011261029b576001546040516001600160a01b039091168152602090f35b3461029b57600036600319011261029b57611142611b6d565b600080546001600160a01b0319811682556001600160a01b03167f8be0079c531659141344cd1fd0a4f28419497f9722a3daafe3b4186f6b6457e08280a3005b3461029b57600036600319011261029b5760ff600160201b600d546111ac838260201c1615611749565b60ff60201b19161780600d5560281c16600681101561028557600203611226576111d9600a544211611840565b6503000000000060ff60281b19600d541617600d5542600e557fa9f218df296bdff29869b6b40927376285db89e1726d55dc7a5583eab3f72c42600080a1600d805460ff60201b19169055005b60405162461bcd60e51b8152602060048201526024808201527f44697370757465206e6f7420616c6c6f77656420696e2063757272656e7420736044820152637461746560e01b6064820152608490fd5b3461029b57600036600319011261029b576003546040516001600160a01b039091168152602090f35b3461029b57600036600319011261029b576020600954604051908152f35b3461029b57600036600319011261029b57602060ff600d5460181c166040519015158152f35b3461029b57604036600319011261029b577f7cfad8b150be9751a5386cc4e0f549618032ff63d14fab4f77cd4b0aaaedc242604060043561132361171d565b61132b611b6d565b8160055560018060a01b0316806001600160601b0360a01b600454161760045582519182526020820152a1005b3461029b57600036600319011261029b576020600654604051908152f35b3461029b57600036600319011261029b576020600b54604051908152f35b3461029b57600036600319011261029b576020600754604051908152f35b600036600319011261029b57600d546113d160ff8260201c1615611749565b600160201b60ff60201b198216179060ff8260281c1660068110156102855760016113fc911461178e565b61140a6009544211156117d1565b6002546001600160a01b0316913383900361151c5760081c60ff166114d7576114386006546008549061181d565b3403611492576401000001009064ff0000ff00191617600d557f2da466a7b24304f47e87fa2e1e5a81b9831ce54fec19055ce277ca2f39ba42c46020604051348152a2611483611b24565b600d805460ff60201b19169055005b60405162461bcd60e51b815260206004820152601f60248201527f496e636f72726563742073656c6c6572206465706f73697420616d6f756e74006044820152606490fd5b60405162461bcd60e51b815260206004820152601860248201527f53656c6c657220616c7265616479206465706f736974656400000000000000006044820152606490fd5b60405162461bcd60e51b815260206004820152601760248201527f4f6e6c792073656c6c65722063616e206465706f7369740000000000000000006044820152606490fd5b3461029b57600036600319011261029b576002546040516001600160a01b039091168152602090f35b600036600319011261029b57600d546115a960ff8260201c1615611749565b60ff60201b198116600160201b1760281c60ff1660068110156102855760016115d2911461178e565b6115e06009544211156117d1565b6001546001600160a01b031690338290036116df5760ff811661169a57600754340361164b576401000000019064ff000000ff191617600d557f2da466a7b24304f47e87fa2e1e5a81b9831ce54fec19055ce277ca2f39ba42c46020604051348152a2611483611b24565b60405162461bcd60e51b815260206004820152602160248201527f496e636f727265637420627579657220636f6c6c61746572616c20616d6f756e6044820152601d60fa1b6064820152608490fd5b60405162461bcd60e51b815260206004820152601760248201527f427579657220616c7265616479206465706f73697465640000000000000000006044820152606490fd5b60405162461bcd60e51b815260206004820152601660248201527513db9b1e48189d5e595c8818d85b8819195c1bdcda5d60521b6044820152606490fd5b602435906001600160a01b038216820361029b57565b600435906001600160a01b038216820361029b57565b1561175057565b60405162461bcd60e51b81526020600482015260166024820152751499595b9d1c985b98de481b9bdd08185b1b1bddd95960521b6044820152606490fd5b1561179557565b60405162461bcd60e51b815260206004820152601460248201527311195c1bdcda5d1cc81b9bdd08185b1b1bddd95960621b6044820152606490fd5b156117d857565b60405162461bcd60e51b815260206004820152601760248201527f4465706f73697420646561646c696e65207061737365640000000000000000006044820152606490fd5b9190820180921161182a57565b634e487b7160e01b600052601160045260246000fd5b1561184757565b60405162461bcd60e51b815260206004820152602160248201527f436f6e6669726d6174696f6e20646561646c696e65206e6f74207265616368656044820152601960fa1b6064820152608490fd5b3d156118f9573d9067ffffffffffffffff82116118e35760405191601f8101601f19908116603f0116830167ffffffffffffffff8111848210176118e35760405282523d6000602084013e565b634e487b7160e01b600052604160045260246000fd5b606090565b1561190557565b60405162461bcd60e51b81526020600482015260166024820152751499599d5b99081d1bc8189d5e595c8819985a5b195960521b6044820152606490fd5b1561194a57565b60405162461bcd60e51b815260206004820152601760248201527f526566756e6420746f2073656c6c6572206661696c65640000000000000000006044820152606490fd5b8181029291811591840414171561182a57565b9190820391821161182a57565b156119b657565b60405162461bcd60e51b815260206004820152601860248201527f5472616e7366657220746f206275796572206661696c656400000000000000006044820152606490fd5b15611a0257565b60405162461bcd60e51b815260206004820152601b60248201527f5472616e7366657220746f20706c6174666f726d206661696c656400000000006044820152606490fd5b15611a4e57565b60405162461bcd60e51b815260206004820152601960248201527f5472616e7366657220746f2073656c6c6572206661696c6564000000000000006044820152606490fd5b15611a9a57565b60405162461bcd60e51b815260206004820152601960248201527f4e6f7420696e20636f6e6669726d6174696f6e207068617365000000000000006044820152606490fd5b15611ae657565b60405162461bcd60e51b8152602060048201526016602482015275119a585d08185b1c9958591e4818dbdb999a5c9b595960521b6044820152606490fd5b600d5460ff81169081611b5f575b50611b3957565b6502000000000060ff60281b19600d541617600d55611b5a600b544261181d565b600a55565b60ff915060081c1638611b32565b6000546001600160a01b03163303611b8157565b63118cdaa760e01b6000523360045260246000fdfea2646970667358221220f530cc3c4e712b064140bb75762e972eb454004fcfe5354ff46d061a6f38b47264736f6c634300081c0033","opcodes":"PUSH1 0x80 DUP1 PUSH1 0x40 MSTORE CALLVALUE PUSH1 0x84 JUMPI CALLER ISZERO PUSH1 0x6E JUMPI PUSH1 0x0 DUP1 SLOAD CALLER PUSH1 0x1 PUSH1 0x1 PUSH1 0xA0 SHL SUB NOT DUP3 AND DUP2 OR DUP4 SSTORE SWAP2 PUSH1 0x1 PUSH1 0x1 PUSH1 0xA0 SHL SUB SWAP1 SWAP2 AND SWAP1 PUSH32 0x8BE0079C531659141344CD1FD0A4F28419497F9722A3DAAFE3B4186F6B6457E0 SWAP1 DUP1 LOG3 PUSH6 0xFF0000000000 NOT PUSH1 0xD SLOAD AND PUSH1 0xD SSTORE PUSH2 0x1BCC SWAP1 DUP2 PUSH2 0x8A DUP3 CODECOPY RETURN JUMPDEST PUSH4 0x1E4FBDF7 PUSH1 0xE0 SHL PUSH1 0x0 MSTORE PUSH1 0x0 PUSH1 0x4 MSTORE PUSH1 0x24 PUSH1 0x0 REVERT JUMPDEST PUSH1 0x0 DUP1 REVERT INVALID PUSH1 0x80 PUSH1 0x40 MSTORE PUSH1 0x4 CALLDATASIZE LT ISZERO PUSH2 0x12 JUMPI PUSH1 0x0 DUP1 REVERT JUMPDEST PUSH1 0x0 CALLDATALOAD PUSH1 0xE0 SHR DUP1 PUSH4 0x55C34E8 EQ PUSH2 0x158A JUMPI DUP1 PUSH4 0x8551A53 EQ PUSH2 0x1561 JUMPI DUP1 PUSH4 0x1CFD77BE EQ PUSH2 0x13B2 JUMPI DUP1 PUSH4 0x23F64D37 EQ PUSH2 0x1394 JUMPI DUP1 PUSH4 0x365767BA EQ PUSH2 0x1376 JUMPI DUP1 PUSH4 0x493ACC39 EQ PUSH2 0x1358 JUMPI DUP1 PUSH4 0x4B0E7297 EQ PUSH2 0x12E4 JUMPI DUP1 PUSH4 0x5305369B EQ PUSH2 0x12BE JUMPI DUP1 PUSH4 0x61603D89 EQ PUSH2 0x12A0 JUMPI DUP1 PUSH4 0x6CC6CDE1 EQ PUSH2 0x1277 JUMPI DUP1 PUSH4 0x6DAA2D44 EQ PUSH2 0x1182 JUMPI DUP1 PUSH4 0x715018A6 EQ PUSH2 0x1129 JUMPI DUP1 PUSH4 0x7150D8AE EQ PUSH2 0x1100 JUMPI DUP1 PUSH4 0x7C148952 EQ PUSH2 0x10DD JUMPI DUP1 PUSH4 0x864E1827 EQ PUSH2 0x10B0 JUMPI DUP1 PUSH4 0x89388D8D EQ PUSH2 0xF13 JUMPI DUP1 PUSH4 0x8DA5CB5B EQ PUSH2 0xEEA JUMPI DUP1 PUSH4 0x8F8B252E EQ PUSH2 0xEC4 JUMPI DUP1 PUSH4 0x978BBDB9 EQ PUSH2 0xEA6 JUMPI DUP1 PUSH4 0x9C76230C EQ PUSH2 0xCB4 JUMPI DUP1 PUSH4 0xAD792F5E EQ PUSH2 0xC96 JUMPI DUP1 PUSH4 0xB5655BCF EQ PUSH2 0xC70 JUMPI DUP1 PUSH4 0xB7366D77 EQ PUSH2 0x956 JUMPI DUP1 PUSH4 0xB95D8DD4 EQ PUSH2 0x938 JUMPI DUP1 PUSH4 0xBFFC243D EQ PUSH2 0x8C7 JUMPI DUP1 PUSH4 0xC04C22A4 EQ PUSH2 0x8A9 JUMPI DUP1 PUSH4 0xC57B3FB3 EQ PUSH2 0x88B JUMPI DUP1 PUSH4 0xD362903C EQ PUSH2 0x698 JUMPI DUP1 PUSH4 0xDEA9851C EQ PUSH2 0x440 JUMPI DUP1 PUSH4 0xE50BED57 EQ PUSH2 0x352 JUMPI DUP1 PUSH4 0xF2FDE38B EQ PUSH2 0x2C9 JUMPI DUP1 PUSH4 0xFA2AF9DA EQ PUSH2 0x2A0 JUMPI PUSH4 0xFDFFF32F EQ PUSH2 0x187 JUMPI PUSH1 0x0 DUP1 REVERT JUMPDEST CALLVALUE PUSH2 0x29B JUMPI PUSH1 0x0 CALLDATASIZE PUSH1 0x3 NOT ADD SLT PUSH2 0x29B JUMPI PUSH1 0xD SLOAD PUSH2 0x1AB PUSH1 0xFF DUP3 PUSH1 0x20 SHR AND ISZERO PUSH2 0x1749 JUMP JUMPDEST PUSH1 0x1 PUSH1 0x20 SHL PUSH1 0xFF PUSH1 0x20 SHL NOT DUP3 AND OR SWAP1 PUSH1 0xFF DUP3 PUSH1 0x28 SHR AND PUSH1 0x6 DUP2 LT ISZERO PUSH2 0x285 JUMPI PUSH1 0x2 PUSH2 0x1D6 SWAP2 EQ PUSH2 0x1A93 JUMP JUMPDEST PUSH1 0x2 SLOAD PUSH1 0x1 PUSH1 0x1 PUSH1 0xA0 SHL SUB AND CALLER DUP2 SWAP1 SUB PUSH2 0x232 JUMPI PUSH2 0x1FF PUSH1 0xFF PUSH4 0x1000000 SWAP5 PUSH1 0x18 SHR AND ISZERO PUSH2 0x1ADF JUMP JUMPDEST PUSH32 0x6B2C9FA80D446F2B6E443DF8D2A860E6008E348CC6979DEA036085BDF869DB32 PUSH1 0x0 DUP1 LOG2 PUSH5 0xFFFF000000 NOT AND OR PUSH1 0xD SSTORE STOP JUMPDEST PUSH1 0x40 MLOAD PUSH3 0x461BCD PUSH1 0xE5 SHL DUP2 MSTORE PUSH1 0x20 PUSH1 0x4 DUP3 ADD MSTORE PUSH1 0x25 PUSH1 0x24 DUP3 ADD MSTORE PUSH32 0x4F6E6C792073656C6C65722063616E20636F6E6669726D206669617420726563 PUSH1 0x44 DUP3 ADD MSTORE PUSH5 0x195A5D9959 PUSH1 0xDA SHL PUSH1 0x64 DUP3 ADD MSTORE PUSH1 0x84 SWAP1 REVERT JUMPDEST PUSH4 0x4E487B71 PUSH1 0xE0 SHL PUSH1 0x0 MSTORE PUSH1 0x21 PUSH1 0x4 MSTORE PUSH1 0x24 PUSH1 0x0 REVERT JUMPDEST PUSH1 0x0 DUP1 REVERT JUMPDEST CALLVALUE PUSH2 0x29B JUMPI PUSH1 0x0 CALLDATASIZE PUSH1 0x3 NOT ADD SLT PUSH2 0x29B JUMPI PUSH1 0x4 SLOAD PUSH1 0x40 MLOAD PUSH1 0x1 PUSH1 0x1 PUSH1 0xA0 SHL SUB SWAP1 SWAP2 AND DUP2 MSTORE PUSH1 0x20 SWAP1 RETURN JUMPDEST CALLVALUE PUSH2 0x29B JUMPI PUSH1 0x20 CALLDATASIZE PUSH1 0x3 NOT ADD SLT PUSH2 0x29B JUMPI PUSH2 0x2E2 PUSH2 0x1733 JUMP JUMPDEST PUSH2 0x2EA PUSH2 0x1B6D JUMP JUMPDEST PUSH1 0x1 PUSH1 0x1 PUSH1 0xA0 SHL SUB AND DUP1 ISZERO PUSH2 0x33C JUMPI PUSH1 0x0 DUP1 SLOAD PUSH1 0x1 PUSH1 0x1 PUSH1 0xA0 SHL SUB NOT DUP2 AND DUP4 OR DUP3 SSTORE PUSH1 0x1 PUSH1 0x1 PUSH1 0xA0 SHL SUB AND SWAP1 PUSH32 0x8BE0079C531659141344CD1FD0A4F28419497F9722A3DAAFE3B4186F6B6457E0 SWAP1 DUP1 LOG3 STOP JUMPDEST PUSH4 0x1E4FBDF7 PUSH1 0xE0 SHL PUSH1 0x0 MSTORE PUSH1 0x0 PUSH1 0x4 MSTORE PUSH1 0x24 PUSH1 0x0 REVERT JUMPDEST CALLVALUE PUSH2 0x29B JUMPI PUSH1 0x0 CALLDATASIZE PUSH1 0x3 NOT ADD SLT PUSH2 0x29B JUMPI PUSH1 0xD SLOAD PUSH2 0x376 PUSH1 0xFF DUP3 PUSH1 0x20 SHR AND ISZERO PUSH2 0x1749 JUMP JUMPDEST PUSH1 0x1 PUSH1 0x20 SHL PUSH1 0xFF PUSH1 0x20 SHL NOT DUP3 AND OR SWAP1 PUSH1 0xFF DUP3 PUSH1 0x28 SHR AND PUSH1 0x6 DUP2 LT ISZERO PUSH2 0x285 JUMPI PUSH1 0x2 PUSH2 0x3A1 SWAP2 EQ PUSH2 0x1A93 JUMP JUMPDEST PUSH1 0x1 SLOAD PUSH1 0x1 PUSH1 0x1 PUSH1 0xA0 SHL SUB AND CALLER DUP2 SWAP1 SUB PUSH2 0x3FC JUMPI PUSH2 0x3C9 PUSH1 0xFF PUSH3 0x10000 SWAP5 PUSH1 0x10 SHR AND ISZERO PUSH2 0x1ADF JUMP JUMPDEST PUSH32 0xCD7E426BA936D76F601DFA9030A193626AC37A0A98ADFE1D1B23168C53DF9EBB PUSH1 0x0 DUP1 LOG2 PUSH5 0xFF00FF0000 NOT AND OR PUSH1 0xD SSTORE STOP JUMPDEST PUSH1 0x64 PUSH1 0x40 MLOAD PUSH3 0x461BCD PUSH1 0xE5 SHL DUP2 MSTORE PUSH1 0x20 PUSH1 0x4 DUP3 ADD MSTORE PUSH1 0x20 PUSH1 0x24 DUP3 ADD MSTORE PUSH32 0x4F6E6C792062757965722063616E20636F6E6669726D20666961742073656E74 PUSH1 0x44 DUP3 ADD MSTORE REVERT JUMPDEST CALLVALUE PUSH2 0x29B JUMPI PUSH1 0x0 CALLDATASIZE PUSH1 0x3 NOT ADD SLT PUSH2 0x29B JUMPI PUSH1 0x1 PUSH1 0x20 SHL PUSH1 0xD SLOAD PUSH2 0x469 PUSH1 0xFF DUP3 PUSH1 0x20 SHR AND ISZERO PUSH2 0x1749 JUMP JUMPDEST PUSH1 0xFF PUSH1 0x20 SHL NOT AND OR DUP1 PUSH1 0xD SSTORE PUSH1 0xFF DUP2 PUSH1 0x28 SHR AND PUSH1 0x6 DUP2 LT ISZERO PUSH2 0x285 JUMPI PUSH1 0x2 SUB PUSH2 0x653 JUMPI PUSH1 0x2 SLOAD PUSH1 0x1 PUSH1 0x1 PUSH1 0xA0 SHL SUB AND CALLER SUB PUSH2 0x60E JUMPI PUSH1 0xFF DUP2 PUSH1 0x10 SHR AND SWAP1 DUP2 PUSH2 0x600 JUMPI JUMPDEST POP ISZERO PUSH2 0x5BB JUMPI PUSH2 0x4CC PUSH6 0x40000000000 PUSH1 0xFF PUSH1 0x28 SHL NOT PUSH1 0xD SLOAD AND OR PUSH1 0xD SSTORE JUMP JUMPDEST PUSH2 0x56E PUSH1 0x0 DUP1 DUP1 DUP1 PUSH1 0x6 SLOAD PUSH2 0x552 DUP3 DUP1 DUP1 DUP1 PUSH2 0x504 PUSH2 0x4FB PUSH2 0x2710 PUSH2 0x4F3 PUSH1 0x5 SLOAD DUP11 PUSH2 0x198F JUMP JUMPDEST DIV DUP1 SWAP9 PUSH2 0x19A2 JUMP JUMPDEST PUSH1 0x7 SLOAD SWAP1 PUSH2 0x181D JUMP JUMPDEST SWAP6 PUSH2 0x536 DUP3 DUP1 DUP1 DUP1 PUSH1 0x8 SLOAD SWAP12 PUSH2 0xFFFF NOT PUSH1 0xD SLOAD AND PUSH1 0xD SSTORE PUSH1 0x1 DUP1 PUSH1 0xA0 SHL SUB PUSH1 0x1 SLOAD AND GAS CALL PUSH2 0x530 PUSH2 0x1896 JUMP JUMPDEST POP PUSH2 0x19AF JUMP JUMPDEST PUSH1 0x4 SLOAD PUSH1 0x1 PUSH1 0x1 PUSH1 0xA0 SHL SUB AND GAS CALL PUSH2 0x54C PUSH2 0x1896 JUMP JUMPDEST POP PUSH2 0x19FB JUMP JUMPDEST PUSH1 0x2 SLOAD PUSH1 0x1 PUSH1 0x1 PUSH1 0xA0 SHL SUB AND GAS CALL PUSH2 0x568 PUSH2 0x1896 JUMP JUMPDEST POP PUSH2 0x1A47 JUMP JUMPDEST PUSH32 0xACEE75A3D26F10AF63BEA7A4089C22D34B1D953BDC674C1F6ACD937250AC2BEA PUSH1 0x60 PUSH1 0x6 SLOAD PUSH1 0x7 SLOAD PUSH1 0x8 SLOAD SWAP1 PUSH1 0x40 MLOAD SWAP3 DUP4 MSTORE PUSH1 0x20 DUP4 ADD MSTORE PUSH1 0x40 DUP3 ADD MSTORE LOG1 PUSH1 0xD DUP1 SLOAD PUSH1 0xFF PUSH1 0x20 SHL NOT AND SWAP1 SSTORE STOP JUMPDEST PUSH1 0x40 MLOAD PUSH3 0x461BCD PUSH1 0xE5 SHL DUP2 MSTORE PUSH1 0x20 PUSH1 0x4 DUP3 ADD MSTORE PUSH1 0x1D PUSH1 0x24 DUP3 ADD MSTORE PUSH32 0x4669617420636F6E6669726D6174696F6E7320696E636F6D706C657465000000 PUSH1 0x44 DUP3 ADD MSTORE PUSH1 0x64 SWAP1 REVERT JUMPDEST PUSH1 0xFF SWAP2 POP PUSH1 0x18 SHR AND DUP2 PUSH2 0x4AC JUMP JUMPDEST PUSH1 0x40 MLOAD PUSH3 0x461BCD PUSH1 0xE5 SHL DUP2 MSTORE PUSH1 0x20 PUSH1 0x4 DUP3 ADD MSTORE PUSH1 0x1D PUSH1 0x24 DUP3 ADD MSTORE PUSH32 0x4F6E6C792073656C6C65722063616E2072656C65617365207472616465000000 PUSH1 0x44 DUP3 ADD MSTORE PUSH1 0x64 SWAP1 REVERT JUMPDEST PUSH1 0x40 MLOAD PUSH3 0x461BCD PUSH1 0xE5 SHL DUP2 MSTORE PUSH1 0x20 PUSH1 0x4 DUP3 ADD MSTORE PUSH1 0x1F PUSH1 0x24 DUP3 ADD MSTORE PUSH32 0x5472616465206E6F7420696E20636F6E6669726D6174696F6E20706861736500 PUSH1 0x44 DUP3 ADD MSTORE PUSH1 0x64 SWAP1 REVERT JUMPDEST CALLVALUE PUSH2 0x29B JUMPI PUSH2 0x160 CALLDATASIZE PUSH1 0x3 NOT ADD SLT PUSH2 0x29B JUMPI PUSH2 0x6B2 PUSH2 0x1733 JUMP JUMPDEST PUSH2 0x6BA PUSH2 0x171D JUMP JUMPDEST PUSH1 0x44 CALLDATALOAD PUSH1 0x1 PUSH1 0x1 PUSH1 0xA0 SHL SUB DUP2 AND SWAP3 SWAP2 SWAP1 DUP4 SWAP1 SUB PUSH2 0x29B JUMPI PUSH2 0x144 CALLDATALOAD PUSH1 0x1 PUSH1 0x1 PUSH1 0xA0 SHL SUB DUP2 AND SWAP1 PUSH2 0x124 CALLDATALOAD SWAP1 PUSH2 0x104 CALLDATALOAD SWAP1 PUSH1 0xE4 CALLDATALOAD SWAP1 DUP5 SWAP1 SUB PUSH2 0x29B JUMPI PUSH2 0x6FD PUSH2 0x1B6D JUMP JUMPDEST PUSH1 0xD SLOAD PUSH1 0xFF DUP2 PUSH1 0x28 SHR AND PUSH1 0x6 DUP2 LT ISZERO SWAP1 DUP2 PUSH2 0x285 JUMPI PUSH1 0x4 DUP2 EQ SWAP2 DUP3 ISZERO PUSH2 0x87D JUMPI JUMPDEST DUP3 ISZERO PUSH2 0x86E JUMPI JUMPDEST POP POP ISZERO PUSH2 0x829 JUMPI PUSH32 0x56379C279390DC0FAAF0652A61A5817C40BBB5BA291D88CADA27B406AFD8DB98 SWAP8 PUSH2 0x100 SWAP8 PUSH1 0x1 DUP1 PUSH1 0xA0 SHL SUB AND SWAP7 DUP8 PUSH1 0x1 PUSH1 0x1 PUSH1 0x60 SHL SUB PUSH1 0xA0 SHL PUSH1 0x1 SLOAD AND OR PUSH1 0x1 SSTORE PUSH1 0x1 DUP1 PUSH1 0xA0 SHL SUB AND SWAP2 DUP3 PUSH1 0x1 PUSH1 0x1 PUSH1 0x60 SHL SUB PUSH1 0xA0 SHL PUSH1 0x2 SLOAD AND OR PUSH1 0x2 SSTORE DUP2 PUSH1 0x1 PUSH1 0x1 PUSH1 0x60 SHL SUB PUSH1 0xA0 SHL PUSH1 0x3 SLOAD AND OR PUSH1 0x3 SSTORE PUSH1 0x64 CALLDATALOAD PUSH1 0x6 SSTORE PUSH1 0x84 CALLDATALOAD PUSH1 0x7 SSTORE PUSH1 0xA4 CALLDATALOAD PUSH1 0x8 SSTORE PUSH2 0x7BE PUSH1 0xC4 CALLDATALOAD TIMESTAMP PUSH2 0x181D JUMP JUMPDEST PUSH1 0x9 DUP2 SWAP1 SSTORE PUSH1 0xB DUP6 SWAP1 SSTORE PUSH1 0xC DUP7 SWAP1 SSTORE PUSH1 0x5 DUP8 SWAP1 SSTORE PUSH1 0x4 DUP1 SLOAD PUSH1 0x1 PUSH1 0x1 PUSH1 0xA0 SHL SUB NOT AND DUP10 OR SWAP1 SSTORE PUSH6 0xFF00FFFFFFFF NOT SWAP1 SWAP2 AND PUSH6 0x10000000000 OR PUSH1 0xD SSTORE PUSH1 0x40 DUP1 MLOAD SWAP9 DUP10 MSTORE PUSH1 0x20 DUP10 ADD SWAP4 SWAP1 SWAP4 MSTORE SWAP2 DUP8 ADD MSTORE PUSH1 0x60 DUP7 ADD MSTORE PUSH1 0x80 DUP6 ADD MSTORE PUSH1 0xA0 DUP5 ADD MSTORE PUSH1 0xC0 DUP4 ADD MSTORE PUSH1 0xE0 DUP3 ADD MSTORE LOG1 STOP JUMPDEST PUSH1 0x40 MLOAD PUSH3 0x461BCD PUSH1 0xE5 SHL DUP2 MSTORE PUSH1 0x20 PUSH1 0x4 DUP3 ADD MSTORE PUSH1 0x1A PUSH1 0x24 DUP3 ADD MSTORE PUSH32 0x4578697374696E6720747261646520696E2070726F6772657373000000000000 PUSH1 0x44 DUP3 ADD MSTORE PUSH1 0x64 SWAP1 REVERT JUMPDEST SWAP1 SWAP2 POP PUSH2 0x285 JUMPI ISZERO DUP10 DUP1 PUSH2 0x725 JUMP JUMPDEST POP PUSH1 0x5 DUP2 EQ SWAP2 POP PUSH1 0x0 PUSH2 0x71E JUMP JUMPDEST CALLVALUE PUSH2 0x29B JUMPI PUSH1 0x0 CALLDATASIZE PUSH1 0x3 NOT ADD SLT PUSH2 0x29B JUMPI PUSH1 0x20 PUSH1 0xA SLOAD PUSH1 0x40 MLOAD SWAP1 DUP2 MSTORE RETURN JUMPDEST CALLVALUE PUSH2 0x29B JUMPI PUSH1 0x0 CALLDATASIZE PUSH1 0x3 NOT ADD SLT PUSH2 0x29B JUMPI PUSH1 0x20 PUSH1 0xC SLOAD PUSH1 0x40 MLOAD SWAP1 DUP2 MSTORE RETURN JUMPDEST CALLVALUE PUSH2 0x29B JUMPI PUSH1 0x20 CALLDATASIZE PUSH1 0x3 NOT ADD SLT PUSH2 0x29B JUMPI PUSH32 0xA4EB09E14CF0B6177B79042A04365517D9B189A50EC69EAABC40A6440103C90 PUSH1 0x40 PUSH2 0x903 PUSH2 0x1733 JUMP JUMPDEST PUSH2 0x90B PUSH2 0x1B6D JUMP JUMPDEST PUSH1 0x3 DUP1 SLOAD PUSH1 0x1 PUSH1 0x1 PUSH1 0xA0 SHL SUB SWAP3 DUP4 AND PUSH1 0x1 PUSH1 0x1 PUSH1 0xA0 SHL SUB NOT DUP3 AND DUP2 OR SWAP1 SWAP3 SSTORE DUP4 MLOAD SWAP3 AND DUP3 MSTORE PUSH1 0x20 DUP3 ADD MSTORE LOG1 STOP JUMPDEST CALLVALUE PUSH2 0x29B JUMPI PUSH1 0x0 CALLDATASIZE PUSH1 0x3 NOT ADD SLT PUSH2 0x29B JUMPI PUSH1 0x20 PUSH1 0xE SLOAD PUSH1 0x40 MLOAD SWAP1 DUP2 MSTORE RETURN JUMPDEST CALLVALUE PUSH2 0x29B JUMPI PUSH1 0x40 CALLDATASIZE PUSH1 0x3 NOT ADD SLT PUSH2 0x29B JUMPI PUSH1 0x4 CALLDATALOAD DUP1 ISZERO ISZERO SWAP1 DUP2 DUP2 SUB PUSH2 0x29B JUMPI PUSH1 0x24 CALLDATALOAD SWAP2 PUSH1 0xFF DUP4 AND DUP1 SWAP4 SUB PUSH2 0x29B JUMPI PUSH1 0xFF PUSH1 0x1 PUSH1 0x20 SHL PUSH1 0xD SLOAD PUSH2 0x99D DUP4 DUP3 PUSH1 0x20 SHR AND ISZERO PUSH2 0x1749 JUMP JUMPDEST PUSH1 0xFF PUSH1 0x20 SHL NOT AND OR DUP1 PUSH1 0xD SSTORE PUSH1 0x28 SHR AND PUSH1 0x6 DUP2 LT ISZERO PUSH2 0x285 JUMPI PUSH1 0x3 SUB PUSH2 0xC33 JUMPI PUSH1 0x3 SLOAD PUSH1 0x1 PUSH1 0x1 PUSH1 0xA0 SHL SUB AND CALLER SUB PUSH2 0xBE2 JUMPI PUSH1 0x2 DUP4 GT PUSH2 0xBA4 JUMPI PUSH32 0xB639D1FAF6C5713B976211AEFC0CA25F8760E271D97EB7B3A1283F94DB9DD5F6 SWAP3 PUSH1 0x40 SWAP3 PUSH1 0x0 DUP2 ISZERO PUSH2 0xB54 JUMPI POP PUSH1 0x6 SLOAD PUSH2 0x2710 PUSH2 0xA17 PUSH1 0x5 SLOAD DUP4 PUSH2 0x198F JUMP JUMPDEST DIV DUP1 SWAP2 PUSH1 0x1 DUP6 EQ PUSH1 0x0 EQ PUSH2 0xB13 JUMPI SWAP1 PUSH2 0xA2F SWAP2 PUSH2 0x19A2 JUMP JUMPDEST SWAP2 PUSH2 0xA3F PUSH1 0x8 SLOAD PUSH1 0x7 SLOAD SWAP1 PUSH2 0x181D JUMP JUMPDEST SWAP3 JUMPDEST PUSH2 0xA5B PUSH6 0x40000000000 PUSH1 0xFF PUSH1 0x28 SHL NOT PUSH1 0xD SLOAD AND OR PUSH1 0xD SSTORE JUMP JUMPDEST PUSH2 0xFFFF NOT PUSH1 0xD SLOAD AND PUSH1 0xD SSTORE DUP1 PUSH2 0xAEF JUMPI JUMPDEST POP DUP2 ISZERO ISZERO SWAP1 DUP2 PUSH2 0xAE7 JUMPI JUMPDEST POP PUSH2 0xAC3 JUMPI JUMPDEST POP DUP1 PUSH2 0xA9F JUMPI JUMPDEST POP DUP3 MLOAD SWAP2 DUP3 MSTORE PUSH1 0x20 DUP3 ADD MSTORE LOG1 PUSH1 0xD DUP1 SLOAD PUSH1 0xFF PUSH1 0x20 SHL NOT AND SWAP1 SSTORE STOP JUMPDEST PUSH1 0x0 DUP1 DUP1 DUP1 PUSH2 0xABD SWAP5 PUSH1 0x1 DUP1 PUSH1 0xA0 SHL SUB PUSH1 0x2 SLOAD AND GAS CALL PUSH2 0x568 PUSH2 0x1896 JUMP JUMPDEST DUP5 PUSH2 0xA84 JUMP JUMPDEST PUSH1 0x0 DUP1 DUP1 DUP1 PUSH2 0xAE1 SWAP5 PUSH1 0x1 DUP1 PUSH1 0xA0 SHL SUB PUSH1 0x4 SLOAD AND GAS CALL PUSH2 0x54C PUSH2 0x1896 JUMP JUMPDEST DUP6 PUSH2 0xA7D JUMP JUMPDEST SWAP1 POP DUP8 PUSH2 0xA77 JUMP JUMPDEST PUSH1 0x0 DUP1 DUP1 DUP1 PUSH2 0xB0D SWAP5 PUSH1 0x1 DUP1 PUSH1 0xA0 SHL SUB PUSH1 0x1 SLOAD AND GAS CALL PUSH2 0x530 PUSH2 0x1896 JUMP JUMPDEST DUP8 PUSH2 0xA6C JUMP JUMPDEST PUSH1 0x2 DUP6 SUB PUSH2 0xB3D JUMPI PUSH2 0x4FB PUSH2 0xB34 SWAP3 PUSH2 0xB2B SWAP3 PUSH2 0x19A2 JUMP JUMPDEST PUSH1 0x8 SLOAD SWAP1 PUSH2 0x181D JUMP JUMPDEST SWAP2 PUSH1 0x0 SWAP3 PUSH2 0xA41 JUMP JUMPDEST PUSH2 0xB4A SWAP2 PUSH2 0x4FB SWAP2 PUSH2 0x19A2 JUMP JUMPDEST SWAP2 PUSH1 0x8 SLOAD SWAP3 PUSH2 0xA41 JUMP JUMPDEST PUSH1 0x1 DUP4 SUB PUSH2 0xB77 JUMPI PUSH1 0x0 SWAP2 PUSH2 0xB71 PUSH2 0x4FB PUSH1 0x6 SLOAD PUSH1 0x8 SLOAD SWAP1 PUSH2 0x181D JUMP JUMPDEST SWAP3 PUSH2 0xA41 JUMP JUMPDEST PUSH1 0x2 DUP4 SUB PUSH2 0xB91 JUMPI PUSH2 0xB34 PUSH2 0xB2B PUSH1 0x6 SLOAD PUSH1 0x7 SLOAD SWAP1 PUSH2 0x181D JUMP JUMPDEST PUSH1 0x7 SLOAD SWAP2 PUSH2 0xB71 PUSH1 0x6 SLOAD PUSH1 0x8 SLOAD SWAP1 PUSH2 0x181D JUMP JUMPDEST PUSH1 0x40 MLOAD PUSH3 0x461BCD PUSH1 0xE5 SHL DUP2 MSTORE PUSH1 0x20 PUSH1 0x4 DUP3 ADD MSTORE PUSH1 0x16 PUSH1 0x24 DUP3 ADD MSTORE PUSH22 0x24B73B30B634B2103832B730B63A3C9037B83A34B7B7 PUSH1 0x51 SHL PUSH1 0x44 DUP3 ADD MSTORE PUSH1 0x64 SWAP1 REVERT JUMPDEST PUSH1 0x40 MLOAD PUSH3 0x461BCD PUSH1 0xE5 SHL DUP2 MSTORE PUSH1 0x20 PUSH1 0x4 DUP3 ADD MSTORE PUSH1 0x23 PUSH1 0x24 DUP3 ADD MSTORE PUSH32 0x4F6E6C792061726269747261746F722063616E207265736F6C76652064697370 PUSH1 0x44 DUP3 ADD MSTORE PUSH3 0x757465 PUSH1 0xE8 SHL PUSH1 0x64 DUP3 ADD MSTORE PUSH1 0x84 SWAP1 REVERT JUMPDEST PUSH1 0x40 MLOAD PUSH3 0x461BCD PUSH1 0xE5 SHL DUP2 MSTORE PUSH1 0x20 PUSH1 0x4 DUP3 ADD MSTORE PUSH1 0x15 PUSH1 0x24 DUP3 ADD MSTORE PUSH21 0x4E6F206469737075746520746F207265736F6C7665 PUSH1 0x58 SHL PUSH1 0x44 DUP3 ADD MSTORE PUSH1 0x64 SWAP1 REVERT JUMPDEST CALLVALUE PUSH2 0x29B JUMPI PUSH1 0x0 CALLDATASIZE PUSH1 0x3 NOT ADD SLT PUSH2 0x29B JUMPI PUSH1 0x20 PUSH1 0xFF PUSH1 0xD SLOAD PUSH1 0x10 SHR AND PUSH1 0x40 MLOAD SWAP1 ISZERO ISZERO DUP2 MSTORE RETURN JUMPDEST CALLVALUE PUSH2 0x29B JUMPI PUSH1 0x0 CALLDATASIZE PUSH1 0x3 NOT ADD SLT PUSH2 0x29B JUMPI PUSH1 0x20 PUSH1 0x8 SLOAD PUSH1 0x40 MLOAD SWAP1 DUP2 MSTORE RETURN JUMPDEST CALLVALUE PUSH2 0x29B JUMPI PUSH1 0x0 CALLDATASIZE PUSH1 0x3 NOT ADD SLT PUSH2 0x29B JUMPI PUSH1 0xFF PUSH1 0x1 PUSH1 0x20 SHL PUSH1 0xD SLOAD PUSH2 0xCDE DUP4 DUP3 PUSH1 0x20 SHR AND ISZERO PUSH2 0x1749 JUMP JUMPDEST PUSH1 0xFF PUSH1 0x20 SHL NOT AND OR DUP1 PUSH1 0xD SSTORE PUSH1 0x28 SHR AND PUSH1 0x6 DUP2 LT ISZERO DUP1 PUSH2 0x285 JUMPI PUSH1 0x1 DUP3 EQ SWAP1 DUP2 DUP1 ISZERO PUSH2 0xE99 JUMPI JUMPDEST ISZERO PUSH2 0xE60 JUMPI PUSH2 0x285 JUMPI ISZERO PUSH2 0xE47 JUMPI POP PUSH1 0x9 SLOAD TIMESTAMP GT ISZERO PUSH2 0xE02 JUMPI JUMPDEST PUSH2 0xD39 PUSH6 0x50000000000 PUSH1 0xFF PUSH1 0x28 SHL NOT PUSH1 0xD SLOAD AND OR PUSH1 0xD SSTORE JUMP JUMPDEST PUSH1 0xD SLOAD PUSH1 0xFF DUP2 AND PUSH2 0xDCD JUMPI JUMPDEST POP PUSH1 0xD SLOAD PUSH1 0xFF DUP2 PUSH1 0x8 SHR AND PUSH2 0xD89 JUMPI JUMPDEST PUSH32 0xC695CD059998C274AE0C0C8A411F3D839891EFCD2362986A1890187BAAB0C4AF PUSH1 0x0 DUP1 LOG1 PUSH1 0xD DUP1 SLOAD PUSH1 0xFF PUSH1 0x20 SHL NOT AND SWAP1 SSTORE STOP JUMPDEST PUSH1 0x0 DUP1 DUP1 DUP1 PUSH2 0xDC7 SWAP5 PUSH2 0xDA1 PUSH1 0x6 SLOAD PUSH1 0x8 SLOAD SWAP1 PUSH2 0x181D JUMP JUMPDEST PUSH2 0xFF00 NOT SWAP1 SWAP2 AND PUSH1 0xD SSTORE PUSH1 0x2 SLOAD PUSH1 0x1 PUSH1 0x1 PUSH1 0xA0 SHL SUB AND GAS CALL PUSH2 0xDC1 PUSH2 0x1896 JUMP JUMPDEST POP PUSH2 0x1943 JUMP JUMPDEST DUP1 PUSH2 0xD55 JUMP JUMPDEST PUSH1 0x0 DUP1 DUP1 DUP1 PUSH2 0xDFC SWAP5 PUSH1 0x7 SLOAD SWAP1 PUSH1 0xFF NOT AND PUSH1 0xD SSTORE PUSH1 0x1 DUP1 PUSH1 0xA0 SHL SUB PUSH1 0x1 SLOAD AND GAS CALL PUSH2 0xDF6 PUSH2 0x1896 JUMP JUMPDEST POP PUSH2 0x18FE JUMP JUMPDEST DUP1 PUSH2 0xD45 JUMP JUMPDEST PUSH1 0x40 MLOAD PUSH3 0x461BCD PUSH1 0xE5 SHL DUP2 MSTORE PUSH1 0x20 PUSH1 0x4 DUP3 ADD MSTORE PUSH1 0x1C PUSH1 0x24 DUP3 ADD MSTORE PUSH32 0x4465706F73697420646561646C696E65206E6F74207265616368656400000000 PUSH1 0x44 DUP3 ADD MSTORE PUSH1 0x64 SWAP1 REVERT JUMPDEST PUSH1 0x2 SUB PUSH2 0xD1F JUMPI PUSH2 0xE5B PUSH1 0xA SLOAD TIMESTAMP GT PUSH2 0x1840 JUMP JUMPDEST PUSH2 0xD1F JUMP JUMPDEST PUSH1 0x40 MLOAD PUSH3 0x461BCD PUSH1 0xE5 SHL DUP2 MSTORE PUSH1 0x20 PUSH1 0x4 DUP3 ADD MSTORE PUSH1 0x11 PUSH1 0x24 DUP3 ADD MSTORE PUSH17 0x43616E6E6F742063616E63656C206E6F77 PUSH1 0x78 SHL PUSH1 0x44 DUP3 ADD MSTORE PUSH1 0x64 SWAP1 REVERT JUMPDEST POP POP PUSH1 0x0 PUSH1 0x2 DUP4 EQ PUSH2 0xD05 JUMP JUMPDEST CALLVALUE PUSH2 0x29B JUMPI PUSH1 0x0 CALLDATASIZE PUSH1 0x3 NOT ADD SLT PUSH2 0x29B JUMPI PUSH1 0x20 PUSH1 0x5 SLOAD PUSH1 0x40 MLOAD SWAP1 DUP2 MSTORE RETURN JUMPDEST CALLVALUE PUSH2 0x29B JUMPI PUSH1 0x0 CALLDATASIZE PUSH1 0x3 NOT ADD SLT PUSH2 0x29B JUMPI PUSH1 0x20 PUSH1 0xFF PUSH1 0xD SLOAD PUSH1 0x8 SHR AND PUSH1 0x40 MLOAD SWAP1 ISZERO ISZERO DUP2 MSTORE RETURN JUMPDEST CALLVALUE PUSH2 0x29B JUMPI PUSH1 0x0 CALLDATASIZE PUSH1 0x3 NOT ADD SLT PUSH2 0x29B JUMPI PUSH1 0x0 SLOAD PUSH1 0x40 MLOAD PUSH1 0x1 PUSH1 0x1 PUSH1 0xA0 SHL SUB SWAP1 SWAP2 AND DUP2 MSTORE PUSH1 0x20 SWAP1 RETURN JUMPDEST CALLVALUE PUSH2 0x29B JUMPI PUSH1 0x0 CALLDATASIZE PUSH1 0x3 NOT ADD SLT PUSH2 0x29B JUMPI PUSH2 0xF2C PUSH2 0x1B6D JUMP JUMPDEST PUSH1 0xFF PUSH1 0x1 PUSH1 0x20 SHL PUSH1 0xD SLOAD PUSH2 0xF45 DUP4 DUP3 PUSH1 0x20 SHR AND ISZERO PUSH2 0x1749 JUMP JUMPDEST PUSH1 0xFF PUSH1 0x20 SHL NOT AND OR DUP1 PUSH1 0xD SSTORE PUSH1 0x28 SHR AND PUSH1 0x6 DUP2 LT ISZERO PUSH2 0x285 JUMPI PUSH1 0x3 SUB PUSH2 0x1077 JUMPI PUSH2 0xF74 PUSH1 0xE SLOAD PUSH1 0xC SLOAD SWAP1 PUSH2 0x181D JUMP JUMPDEST TIMESTAMP GT ISZERO PUSH2 0x1032 JUMPI PUSH2 0xF95 PUSH6 0x50000000000 PUSH1 0xFF PUSH1 0x28 SHL NOT PUSH1 0xD SLOAD AND OR PUSH1 0xD SSTORE JUMP JUMPDEST PUSH1 0xD SLOAD PUSH1 0xFF DUP2 AND PUSH2 0x1003 JUMPI JUMPDEST POP PUSH1 0xD SLOAD PUSH1 0xFF DUP2 PUSH1 0x8 SHR AND PUSH2 0xFE5 JUMPI JUMPDEST PUSH32 0x123403112145DB329936D47F96D9A24EB92C0B67DDB5068FDA50F40317B9A593 PUSH1 0x0 DUP1 LOG1 PUSH1 0xD DUP1 SLOAD PUSH1 0xFF PUSH1 0x20 SHL NOT AND SWAP1 SSTORE STOP JUMPDEST PUSH1 0x0 DUP1 DUP1 DUP1 PUSH2 0xFFD SWAP5 PUSH2 0xDA1 PUSH1 0x6 SLOAD PUSH1 0x8 SLOAD SWAP1 PUSH2 0x181D JUMP JUMPDEST DUP1 PUSH2 0xFB1 JUMP JUMPDEST PUSH1 0x0 DUP1 DUP1 DUP1 PUSH2 0x102C SWAP5 PUSH1 0x7 SLOAD SWAP1 PUSH1 0xFF NOT AND PUSH1 0xD SSTORE PUSH1 0x1 DUP1 PUSH1 0xA0 SHL SUB PUSH1 0x1 SLOAD AND GAS CALL PUSH2 0xDF6 PUSH2 0x1896 JUMP JUMPDEST DUP1 PUSH2 0xFA1 JUMP JUMPDEST PUSH1 0x40 MLOAD PUSH3 0x461BCD PUSH1 0xE5 SHL DUP2 MSTORE PUSH1 0x20 PUSH1 0x4 DUP3 ADD MSTORE PUSH1 0x1B PUSH1 0x24 DUP3 ADD MSTORE PUSH32 0x446973707574652074696D656F7574206E6F7420726561636865640000000000 PUSH1 0x44 DUP3 ADD MSTORE PUSH1 0x64 SWAP1 REVERT JUMPDEST PUSH1 0x40 MLOAD PUSH3 0x461BCD PUSH1 0xE5 SHL DUP2 MSTORE PUSH1 0x20 PUSH1 0x4 DUP3 ADD MSTORE PUSH1 0x11 PUSH1 0x24 DUP3 ADD MSTORE PUSH17 0x4E6F206163746976652064697370757465 PUSH1 0x78 SHL PUSH1 0x44 DUP3 ADD MSTORE PUSH1 0x64 SWAP1 REVERT JUMPDEST CALLVALUE PUSH2 0x29B JUMPI PUSH1 0x0 CALLDATASIZE PUSH1 0x3 NOT ADD SLT PUSH2 0x29B JUMPI PUSH1 0xFF PUSH1 0xD SLOAD PUSH1 0x28 SHR AND PUSH1 0x40 MLOAD PUSH1 0x6 DUP3 LT ISZERO PUSH2 0x285 JUMPI PUSH1 0x20 SWAP2 DUP2 MSTORE RETURN JUMPDEST CALLVALUE PUSH2 0x29B JUMPI PUSH1 0x0 CALLDATASIZE PUSH1 0x3 NOT ADD SLT PUSH2 0x29B JUMPI PUSH1 0x20 PUSH1 0xFF PUSH1 0xD SLOAD AND PUSH1 0x40 MLOAD SWAP1 ISZERO ISZERO DUP2 MSTORE RETURN JUMPDEST CALLVALUE PUSH2 0x29B JUMPI PUSH1 0x0 CALLDATASIZE PUSH1 0x3 NOT ADD SLT PUSH2 0x29B JUMPI PUSH1 0x1 SLOAD PUSH1 0x40 MLOAD PUSH1 0x1 PUSH1 0x1 PUSH1 0xA0 SHL SUB SWAP1 SWAP2 AND DUP2 MSTORE PUSH1 0x20 SWAP1 RETURN JUMPDEST CALLVALUE PUSH2 0x29B JUMPI PUSH1 0x0 CALLDATASIZE PUSH1 0x3 NOT ADD SLT PUSH2 0x29B JUMPI PUSH2 0x1142 PUSH2 0x1B6D JUMP JUMPDEST PUSH1 0x0 DUP1 SLOAD PUSH1 0x1 PUSH1 0x1 PUSH1 0xA0 SHL SUB NOT DUP2 AND DUP3 SSTORE PUSH1 0x1 PUSH1 0x1 PUSH1 0xA0 SHL SUB AND PUSH32 0x8BE0079C531659141344CD1FD0A4F28419497F9722A3DAAFE3B4186F6B6457E0 DUP3 DUP1 LOG3 STOP JUMPDEST CALLVALUE PUSH2 0x29B JUMPI PUSH1 0x0 CALLDATASIZE PUSH1 0x3 NOT ADD SLT PUSH2 0x29B JUMPI PUSH1 0xFF PUSH1 0x1 PUSH1 0x20 SHL PUSH1 0xD SLOAD PUSH2 0x11AC DUP4 DUP3 PUSH1 0x20 SHR AND ISZERO PUSH2 0x1749 JUMP JUMPDEST PUSH1 0xFF PUSH1 0x20 SHL NOT AND OR DUP1 PUSH1 0xD SSTORE PUSH1 0x28 SHR AND PUSH1 0x6 DUP2 LT ISZERO PUSH2 0x285 JUMPI PUSH1 0x2 SUB PUSH2 0x1226 JUMPI PUSH2 0x11D9 PUSH1 0xA SLOAD TIMESTAMP GT PUSH2 0x1840 JUMP JUMPDEST PUSH6 0x30000000000 PUSH1 0xFF PUSH1 0x28 SHL NOT PUSH1 0xD SLOAD AND OR PUSH1 0xD SSTORE TIMESTAMP PUSH1 0xE SSTORE PUSH32 0xA9F218DF296BDFF29869B6B40927376285DB89E1726D55DC7A5583EAB3F72C42 PUSH1 0x0 DUP1 LOG1 PUSH1 0xD DUP1 SLOAD PUSH1 0xFF PUSH1 0x20 SHL NOT AND SWAP1 SSTORE STOP JUMPDEST PUSH1 0x40 MLOAD PUSH3 0x461BCD PUSH1 0xE5 SHL DUP2 MSTORE PUSH1 0x20 PUSH1 0x4 DUP3 ADD MSTORE PUSH1 0x24 DUP1 DUP3 ADD MSTORE PUSH32 0x44697370757465206E6F7420616C6C6F77656420696E2063757272656E742073 PUSH1 0x44 DUP3 ADD MSTORE PUSH4 0x74617465 PUSH1 0xE0 SHL PUSH1 0x64 DUP3 ADD MSTORE PUSH1 0x84 SWAP1 REVERT JUMPDEST CALLVALUE PUSH2 0x29B JUMPI PUSH1 0x0 CALLDATASIZE PUSH1 0x3 NOT ADD SLT PUSH2 0x29B JUMPI PUSH1 0x3 SLOAD PUSH1 0x40 MLOAD PUSH1 0x1 PUSH1 0x1 PUSH1 0xA0 SHL SUB SWAP1 SWAP2 AND DUP2 MSTORE PUSH1 0x20 SWAP1 RETURN JUMPDEST CALLVALUE PUSH2 0x29B JUMPI PUSH1 0x0 CALLDATASIZE PUSH1 0x3 NOT ADD SLT PUSH2 0x29B JUMPI PUSH1 0x20 PUSH1 0x9 SLOAD PUSH1 0x40 MLOAD SWAP1 DUP2 MSTORE RETURN JUMPDEST CALLVALUE PUSH2 0x29B JUMPI PUSH1 0x0 CALLDATASIZE PUSH1 0x3 NOT ADD SLT PUSH2 0x29B JUMPI PUSH1 0x20 PUSH1 0xFF PUSH1 0xD SLOAD PUSH1 0x18 SHR AND PUSH1 0x40 MLOAD SWAP1 ISZERO ISZERO DUP2 MSTORE RETURN JUMPDEST CALLVALUE PUSH2 0x29B JUMPI PUSH1 0x40 CALLDATASIZE PUSH1 0x3 NOT ADD SLT PUSH2 0x29B JUMPI PUSH32 0x7CFAD8B150BE9751A5386CC4E0F549618032FF63D14FAB4F77CD4B0AAAEDC242 PUSH1 0x40 PUSH1 0x4 CALLDATALOAD PUSH2 0x1323 PUSH2 0x171D JUMP JUMPDEST PUSH2 0x132B PUSH2 0x1B6D JUMP JUMPDEST DUP2 PUSH1 0x5 SSTORE PUSH1 0x1 DUP1 PUSH1 0xA0 SHL SUB AND DUP1 PUSH1 0x1 PUSH1 0x1 PUSH1 0x60 SHL SUB PUSH1 0xA0 SHL PUSH1 0x4 SLOAD AND OR PUSH1 0x4 SSTORE DUP3 MLOAD SWAP2 DUP3 MSTORE PUSH1 0x20 DUP3 ADD MSTORE LOG1 STOP JUMPDEST CALLVALUE PUSH2 0x29B JUMPI PUSH1 0x0 CALLDATASIZE PUSH1 0x3 NOT ADD SLT PUSH2 0x29B JUMPI PUSH1 0x20 PUSH1 0x6 SLOAD PUSH1 0x40 MLOAD SWAP1 DUP2 MSTORE RETURN JUMPDEST CALLVALUE PUSH2 0x29B JUMPI PUSH1 0x0 CALLDATASIZE PUSH1 0x3 NOT ADD SLT PUSH2 0x29B JUMPI PUSH1 0x20 PUSH1 0xB SLOAD PUSH1 0x40 MLOAD SWAP1 DUP2 MSTORE RETURN JUMPDEST CALLVALUE PUSH2 0x29B JUMPI PUSH1 0x0 CALLDATASIZE PUSH1 0x3 NOT ADD SLT PUSH2 0x29B JUMPI PUSH1 0x20 PUSH1 0x7 SLOAD PUSH1 0x40 MLOAD SWAP1 DUP2 MSTORE RETURN JUMPDEST PUSH1 0x0 CALLDATASIZE PUSH1 0x3 NOT ADD SLT PUSH2 0x29B JUMPI PUSH1 0xD SLOAD PUSH2 0x13D1 PUSH1 0xFF DUP3 PUSH1 0x20 SHR AND ISZERO PUSH2 0x1749 JUMP JUMPDEST PUSH1 0x1 PUSH1 0x20 SHL PUSH1 0xFF PUSH1 0x20 SHL NOT DUP3 AND OR SWAP1 PUSH1 0xFF DUP3 PUSH1 0x28 SHR AND PUSH1 0x6 DUP2 LT ISZERO PUSH2 0x285 JUMPI PUSH1 0x1 PUSH2 0x13FC SWAP2 EQ PUSH2 0x178E JUMP JUMPDEST PUSH2 0x140A PUSH1 0x9 SLOAD TIMESTAMP GT ISZERO PUSH2 0x17D1 JUMP JUMPDEST PUSH1 0x2 SLOAD PUSH1 0x1 PUSH1 0x1 PUSH1 0xA0 SHL SUB AND SWAP2 CALLER DUP4 SWAP1 SUB PUSH2 0x151C JUMPI PUSH1 0x8 SHR PUSH1 0xFF AND PUSH2 0x14D7 JUMPI PUSH2 0x1438 PUSH1 0x6 SLOAD PUSH1 0x8 SLOAD SWAP1 PUSH2 0x181D JUMP JUMPDEST CALLVALUE SUB PUSH2 0x1492 JUMPI PUSH5 0x100000100 SWAP1 PUSH5 0xFF0000FF00 NOT AND OR PUSH1 0xD SSTORE PUSH32 0x2DA466A7B24304F47E87FA2E1E5A81B9831CE54FEC19055CE277CA2F39BA42C4 PUSH1 0x20 PUSH1 0x40 MLOAD CALLVALUE DUP2 MSTORE LOG2 PUSH2 0x1483 PUSH2 0x1B24 JUMP JUMPDEST PUSH1 0xD DUP1 SLOAD PUSH1 0xFF PUSH1 0x20 SHL NOT AND SWAP1 SSTORE STOP JUMPDEST PUSH1 0x40 MLOAD PUSH3 0x461BCD PUSH1 0xE5 SHL DUP2 MSTORE PUSH1 0x20 PUSH1 0x4 DUP3 ADD MSTORE PUSH1 0x1F PUSH1 0x24 DUP3 ADD MSTORE PUSH32 0x496E636F72726563742073656C6C6572206465706F73697420616D6F756E7400 PUSH1 0x44 DUP3 ADD MSTORE PUSH1 0x64 SWAP1 REVERT JUMPDEST PUSH1 0x40 MLOAD PUSH3 0x461BCD PUSH1 0xE5 SHL DUP2 MSTORE PUSH1 0x20 PUSH1 0x4 DUP3 ADD MSTORE PUSH1 0x18 PUSH1 0x24 DUP3 ADD MSTORE PUSH32 0x53656C6C657220616C7265616479206465706F73697465640000000000000000 PUSH1 0x44 DUP3 ADD MSTORE PUSH1 0x64 SWAP1 REVERT JUMPDEST PUSH1 0x40 MLOAD PUSH3 0x461BCD PUSH1 0xE5 SHL DUP2 MSTORE PUSH1 0x20 PUSH1 0x4 DUP3 ADD MSTORE PUSH1 0x17 PUSH1 0x24 DUP3 ADD MSTORE PUSH32 0x4F6E6C792073656C6C65722063616E206465706F736974000000000000000000 PUSH1 0x44 DUP3 ADD MSTORE PUSH1 0x64 SWAP1 REVERT JUMPDEST CALLVALUE PUSH2 0x29B JUMPI PUSH1 0x0 CALLDATASIZE PUSH1 0x3 NOT ADD SLT PUSH2 0x29B JUMPI PUSH1 0x2 SLOAD PUSH1 0x40 MLOAD PUSH1 0x1 PUSH1 0x1 PUSH1 0xA0 SHL SUB SWAP1 SWAP2 AND DUP2 MSTORE PUSH1 0x20 SWAP1 RETURN JUMPDEST PUSH1 0x0 CALLDATASIZE PUSH1 0x3 NOT ADD SLT PUSH2 0x29B JUMPI PUSH1 0xD SLOAD PUSH2 0x15A9 PUSH1 0xFF DUP3 PUSH1 0x20 SHR AND ISZERO PUSH2 0x1749 JUMP JUMPDEST PUSH1 0xFF PUSH1 0x20 SHL NOT DUP2 AND PUSH1 0x1 PUSH1 0x20 SHL OR PUSH1 0x28 SHR PUSH1 0xFF AND PUSH1 0x6 DUP2 LT ISZERO PUSH2 0x285 JUMPI PUSH1 0x1 PUSH2 0x15D2 SWAP2 EQ PUSH2 0x178E JUMP JUMPDEST PUSH2 0x15E0 PUSH1 0x9 SLOAD TIMESTAMP GT ISZERO PUSH2 0x17D1 JUMP JUMPDEST PUSH1 0x1 SLOAD PUSH1 0x1 PUSH1 0x1 PUSH1 0xA0 SHL SUB AND SWAP1 CALLER DUP3 SWAP1 SUB PUSH2 0x16DF JUMPI PUSH1 0xFF DUP2 AND PUSH2 0x169A JUMPI PUSH1 0x7 SLOAD CALLVALUE SUB PUSH2 0x164B JUMPI PUSH5 0x100000001 SWAP1 PUSH5 0xFF000000FF NOT AND OR PUSH1 0xD SSTORE PUSH32 0x2DA466A7B24304F47E87FA2E1E5A81B9831CE54FEC19055CE277CA2F39BA42C4 PUSH1 0x20 PUSH1 0x40 MLOAD CALLVALUE DUP2 MSTORE LOG2 PUSH2 0x1483 PUSH2 0x1B24 JUMP JUMPDEST PUSH1 0x40 MLOAD PUSH3 0x461BCD PUSH1 0xE5 SHL DUP2 MSTORE PUSH1 0x20 PUSH1 0x4 DUP3 ADD MSTORE PUSH1 0x21 PUSH1 0x24 DUP3 ADD MSTORE PUSH32 0x496E636F727265637420627579657220636F6C6C61746572616C20616D6F756E PUSH1 0x44 DUP3 ADD MSTORE PUSH1 0x1D PUSH1 0xFA SHL PUSH1 0x64 DUP3 ADD MSTORE PUSH1 0x84 SWAP1 REVERT JUMPDEST PUSH1 0x40 MLOAD PUSH3 0x461BCD PUSH1 0xE5 SHL DUP2 MSTORE PUSH1 0x20 PUSH1 0x4 DUP3 ADD MSTORE PUSH1 0x17 PUSH1 0x24 DUP3 ADD MSTORE PUSH32 0x427579657220616C7265616479206465706F7369746564000000000000000000 PUSH1 0x44 DUP3 ADD MSTORE PUSH1 0x64 SWAP1 REVERT JUMPDEST PUSH1 0x40 MLOAD PUSH3 0x461BCD PUSH1 0xE5 SHL DUP2 MSTORE PUSH1 0x20 PUSH1 0x4 DUP3 ADD MSTORE PUSH1 0x16 PUSH1 0x24 DUP3 ADD MSTORE PUSH22 0x13DB9B1E48189D5E595C8818D85B8819195C1BDCDA5D PUSH1 0x52 SHL PUSH1 0x44 DUP3 ADD MSTORE PUSH1 0x64 SWAP1 REVERT JUMPDEST PUSH1 0x24 CALLDATALOAD SWAP1 PUSH1 0x1 PUSH1 0x1 PUSH1 0xA0 SHL SUB DUP3 AND DUP3 SUB PUSH2 0x29B JUMPI JUMP JUMPDEST PUSH1 0x4 CALLDATALOAD SWAP1 PUSH1 0x1 PUSH1 0x1 PUSH1 0xA0 SHL SUB DUP3 AND DUP3 SUB PUSH2 0x29B JUMPI JUMP JUMPDEST ISZERO PUSH2 0x1750 JUMPI JUMP JUMPDEST PUSH1 0x40 MLOAD PUSH3 0x461BCD PUSH1 0xE5 SHL DUP2 MSTORE PUSH1 0x20 PUSH1 0x4 DUP3 ADD MSTORE PUSH1 0x16 PUSH1 0x24 DUP3 ADD MSTORE PUSH22 0x1499595B9D1C985B98DE481B9BDD08185B1B1BDDD959 PUSH1 0x52 SHL PUSH1 0x44 DUP3 ADD MSTORE PUSH1 0x64 SWAP1 REVERT JUMPDEST ISZERO PUSH2 0x1795 JUMPI JUMP JUMPDEST PUSH1 0x40 MLOAD PUSH3 0x461BCD PUSH1 0xE5 SHL DUP2 MSTORE PUSH1 0x20 PUSH1 0x4 DUP3 ADD MSTORE PUSH1 0x14 PUSH1 0x24 DUP3 ADD MSTORE PUSH20 0x11195C1BDCDA5D1CC81B9BDD08185B1B1BDDD959 PUSH1 0x62 SHL PUSH1 0x44 DUP3 ADD MSTORE PUSH1 0x64 SWAP1 REVERT JUMPDEST ISZERO PUSH2 0x17D8 JUMPI JUMP JUMPDEST PUSH1 0x40 MLOAD PUSH3 0x461BCD PUSH1 0xE5 SHL DUP2 MSTORE PUSH1 0x20 PUSH1 0x4 DUP3 ADD MSTORE PUSH1 0x17 PUSH1 0x24 DUP3 ADD MSTORE PUSH32 0x4465706F73697420646561646C696E6520706173736564000000000000000000 PUSH1 0x44 DUP3 ADD MSTORE PUSH1 0x64 SWAP1 REVERT JUMPDEST SWAP2 SWAP1 DUP3 ADD DUP1 SWAP3 GT PUSH2 0x182A JUMPI JUMP JUMPDEST PUSH4 0x4E487B71 PUSH1 0xE0 SHL PUSH1 0x0 MSTORE PUSH1 0x11 PUSH1 0x4 MSTORE PUSH1 0x24 PUSH1 0x0 REVERT JUMPDEST ISZERO PUSH2 0x1847 JUMPI JUMP JUMPDEST PUSH1 0x40 MLOAD PUSH3 0x461BCD PUSH1 0xE5 SHL DUP2 MSTORE PUSH1 0x20 PUSH1 0x4 DUP3 ADD MSTORE PUSH1 0x21 PUSH1 0x24 DUP3 ADD MSTORE PUSH32 0x436F6E6669726D6174696F6E20646561646C696E65206E6F7420726561636865 PUSH1 0x44 DUP3 ADD MSTORE PUSH1 0x19 PUSH1 0xFA SHL PUSH1 0x64 DUP3 ADD MSTORE PUSH1 0x84 SWAP1 REVERT JUMPDEST RETURNDATASIZE ISZERO PUSH2 0x18F9 JUMPI RETURNDATASIZE SWAP1 PUSH8 0xFFFFFFFFFFFFFFFF DUP3 GT PUSH2 0x18E3 JUMPI PUSH1 0x40 MLOAD SWAP2 PUSH1 0x1F DUP2 ADD PUSH1 0x1F NOT SWAP1 DUP2 AND PUSH1 0x3F ADD AND DUP4 ADD PUSH8 0xFFFFFFFFFFFFFFFF DUP2 GT DUP5 DUP3 LT OR PUSH2 0x18E3 JUMPI PUSH1 0x40 MSTORE DUP3 MSTORE RETURNDATASIZE PUSH1 0x0 PUSH1 0x20 DUP5 ADD RETURNDATACOPY JUMP JUMPDEST PUSH4 0x4E487B71 PUSH1 0xE0 SHL PUSH1 0x0 MSTORE PUSH1 0x41 PUSH1 0x4 MSTORE PUSH1 0x24 PUSH1 0x0 REVERT JUMPDEST PUSH1 0x60 SWAP1 JUMP JUMPDEST ISZERO PUSH2 0x1905 JUMPI JUMP JUMPDEST PUSH1 0x40 MLOAD PUSH3 0x461BCD PUSH1 0xE5 SHL DUP2 MSTORE PUSH1 0x20 PUSH1 0x4 DUP3 ADD MSTORE PUSH1 0x16 PUSH1 0x24 DUP3 ADD MSTORE PUSH22 0x1499599D5B99081D1BC8189D5E595C8819985A5B1959 PUSH1 0x52 SHL PUSH1 0x44 DUP3 ADD MSTORE PUSH1 0x64 SWAP1 REVERT JUMPDEST ISZERO PUSH2 0x194A JUMPI JUMP JUMPDEST PUSH1 0x40 MLOAD PUSH3 0x461BCD PUSH1 0xE5 SHL DUP2 MSTORE PUSH1 0x20 PUSH1 0x4 DUP3 ADD MSTORE PUSH1 0x17 PUSH1 0x24 DUP3 ADD MSTORE PUSH32 0x526566756E6420746F2073656C6C6572206661696C6564000000000000000000 PUSH1 0x44 DUP3 ADD MSTORE PUSH1 0x64 SWAP1 REVERT JUMPDEST DUP2 DUP2 MUL SWAP3 SWAP2 DUP2 ISZERO SWAP2 DUP5 DIV EQ OR ISZERO PUSH2 0x182A JUMPI JUMP JUMPDEST SWAP2 SWAP1 DUP3 SUB SWAP2 DUP3 GT PUSH2 0x182A JUMPI JUMP JUMPDEST ISZERO PUSH2 0x19B6 JUMPI JUMP JUMPDEST PUSH1 0x40 MLOAD PUSH3 0x461BCD PUSH1 0xE5 SHL DUP2 MSTORE PUSH1 0x20 PUSH1 0x4 DUP3 ADD MSTORE PUSH1 0x18 PUSH1 0x24 DUP3 ADD MSTORE PUSH32 0x5472616E7366657220746F206275796572206661696C65640000000000000000 PUSH1 0x44 DUP3 ADD MSTORE PUSH1 0x64 SWAP1 REVERT JUMPDEST ISZERO PUSH2 0x1A02 JUMPI JUMP JUMPDEST PUSH1 0x40 MLOAD PUSH3 0x461BCD PUSH1 0xE5 SHL DUP2 MSTORE PUSH1 0x20 PUSH1 0x4 DUP3 ADD MSTORE PUSH1 0x1B PUSH1 0x24 DUP3 ADD MSTORE PUSH32 0x5472616E7366657220746F20706C6174666F726D206661696C65640000000000 PUSH1 0x44 DUP3 ADD MSTORE PUSH1 0x64 SWAP1 REVERT JUMPDEST ISZERO PUSH2 0x1A4E JUMPI JUMP JUMPDEST PUSH1 0x40 MLOAD PUSH3 0x461BCD PUSH1 0xE5 SHL DUP2 MSTORE PUSH1 0x20 PUSH1 0x4 DUP3 ADD MSTORE PUSH1 0x19 PUSH1 0x24 DUP3 ADD MSTORE PUSH32 0x5472616E7366657220746F2073656C6C6572206661696C656400000000000000 PUSH1 0x44 DUP3 ADD MSTORE PUSH1 0x64 SWAP1 REVERT JUMPDEST ISZERO PUSH2 0x1A9A JUMPI JUMP JUMPDEST PUSH1 0x40 MLOAD PUSH3 0x461BCD PUSH1 0xE5 SHL DUP2 MSTORE PUSH1 0x20 PUSH1 0x4 DUP3 ADD MSTORE PUSH1 0x19 PUSH1 0x24 DUP3 ADD MSTORE PUSH32 0x4E6F7420696E20636F6E6669726D6174696F6E20706861736500000000000000 PUSH1 0x44 DUP3 ADD MSTORE PUSH1 0x64 SWAP1 REVERT JUMPDEST ISZERO PUSH2 0x1AE6 JUMPI JUMP JUMPDEST PUSH1 0x40 MLOAD PUSH3 0x461BCD PUSH1 0xE5 SHL DUP2 MSTORE PUSH1 0x20 PUSH1 0x4 DUP3 ADD MSTORE PUSH1 0x16 PUSH1 0x24 DUP3 ADD MSTORE PUSH22 0x119A585D08185B1C9958591E4818DBDB999A5C9B5959 PUSH1 0x52 SHL PUSH1 0x44 DUP3 ADD MSTORE PUSH1 0x64 SWAP1 REVERT JUMPDEST PUSH1 0xD SLOAD PUSH1 0xFF DUP2 AND SWAP1 DUP2 PUSH2 0x1B5F JUMPI JUMPDEST POP PUSH2 0x1B39 JUMPI JUMP JUMPDEST PUSH6 0x20000000000 PUSH1 0xFF PUSH1 0x28 SHL NOT PUSH1 0xD SLOAD AND OR PUSH1 0xD SSTORE PUSH2 0x1B5A PUSH1 0xB SLOAD TIMESTAMP PUSH2 0x181D JUMP JUMPDEST PUSH1 0xA SSTORE JUMP JUMPDEST PUSH1 0xFF SWAP2 POP PUSH1 0x8 SHR AND CODESIZE PUSH2 0x1B32 JUMP JUMPDEST PUSH1 0x0 SLOAD PUSH1 0x1 PUSH1 0x1 PUSH1 0xA0 SHL SUB AND CALLER SUB PUSH2 0x1B81 JUMPI JUMP JUMPDEST PUSH4 0x118CDAA7 PUSH1 0xE0 SHL PUSH1 0x0 MSTORE CALLER PUSH1 0x4 MSTORE PUSH1 0x24 PUSH1 0x0 REVERT INVALID LOG2 PUSH5 0x6970667358 0x22 SLT KECCAK256 CREATE2 ADDRESS 0xCC EXTCODECOPY 0x4E PUSH18 0x2B064140BB75762E972EB454004FCFE5354F DELEGATECALL PUSH14 0x61A6F38B47264736F6C63430008 SHR STOP CALLER "},"methodIdentifiers":{"arbitrator()":"6cc6cde1","buyer()":"7150d8ae","buyerCollateral()":"23f64d37","buyerDeposited()":"7c148952","cancelTrade()":"9c76230c","confirmFiatReceived()":"fdfff32f","confirmFiatSent()":"e50bed57","confirmationDeadline()":"c57b3fb3","confirmationDuration()":"365767ba","cryptoAmount()":"493acc39","depositByBuyer()":"055c34e8","depositBySeller()":"1cfd77be","depositDeadline()":"61603d89","disputeRaisedAt()":"b95d8dd4","disputeTimeout()":"c04c22a4","escalateDispute()":"89388d8d","feeRate()":"978bbdb9","fiatReceivedConfirmed()":"5305369b","fiatSentConfirmed()":"b5655bcf","initTrade(address,address,address,uint256,uint256,uint256,uint256,uint256,uint256,uint256,address)":"d362903c","owner()":"8da5cb5b","platformWallet()":"fa2af9da","raiseDispute()":"6daa2d44","releaseTrade()":"dea9851c","renounceOwnership()":"715018a6","resolveDispute(bool,uint8)":"b7366d77","seller()":"08551a53","sellerCollateral()":"ad792f5e","sellerDeposited()":"8f8b252e","setFeeAndWallet(uint256,address)":"4b0e7297","tradeState()":"864e1827","transferOwnership(address)":"f2fde38b","updateArbitrator(address)":"bffc243d"}}}}}